:020000040000FA
:060000000213D70208778D
:03002B0002116659
:03003300020FE6D3
:0300430002103474
:030053000207ACF5
:1000830002080B0100F0FF0700080000FFFF00005B
:100093000704000000030001FF14102700000020E4
:1000A300FD0002641A6A1A5E1AFF0186000000004E
:1000B3000079FF0179A000000000E6FF017900004C
:1000C3000000008606FFFF1E900190019001900141
:1000D300640000760110171617881D000000000049
:1000E300000000000000000000000000000000000D
:1000F30000000000000000000000000000000000FD
:1001030000000000008B1DAC1D000000000000007B
:1001130000000000000000FF0100E803D00700001A
:1001230000000000000000000000000000000000CC
:10013300000000000000FF0104010C0002019C8884
:1001430004658701040000131A000000E80300009F
:10015300FFFF701A0188130000E8030000640064C5
:1001630000B801A0BB0D00A0BB0D000202020704F2
:100173000101051E02051E020A0A01010108090800
:100183000103B80B02803E0102FEFFE8030A0500EB
:1001930001FFFF010A011401E00100B0423BAAB8CC
:1001A3003F0000003F8C906339AA0CA33A00941ED1
:1001B3003C8042633DCFFE753E1572313F000080A7
:1001C3003FF304353F8096184B000080BF2292D442
:1001D3003EDD9B2A3F04000040FFFF7F7FFFFF7F40
:1001E300FF010080341872313F01050301010F1034
:1001F300FEFF7C3300000000143300000000FF000A
:100203000000FF001214056046121423603DE968E4
:100213007008F618F618F618F622748067F71202BB
:100223003B090909748067F722121423601D121415
:10023300057005191919801A1212B3701F1212636F
:10024300C37003E6673319191940071818182208F1
:10025300080874FFF618F618F618F62212126360EF
:10026300171214A3702192F01214917019501720D1
:10027300F014080808090909E7F61819E7F6181928
:10028300E7F61819E7F62212149160E6E869701F81
:100293000808E62480F608E436F618547FB47F0C89
:1002A300E654806007F6E418F618F622181822E9D7
:1002B300C6CC08C6CD08C6CE08C6CFC0E0E8C0E0AD
:1002C300EAC0E0EBC0E009E9F809E7FA09E7FBE671
:1002D300F918E6F8C3EC98ED99EE9AEBC2E7F5F05E
:1002E300EFC2E795F0500E600CEBCFFBEACEFAE9D4
:1002F300CDF9E8CCF8EAA2E7D2E7FAEB33FB13F542
:10030300F0EEA2E7D2E7FEEF33FFC5F013A2E7302A
:10031300E601B313C5F0C3C0E0C0F07F00C39BFB8D
:10032300605E9418600F401D14601AD0E023F9D06A
:10033300E0F802040D8AF0E9486003D2F0E4AFF07C
:10034300FAF9F8803BEB30E40D89F0EA6003D2F070
:10035300E4AFF0F9CAF8EB30E30D88F0EF6002D2B6
:10036300F0AFF0E4CAC9F8EB54076014FBC3EA1317
:10037300FAE913F9E813F8EF135002D2E0FFDBEDCB
:10038300D0E0C0E030E739C3E49FFFF5F0EC98FC20
:1003930042F0ED99FD42F0EE9AFE42F0D0E0F9D042
:1003A300E0F8E5F0607AE923F9EE20E742D802802D
:1003B30067C3EF33FFEC33FCED33FDEE33FE80EA2E
:1003C300EC28FCED39FDEE3AFED0E023F9D0E0F85D
:1003D3004002801BC3EE13FEED13FDEC13FCEF1381
:1003E3005002D2E0FF08B800067F7F74FF802EEF33
:1003F3003350178CF020F00260100CBC000C0DBDC4
:1004030000080EBE000408E860DFE933E813FFEEDE
:100413002313FE4F4D4C8008E95480FFE4FEFDFC9E
:10042300EE33EF33F47004FCFD7E80D0E0FBD0E0CC
:10043300FAD0E0F8D0E0CFC618CEC618CDC618CC97
:10044300C6F9221214237004181818221214057006
:100453000D74FFF61819F61819F61819F622E75451
:100463008066F6121491700F1214A370F014F6083C
:10047300F608F608F680D11214A3700CF608F608F5
:10048300768008E6447F80EC121266700C1212B676
:1004930060BFE65480F6E480BB1212B670051919EA
:1004A3001980A5E869700C763F18768018F618F65F
:1004B300E8F922E6CDC0E018ECC0E0E633CD33CD59
:1004C300D313F6E719FCE7191933CC33C3947F40F0
:1004D3000ECD9D502408E65480F6E418F6800FF400
:1004E300043D14501408E6447FF6187680E418F6A9
:1004F30018F6D0E0FCD0E0FD22CCD313CCFD18E4F9
:10050300C6CBC0E018E4C6CAC0E00808ED08C6338D
:10051300E613F618E433C675F003C3CA97CA09CBCA
:1005230097CB199C40047D08802EBD00030205EF84
:1005330016B6FF050606081618C3CA33CACB33CB53
:1005430033CA27CA09CB37CB193CC37D08803E1871
:100553007D0820E75CC633C6CA33CACB33CB33DD51
:10056300F1D5F0EB30E77BCA97CA09CB974ACB1991
:100573009C406F4B7025E620E0218066187D08C300
:10058300CA97CA09CB97CB199CD3C633C6CA33CAF9
:10059300CB33CB3350C9DDE7D5F0E1D3E4C636C660
:1005A30008C636C608C636C608C636C61818188022
:1005B30031C3CA97CA09CB97CB199CB34097C633AB
:1005C300C6CA33CACB33CB33DD34D5F02EC6A2E053
:1005D300C640C8CA27CA09CB37194A70BECB3CB438
:1005E30080B90808E63308E633601F181818D0E00E
:1005F300FAD0E0FBD0E0FCD0E0FD22187D08CA274A
:10060300CA09CB37CB193CD3808013F618E4B67FE5
:1006130011F618B6FF0EF618C60470D208087680D5
:1006230080CAF618F618F680C500121423604F121C
:1006330014056012E7548066F61212B37011121497
:10064300A3703B090909F4F618F618F618F62212F6
:100653001263701512149108080860EAE6447FF6E5
:1006630018768018E4F618F6221214916016121404
:10067300A37012E4F608F608F608E65480F60909B2
:100683000918181822EAC0E0EBC0E0ECC0E0EDC0A6
:10069300E0E687F0A4FBACF008E687F0A42CFCE4CA
:1006A30035F0FA1809E687F0A42C4B60027401CAEE
:1006B30035F0FCE433FB09E687F0D2F7A42CCB3505
:1006C300F0FC1908E687F0A42BCC35F0FBE433FDEE
:1006D3000819E687F0D2E7A42C4ACB35F0CD3400D5
:1006E300FC09E687F0D2E7A42DCC35F0FDE433FA1C
:1006F3000918E687F0D2F7A42CCD35F0CA3400FCF4
:1007030008E687F0D2E7D2F7A42ACC35F07A7E2028
:10071300E70B0ACB33CBCD33CDCC33CC33CB3350F8
:10072300147004ED30E00ED2F1E4CD3DCDCC3CCCE1
:100733003B5005DA05C2F1EB547FC63308E633922A
:10074300F0FBE73309E733C39A502D2B70190C0DD7
:100753004C4D70151806E608C333700D20F10AA23C
:10076300F013F6E418800B4024E4F630F0027680B0
:1007730018F618F618F68024D33B14501074FFA211
:10078300F013F6187680E418F618F6800FA2F0132B
:10079300F618E63303F618ECF618EDF6D0E0FDD0C4
:1007A300E0FCD0E0FBD0E0FA22C0E074F1120BA031
:1007B300A2AFE433F509D2AF85A708AFA1EF55087F
:1007C300FE74105E600612180075A1EF74085E6077
:1007D3000812180675A1F78024EFA2E092F0E5084D
:1007E300A2E082F05017906198E0F89009FEE0C310
:1007F30098A2D265D0335002E8F075A1FEE509A2B4
:10080300E092AF7F02020BFFC0E074F2120BA0A2D2
:10081300AFE433FED2AF9061A4E0F8759B00E5919D
:1008230058540860087591F71218548023E59158BD
:10083300541060087591EF12185A8014E591A2E0E4
:1008430092F0E8A2E082F05007E0C2E0F01219B0A3
:100853009061A3E0F8E5E9585404600E1219867517
:10086300E9FB906193E0A2E640F2EEA2E092AF7F53
:1008730001020BFFC0E074F2120BA0A2AFE433FE3F
:10088300D2AF9061A5E0F8E5BF585404600675BF88
:10089300FB1219C880D41208E430F03912092980F8
:1008A300341208E420F01430E72B74FFFCFBFA74D5
:1008B3007F8022E4FCFBFA7480801AB48008BC00B9
:1008C300F2BB00EF800F50EBF9E4C39AFAE49BFB11
:1008D300E49CFCE499C6CC18C6CB18C6CA18C6F962
:1008E30022E4C9C608CAC608CBC6D3330308CCC69C
:1008F3003392F0C3947F402E94184019C9B907046A
:10090300CACBCC225025C309CA33CACB33CBCC3391
:10091300CC33D9F422F4600DC9CCC313CB13CBCAA7
:1009230013CAD9F6CC22E4FCFBFA2214FCFBFA220C
:10093300C3E498F8E499F91209748026C3E49AFA97
:10094300E49BFBE920E7E9120974E498F8E499F9D8
:1009530022C3E498F8E499F9120974E498F8E49945
:10096300F9C3E49AFAE49BFB22EB20E7CFE920E703
:10097300E0B90010BB0008E88AF084F8AAF022E48A
:10098300FBC8FA22EB70227B10C833C8C933C933C2
:100993005007C39AC3DBF280069A50012ADBEAC8E8
:1009A30033F4C8C933F4C9FA2275F008E4C833C86C
:1009B300C933C933C99AC99B5004C92AC93BD5F065
:1009C300ECFBC833F4C8E4C9FA22080808EAC0E01B
:1009D300EBC0E086F0E7A4FA180986F0E7A42AFA48
:1009E300180986F0E7A42AFA180986F0E7A42AFA78
:1009F3001986F0E7A4FBE5F02AFA190886F0E7A4C4
:100A03002BFBE5F03AFA190886F0E7A42BFBE5F097
:100A13003AFA18180986F0E7A4C5F02BFBE43AFA72
:100A23001908E7C5F0C6A426F6E5F03BFBE43AFA5D
:100A33001886F0E7A4F6E5F00826F6E43B08F6E4AA
:100A43003A08F6D0E0FBD0E0FA22080808E630E7DF
:100A530011121277120A65080808C64480C61818CE
:100A63001822181818E9799EC608CAC608CBC60802
:100A7300CCC6C370207996CACBCC7019798ECBCCF7
:100A830070137986CC700EF9802ACA33CACB33CB64
:100A9300CC33CC331930E7F2CCCBCA3350147004C7
:100AA300EA30E00DE4CA3ACACB3BCBCC3CCC500293
:100AB30009C3E913C6CC182313C6CB18C6CA18C674
:100AC300F922E4CFC0E0E4CEC0E0E4CDC0E0E4CC62
:100AD300C0E075F020E626F608E633F608E633F6BE
:100AE30008E633F6181818EC33FCED33FDEE33FE4D
:100AF300EF33FFC3EC9709ED9709EE9709EF9719C9
:100B03001919400FFFEC97FC09ED97FD09EE97FECD
:100B1300191906D5F0BFECF709EDF709EEF709EF60
:100B2300F7191919D0E0FCD0E0FDD0E0FED0E0FFCA
:100B3300222521C582C0E0E52234FFC583C0E0E55C
:100B430021C3958224F810AF0885832285822180F2
:100B530008858322858221D2AFCEF0A3E520F0A3BE
:100B63007808E608F0A3DEFAEFF0A3E58124FAF8AB
:100B7300E608F0A3E608F0A3E608F0A30808E608F1
:100B8300F0A3E608F0A315811581D0E0FED0E0F8CC
:100B9300158115811581E8C0E0EEC0E022C0D025A3
:100BA30021C582C0E0E52234FFC583C0E0E521C34F
:100BB300958224F310AF08858322858221800885DE
:100BC3008322858221D2AFC8F0A3E9F0A3EAF0A380
:100BD300EBF0A37908E709F0A3D8FAECF0A3EDF062
:100BE300A3EEF0A3EFF0A3D0E0F0A3D0E0F0A3D006
:100BF300E0F0A3E520F0A3E5F0F0A32285228385AE
:100C03002182E0C0E0A3E0F9A3E0FAA3E0FBA3782C
:100C130008E0F608A3DFFAE0FCA3E0FDA3E0FEA3EF
:100C2300E0FFA3E0C0E0A3E0C0E0A3E0F5D0A3E0D1
:100C3300F520A3E0A3F5F010AF0885832285822178
:100C43008008858322858221D2AFD082D083D0E0F1
:100C5300F8D0E03212127A181818120AC512138645
:100C630019191922121386191919080808E61818F0
:100C73001820E7E0120AC512127A18181822090977
:100C830009E719191920E7DC080808E618181820DD
:100C9300E703020AC512127A181818120AC51212AB
:100CA3007A1818181213861919192212147CB9000C
:100CB30003020CEDE4900501786B79198002F0A32F
:100CC300D8FCD9FA7A6B7B1D9000867882790280F2
:100CD30015E493A3AD82AE838A828B83F0A3AA82A9
:100CE300AB838D828E83D8E9D9E775824A75839A5F
:100CF30074061210F775825475833074001210F75E
:100D03000575F0108E238F248582288583278521FE
:100D130082852283E0CEA3E0CF852882852783EBDB
:100D2300C9EAC8EDCBECCAC3E833C8E933C9EA332F
:100D3300CAEB33CBC3EA9EF526EB9FF525B35004EC
:100D4300AB25AA26EC33CCED33CDD5F0DAAE23AF09
:100D53002422121423601C121405601712149170BC
:100D6300071214A37001D322C0D01214A37006D0AB
:100D7300D0B322C32233D0D0501430E0F6C3E79669
:100D83000809E7960809E7960809E796B32220E0E1
:100D9300D5E6970809E6970809E6970809E697B3A1
:100DA30022121423601B121405601612149170078B
:100DB3001214A3600CB322C0D01214A37005D0D0B8
:100DC30022C32233D0D0501330E0EBC3E796080997
:100DD300E7960809E7960809E7962220E0E4E697F4
:100DE3000809E6970809E6970809E69722D083D011
:100DF30082ECC0E0EDC0E0E493A3FCE493A3FDED3B
:100E03004C600D120EC8EC24FFFCED34FFFD80EFA7
:100E1300E493A3FCE493A3FDED4C600D120F91EC5E
:100E230024FFFCED34FFFD80EFD0E0FDD0E0FCE4D7
:100E330093A3C0E0E493C0E022852283852182E06E
:100E4300A3FEE0A3F5207808E0A3F608DFFAE0A309
:100E5300FFE0A3C0E0E0A3C0E0E0A3C0E0E0A3C0E4
:100E6300E0E0A3C0E010AF088582218583228008DB
:100E7300858221858322D2AFD083D0820210FDD018
:100E830083D082E9C0E0E493A3C386F0C5F095F074
:100E9300F908E493A386F0C5F095F0700BE493A3EF
:100EA300C3994005E9048002A3E475F002A42582F6
:100EB300F582E5F03583F583D0E0F9E493A3C0E050
:100EC300E493C0E022C0E0C3E493960874019396D0
:100ED30018400FE493667008087401936618700055
:100EE3007019A3A3C3E49396087401939618A3A35C
:100EF300400DD0E0D0E0D0E0020E2CA3A3A3A3A327
:100F0300A3D0E0227404800474028000CCC0E0ED1E
:100F1300C0E0E521C39CCCAD2250011D10AF068C6F
:100F2300218D2280068C218D22D2AF121079D0E040
:100F3300FDD0E0FC2274028000CCC0E0EDC0E0E50F
:100F430021C39CCCAD2250011D10AF068C218D22F4
:100F530080068C218D22D2AF121057D0E0FDD0E055
:100F6300FC221214236025121405602012149170C0
:100F7300030214A3080808E76670101819E76670DF
:100F83000A1819E76670041819E76622F422C0E00C
:100F9300C0F088F0E49366700808740193661870D3
:100FA30000A8F0A3A3700BD0F0D0E0D0E0D0E00213
:100FB3000E2CA3A3D0F0D0E022D083D082CCC0E00B
:100FC300E493A360061210B91470FAE493A36006C5
:100FD3001211F91470FAD0E0FCE493A3C0E0E49397
:100FE300C0E022C0E074F2120BA0A2AFE433FED241
:100FF300AFE58BA2E05005790412172E758B00C262
:10100300E8EEA2E092AF7F01020BFFC008C3E096B7
:10101300F50808A3E096420808A3E096420808A34F
:10102300E0964208A2D265D033E5087001D3D00818
:1010330022C0E074F2120BA0A2AFE433FED2AFC21F
:10104300C0E5D1A2E45003121776EEA2E092AF7F7F
:1010530001020BFFCAC0E0E493A3C582CCC582C5DD
:1010630083CDC583F0A3C582CCC582C583CDC5839B
:10107300DAE5D0E0CA22CAC0E0E0A3C582CCC582CB
:10108300C583CDC583F0A3C582CCC582C583CDC539
:1010930083DAE6D0E0CA22C008C3E096F50808A3C5
:1010A300E096420808A3E096420808A3E0964508A4
:1010B3007001D3D00822C0E0E493A3D39C5010E482
:1010C30093A3C39C400AD0E0D0E0D0E0020FD9A3A1
:1010D300A3A3D0E022700908080822601618181884
:1010E300C6C333C608C633C608C633C608C633C626
:1010F300D5E0EA22C09FF59FE473D09F22D083D02E
:1011030082C09FE493C0E0740193C0E0740293F53E
:101113009F222521F58210AF08F521400C1522806E
:1011230008F52140021522D2AF8522832274048060
:101133000A74038006740280027401C0E0F404128E
:101143001115D0E012143F2200C0D0252110AF08A2
:10115300F521500C05228008F52150020522D2AF5B
:10116300D0D022C0E0C0D0E8C0E0A8A8D2AFC2C7A8
:10117300E8A2E792AFD0E0F8D0D0D0E032BB0102D2
:10118300E722C082C08389828A83BB0003E0800296
:10119300E493D083D082226016080808C6C313C61E
:1011A30018C613C618C613C618C613C6D5E0EA2256
:1011B300C3E0C696F608A3E0C696F608A3E0C69673
:1011C300F608A3E0C696F6222521F8E43522F92293
:1011D3002521FAE43522FB222521FCE43522FD22D8
:1011E300252110AF08F521400C15228008F5214078
:1011F300021522D2AF22C0E0E493A36C7009D0E0C1
:10120300D0E0D0E0020FD9A3A3D0E022C3E7960831
:1012130009E7960809E7960809E796A2D265D0334D
:1012230022C3E09608A3E09608A3E09608A3E096FD
:10123300A2D265D03322E76670100809E766700A08
:101243000809E76670040809E76622E0667010087B
:10125300A3E066700A08A3E066700408A3E06622B0
:10126300191919E70947097009E727097005E733D1
:10127300F4220922181818E4C396F608E496F6082F
:10128300E496F608E496F622C3E096F008A3E09607
:10129300F008A3E096F008A3E096F022C3E697F6E1
:1012A3000809E697F60809E697F60809E697F6228D
:1012B300181818E60846087009E626087005E6338C
:1012C300F4220822C3E493960874019396087402E7
:1012D3009396087403939622E026F608A3E036F665
:1012E30008A3E036F608A3E036F622E627F6080957
:1012F300E637F60809E637F60809E637F6227004FA
:1013030022600D18C6C333C608C633C6D5E0F41829
:1013130022E657F60809E657F60809E657F60809DC
:10132300E657F622E056F608A3E056F608A3E05681
:10133300F608A3E056F622E026F008A3E036F0080C
:10134300A3E036F008A3E036F022E056F008A3E06D
:1013530056F008A3E056F008A3E056F022E493F613
:1013630008740193F608740293F608740393F62243
:10137300E647F60809E647F60809E647F60809E6E8
:1013830047F622E4C397F709E497F709E497F709C7
:10139300E497F722600D08C6A2E713C618C613C662
:1013A300D5E0F322C6F4C608C6F4C608C6F4C608D8
:1013B300C6F4C622C3E09608A3E09608A3E0960805
:1013C300A3E09622C3E7960809E7960809E796087B
:1013D30009E7962275D00075813F752101752205B5
:1013E30000020CAE600C08C6C313C618C613C6D5DC
:1013F300E0F422E6F008A3E6F008A3E6F008A3E68B
:10140300F022E7094709C3134709336002E733F4BE
:1014130022E0F608A3E0F608A3E0F608A3E0F6222C
:10142300E6084608C3134608336002E633F4228015
:101433000100E9F874FF28F90470F622CAC0E0E657
:10144300F0A308DAFAD0E0FA22E0F8A3E0F9A3E087
:10145300FAA3E0FB22E8F0A3E9F0A3EAF0A3EBF0A0
:1014630022EAF0A3EBF0A3ECF0A3EDF022E0FAA361
:10147300E0FBA3E0FCA3E0FD22E5C754F84401F53B
:10148300C77901222521F582E43522F58322E62658
:1014930018461846184622C2AF75D69F020000228E
:1014A300E72719471947194722121100CFE0031202
:1014B30011004DE10312110080E1031211008EE2CD
:1014C30003121100AEE20312110002E30312110032
:1014D300EAE303121100ECE5031211008EE6031296
:1014E3001100DEE80312110062E90312110067EC38
:1014F300031211009BEE03121100D3EE031211002D
:1015030032F0031211003CF0031211008BF00312AE
:1015130011005DF203121100F971001211007572CE
:1015230000121100A87200121100D67200121100ED
:101533001473001211004F75001211006E75001222
:101543001100B3750012110049760012110095764F
:101553000012110029770012110001780012110006
:101563005D7800121100BB78001211003879001267
:1015730011006E7900121100B97900121100DF79A0
:10158300001211006F7A00121100067B0012110085
:10159300527B00121100837B00121100BA7B0012F0
:1015A3001100407D001211000A7E00121100DA7E44
:1015B300001211008BA6051211001AA705121100C3
:1015C30080A705121100A5A8051211002FA9051265
:1015D3001100B2A905121100EFA90512110081AA89
:1015E3000512110014AB05121100E7AB051211002F
:1015F300C4AD05121100B2AE051211004DAF0512B4
:101603001100A2AF0512110016B00512110022B38A
:10161300051211004CB50512110049B6051211004F
:1016230087B70512110092B7051211003A8306120B
:101633001100668306121100868306121100AD8322
:1016430006121100F484061211001585061211000A
:10165300D08506121100678606121100B2FF02122E
:101663001100B7FF02121100EAFF021211003C9CA5
:10167300061211008B9C06121100DB9C061211004E
:10168300139D06121100199D06121100579106129F
:1016930011001E9206121100309206121100A3923D
:1016A30006121100F1A90612110009AA061211006F
:1016B300FD7F0012110032AA061211002CA7061298
:1016C30011003CA70612110051A706121100B9A779
:1016D30006121100E3A20612110066A306121100FE
:1016E300CCA306121100F68E06121100148F0612F7
:1016F30011003C8F06121100608F06121100838FB8
:1017030006121100BB8F06121100E38F061211009F
:101713001E9006121100CC9006121100E5A40612C9
:1017230011006CA50612110075A5061211009CA5E7
:10173300061211004BF70512110059F7051211009B
:10174300D2F705121100AAF8051211006DFA05125D
:1017530011008DA906121100C3FA021211002FFB0A
:1017630002121100E7FB02121100D3FC0212110056
:1017730043FE02121100AAFE02121100FEFE021223
:10178300110007FF0212110017FF021211008AFF56
:1017930002121100A0FF02121100C4F7041211007B
:1017A300F0F70412110034FA0412110074FA04124F
:1017B3001100B4FA04121100C8FA04121100E1FA7C
:1017C30004121100D3FB0412110078FC041211005F
:1017D3008CFC04121100F79D061211001B9E0612C9
:1017E3001100349E06121100669E06121100969E89
:1017F30006121100C39E06121100259F0612110046
:10180300349F061211003E9F061211004B9F0612D1
:101813001100518C06121100718C06121100B08C4C
:1018230006121100CB8C06121100EA8C061211006D
:10183300508D06121100598D06121100B68D061235
:101843001100C58D06121100E98D06121100AA8E32
:1018530006121100B78E06121100C88E061211006F
:10186300B37F00121100CB7F00121100F77F00122B
:101873001100F9E2051211004DE4051211005BE4B9
:10188300051211006EE40512110083E40512110024
:1018930098E405121100ABE4051211001FE50512CF
:1018A300110084E50512110026E605121100EAE68F
:1018B30005121100FAE60512110009E705121100DD
:1018C30093A606121100B7A606121100DFA6061290
:1018D300110007A706121100B49306121100DB933F
:1018E30006121100F993061211006C9406121100EE
:1018F3006A86061211008386061211008F8606126D
:101903001100A38606121100C18606121100CB86B0
:1019130006121100D58606121100E8860612110080
:10192300728706121100E787061211001B88061240
:101933001100698806121100B68806121100D188B9
:1019430006121100DB88061211000189061211002C
:1019530066890612110007FF0312110029FF031203
:10196300110018AA0612110035CC051211005FCC24
:10197300051211007CCC051211008FCC0512110049
:10198300A5CC0512110003CD051211003BCD0512A4
:10199300110033D10512110078D205121100ABD218
:1019A300051211000ED30512110087D40512110080
:1019B300AFD405121100C4D405121100D4D40512FA
:1019C300110018D50512110073D50512110083D526
:1019D3000512110095A006121100AFA00612110006
:1019E300D7A006121100F0A00612110014A10612CE
:1019F300110032A10612110049A10612110077A1AC
:101A03000612110092A106121100BCFF031211006D
:101A1300D2FA05121100E2FA05121100E7FB0512D2
:101A2300110019FC0512110049FC051211006CFC90
:101A33000512110083FC05121100BDFC05121100F3
:101A430022FD0512110064FD05121100A3FD05120C
:101A53001100D4FD05121100FFFD05121100E4A5CC
:101A63000612110004A6061211001CA6061211008C
:101A730057FE0512110077FE051211008BFF0512A8
:101A830011008EFF05121100F1FE0112110027FF54
:101A9300011211003DFF011211007FFF011211001D
:101AA3008FFF01121100D3FF01121100DDFF01129C
:101AB30011000BF8011211004EF801121100B3F8D6
:101AC30001121100D0F80112110072F90112110074
:101AD3007BF901121100C0F901121100E9F9011299
:101AE3001100F6F90112110071FA01121100FCFA4A
:101AF3000112110041FB011211008CFB01121100B4
:101B0300F1FB0112110014FC0112110085FC0112FA
:101B13001100DAFC0112110015FD011211004AFD3A
:101B2300011211005CFD011211006EFD0112110082
:101B33008DFD0112110096FD0112110044FE0112E8
:101B4300110087FE01121100C5FE0112110098A8B1
:101B530006121100559F0612110005960612110078
:101B63003B9606121100839606121100DC970612AB
:101B73001100008005121100198105121100538113
:101B8300051211000183051211002F8305121100A4
:101B9300958505121100D585051211007987051267
:101BA30011000988051211005D8805121100FF88D4
:101BB30005121100418905121100838905121100D4
:101BC300E08A051211002E8C05121100658E051294
:101BD3001100938E05121100BA8E05121100C38EE7
:101BE300051211001A8F05121100B58F051211008D
:101BF300BD9205121100449305121100C3A70612EA
:101C03001100D9A706121100E3A70612110076EB03
:101C1300051211008CEB0512110030EC05121100B6
:101C23006FEC051211008CEC05121100BDEC0512CE
:101C330011000AED051211003DED0512110078EDBA
:101C4300051211006DEF05121100E5A30612110034
:101C530044A40612110082A406121100C3A40612A2
:101C630011000080041211000C80041211006E8018
:101C7300041211007880041211000981041211006A
:101C8300458104121100358204121100828204126C
:101C93001100118304121100478304121100C2833F
:101CA300041211009185041211008B870412110094
:101CB300698804121100878904121100CD8B041264
:101CC3001100108D04121100BF8D041211005F92D8
:101CD30004121100539304121100F793041211001C
:101CE3001C9404121100B89404121100CD94041230
:101CF3001100F194041211005F95041211007C95F8
:101D030004121100A695041211003C97041211004D
:101D13005D97041211000398041211004B980412EA
:101D23001100A09804121100409904121100A49903
:101D330004121100029A04121100AB9A041211004A
:101D4300199B041211004C9B04121100BA9B04123C
:101D53001100F59C041211006B9E04121100089FE0
:101D63000412110046A104121100AFA104121100C4
:101D7300D9A104121100F5A3041211009CA60412A8
:101D83001100C5A704121100B3D505121100D5D552
:101D9300051211006AD7051211009BD80512110014
:101DA300DFD8051211001BDC051211003DDC051202
:101DB300110050DC051211008EDC05121100CBDC82
:101DC30005121100BBFF05121100A0FC0412110043
:101DD3005AFD04121100C0FD0412110068FE041222
:101DE3001100ACC704121100DBC70412110057C85D
:101DF30004121100A5C90412110087CA04121100AC
:101E03003DCC0412110062CC04121100B4CC0412B4
:101E1300110036CD041211007DCD0412110090CDB6
:101E230004121100E7CD04121100ADCE041211000B
:101E33001DCF0412110047CF0412110090CF0412DA
:101E4300110015D104121100EED10412110037D381
:101E53000412110018D404121100A0D404121100AA
:101E6300E3D404121100FDD40412110044D504126A
:101E7300110064D5041211001FD60412110042D7B9
:101E8300041211009CD704121100E6D704121100AA
:101E9300E2D80412110077DB0412110096DB04125E
:101EA30011000BDC0412110030DC041211009ADC67
:101EB3000412110062DD041211009FDD04121100EF
:101EC30019DE0412110015DF0412110018DF0412C9
:101ED300110022DF041211002CDF041211003FDF76
:101EE30004121100B1DF04121100E7DF0412110024
:101EF30013E0041211003AE0041211005EE0041230
:101F0300110099E0041211000BE10412110033E1F6
:101F1300041211003DE10412110079E104121100D1
:101F2300AEE104121100C4E10412110047A9061224
:101F330011005FA906121100FA7F00121100F2AB23
:101F43000412110015AC0412110074AD0412110037
:101F5300BDAD0412110024AE0412110082AE0412AE
:101F6300110085AE04121100D1AE0412110042AF6C
:101F730004121100D5AF04121100D8AF04121100DE
:101F830062B004121100A3B004121100C8B4041209
:101F9300110061B604121100DBB6041211004ABA33
:101FA3000412110093BB0412110065BC041211004A
:101FB300CABC04121100ECBC04121100AFBE04121F
:101FC300110085C0041211002FC104121100DCC1DD
:101FD30004121100DEC20412110046C504121100DE
:101FE300ABC604121100F1C604121100939305123B
:101FF30011003D9405121100A39405121100BC9425
:10200300051211003495051211008A95051211006D
:10201300CE95051211002D96051211003D9705125C
:102023001100649A05121100929B05121100139C72
:1020330005121100199E05121100C79E0512110009
:10204300639F0512110025A005121100D4A10512EA
:1020530011007CA30512110027A4051211004CA541
:102063000512110004D90212110078D902121100CD
:10207300C0D90212110004DA0212110053DA02125B
:1020830011009DDA02121100D5DA0212110053DB9E
:1020930002121100ADDB0212110001DD0212110068
:1020A30090DD02121100B0DE02121100D8DE02121E
:1020B300110018E00212110029E00212110041E0A0
:1020C3000212110048E10212110010E20212110083
:1020D3001DE30212110041E30212110058E3021240
:1020E300110079E3021211009BE302121100B8E31D
:1020F3000212110096E402121100EEE40212110022
:102103007EE702121100CDE702121100ECE7021282
:102113001100D0E80212110006E90212110036EA9A
:1021230002121100B3EA0212110002EB02121100B3
:102133003AEB021211009BEB0212110041EC021266
:1021430011000FEE021211000FEF021211008DF0B9
:10215300021211006EF202121100D4F402121100E5
:1021630084F60212110054F702121100C2F7021290
:102173001100D9F702121100D1F802121100C1F9AE
:10218300021211002CFA021211005FD50312110082
:10219300A58106121100628206121100C682061280
:1021A300110065F30512110083F30512110035E0E8
:1021B30003121100EDF30512110013F405121100BF
:1021C3002BF40512110043F405121100A6F40512B5
:1021D3001100E8F4051211000BF60512110014F6B4
:1021E300051211001DF60512110026F60512110045
:1021F30030F60512110051F60512110011DE051219
:1022030011003DE2051211004BE20512110050E2EC
:1022130005121100C99A061211004BDE03121100B8
:10222300718906121100C5A10612110037A8061202
:1022330011003B9806121100C5A9061211007AEF8E
:1022430005121100F0A80612110000A906121100D0
:1022530042E70512110000800212110032800212BF
:1022630011009E8002121100398102121100D881DF
:10227300021211001D82021211003F82021211008C
:102283005882021211007E8202121100A0820212F1
:102293001100DE8202121100228302121100448314
:1022A30002121100A683021211006D8402121100A2
:1022B300248502121100968502121100688602120B
:1022C3001100B286021211000587021211006B87FA
:1022D30002121100A58702121100F78702121100E2
:1022E3001388021211003E8802121100458A02125D
:1022F3001100998B02121100BB8B02121100EF8B9C
:1023030002121100108C021211001F8C0212110014
:102313002A8C02121100DA8C02121100438D021270
:102323001100F08D02121100288E02121100EE8EA0
:1023330002121100FB8F02121100459002121100CC
:10234300D4900212110038910212110073910212FB
:102353001100DF93021211003395021211006C98E1
:1023630002121100399902121100C79902121100C9
:10237300F09902121100629A02121100F69A0212E7
:102383001100549B02121100469C02121100689C1A
:1023930002121100C49D02121100DD9D02121100F0
:1023A300F09D021211005F9E021211006B9F021238
:1023B3001100789F02121100819F0212110059A18E
:1023C300021211007FA2021211008FA20212110049
:1023D30091A30212110008A40212110037A40212E1
:1023E30011004CA50212110018A702121100F0AA45
:1023F30002121100FAAA021211000EAB021211000E
:1024030018AB0212110022AB021211002CAB021204
:10241300110045AB021211004FAB02121100C3AB06
:1024230002121100CEAB02121100F3AB0212110023
:10243300FEAB021211004CAC0212110056AC021298
:10244300110061AC0212110085AC02121100A9AC9B
:102453000212110005AD021211004BAD0212110060
:1024630068AD02121100E5AD021211001CAE02129A
:1024730011005BAE02121100A8AE021211002AAFC6
:1024830002121100C3AF0212110093B10212110024
:10249300F1B1021211000DB30212110033B3021293
:1024A300110072B40212110098B702121100D9B9C7
:1024B30002121100B5BB021211004BBC0212110033
:1024C30072BE021211001EBF0212110053BF02128C
:1024D3001100B8BF02121100C2BF02121100ECC1F9
:1024E3000212110013C30212110053C3021211008E
:1024F300F9C3021211008AC50212110013C7021296
:10250300110033C7021211008CC7021211008EC8CA
:1025130002121100D8C80212110028C902121100B8
:1025230012CA0212110087CA02121100A1CB0212B1
:1025330011001CCC0212110021CD02121100CCCFCC
:1025430002121100EBCF021211004CD10212110042
:102553000ED30212110062D3021211001AD4021216
:102563001100C9D4021211001FD502121100D5D5D2
:10257300021211006AD602121100D6D602121100FD
:1025830010D70212110041D7021211009DD8021276
:1025930011000080031211003280031211006980C0
:1025A300031211005282031211003583031211002A
:1025B3008D8303121100C8840312110014850312C2
:1025C30011003C88031211009E8B03121100EB8C47
:1025D30003121100818D031211008D8D031211005E
:1025E300BF8D03121100418F03121100DC900312FF
:1025F3001100849103121100C791031211002D924F
:10260300031211004A92031211007A92031211006D
:10261300AF92031211007F93031211002894031247
:102623001100AC9603121100CC9703121100B59858
:1026330003121100379903121100569D0312110062
:10264300939D03121100EB9D031211001E9E0312B2
:1026530011009F9E03121100EC9E03121100779F3D
:1026630003121100C99F03121100A0A0031211004D
:1026730059A103121100F4A1031211000DA50312B5
:1026830011002DA603121100DAA903121100F8AAF2
:1026930003121100FBAA031211002AAB031211004B
:1026A30030AD0312110009AE031211003EAE031246
:1026B300110046AF03121100FCAF031211009DB1CC
:1026C30003121100C2B10312110001B2031211006F
:1026D30073B20312110057B30312110024B403128F
:1026E30011005AB603121100CBB6031211000BB737
:1026F300031211006CB7031211002FBB0312110058
:102703001EBC0312110005BD031211007DBD03128F
:1027130011003FBE031211003DC00312110055C04A
:102723000312110069C003121100A1C003121100AA
:10273300CFC00312110056C20312110061C303126A
:102743001100B3C30312110014C403121100C6C451
:1027530003121100EDC403121100D1C503121100BD
:1027630082C60312110071C803121100A6C8031216
:1027730011000EC9031211003DCA03121100EFCA62
:102783000312110020CB0312110038CB03121100E6
:10279300C7CB031211007BCE0312110053D00312D7
:1027A30011006FD0031211008BD00312110059D105
:1027B300031211003DD503121100A4880112110068
:1027C300DC8801121100BA8D01121100008E011272
:1027D30011004D8F01121100B88F011211004191A8
:1027E300011211005194011211006C950112110094
:1027F3007E9F0112110011A00112110063A30112A7
:1028030011005FA401121100BAA40112110004A661
:1028130001121100F2A6011211008EA9011211007A
:1028230002AB0112110085AB0112110088AB01123A
:102833001100FDAB0112110007AC0112110014AC21
:10284300011211003FAC01121100EFAC0112110093
:10285300E8AD0112110093AE01121100B1AE0112E5
:102863001100CAAE01121100F3AE0112110015AF2F
:10287300011211006AB1011211002FB201121100ED
:1028830074B201121100F3B2011211009FB30112CD
:102893001100D1B30112110025B40112110060B46B
:1028A30001121100A7B401121100F7B401121100B3
:1028B300FCB40112110050B5011211007CB50112D4
:1028C300110065B601121100B6B60112110016B758
:1028D3000112110070B7011211000BB8011211009F
:1028E3004ABB011211005CBC01121100D6BD0112DA
:1028F3001100E6C00112110084C1011211007AC453
:102903000112110039C5011211007DC50112110018
:1029130028C7011211003CC70112110046C701125A
:10292300110050C7011211005CC70112110081C7C9
:10293300011211005AC901121100AFC9011211008D
:10294300B9C901121100C3C90112110038CA011219
:10295300110087CA0112110098CB01121100E5CBB7
:1029630001121100F2CC0112110036CD0112110037
:10297300DCCD01121100CFCE0112110095CF01124F
:102983001100B8D001121100D6D101121100BED22C
:1029930001121100D6D2011211002DD30112110020
:1029A30037D30112110042D30112110060D3011277
:1029B3001100A8D3011211000AD40112110031D45D
:1029C3000112110043D401121100DED401121100CF
:1029D30013D501121100FAD5011211003FD60112CD
:1029E300110025D7011211004CD701121100CFD7C6
:1029F3000112110040D801121100C9D901121100AE
:102A0300F5DA01121100B8DB0112110080DC0112AA
:102A130011000ADD0112110032DE01121100D4DEB1
:102A2300011211004FDF011211000BE0011211001E
:102A330055E001121100AFE00112110087E101120C
:102A43001100AAE1011211005DE2011211007FE2FF
:102A530001121100E8E201121100FEE4011211005B
:102A6300F6E501121100BAE601121100ECE80112B9
:102A7300110036E90112110086E901121100EAE999
:102A8300011211004CEA011211007AEA011211003D
:102A93009EEA01121100D3EA0112110004EB0112A4
:102AA300110037EB0112110087EB01121100DAEB71
:102AB30001121100FFEC011211009FEE011211002F
:102AC300FAEE0112110023EF01121100B0EF01120F
:102AD30011001EF0011211002CF00112110050F030
:102AE30001121100A5F001121100C0F00112110032
:102AF30072F101121100AAF101121100EDF101129C
:102B0300110050F20112110052F4011211007CF471
:102B13000112110073F5011211007DF6011211006B
:102B23002DF701121100F2F3031211002AF403121C
:102B330011004BF4031211008DF403121100EFF492
:102B430003121100F9F40312110009F50312110025
:102B530044F50312110024F90312110011FB0312AF
:102B63001100F7FC031211008EFD0312110030FE59
:102B730003121100EA3700121100953800121100F8
:102B8300433900121100493A00121100693A001248
:102B93001100923B001211004D3D00121100C03D87
:102BA30000121100643E00121100703F0012110068
:102BB300DB3F001211001740001211005A400012AF
:102BC3001100954000121100D740001211006C4112
:102BD30000121100E84100121100B242001211006C
:102BE3008F430012110027440012110041440012C8
:102BF3001100714400121100A24400121100684533
:102C030000121100784500121100C745001211008F
:102C1300D44500121100DD45001211005B4600127D
:102C23001100B746001211000247001211001D47A0
:102C330000121100484700121100654700121100ED
:102C430071470012110008490012110021490012B6
:102C53001100A64900121100B94900121100D84908
:102C6300001211007C4A00121100FD4B00121100EA
:102C7300B04D00121100464E00121100494E0012D1
:102C83001100B94E00121100D74E001211006E4F01
:102C930000121100B64F00121100B94F00121100BB
:102CA3007F5000121100EC5000121100125100125B
:102CB30011009D5100121100BB510012110001526D
:102CC30000121100B55200121100FF520012110040
:102CD3002E53001211008B5300121100C053001227
:102CE3001100EC5300121100FA5300121100475463
:102CF30000121100B7540012110000550012110008
:102D03004C55001211007855001211008355001222
:102D13001100A155001211008C5600121100965695
:102D230000121100D15600121100E15600121100D9
:102D3300355700121100495700121100785800123C
:102D430011008D58001211001B5900121100605917
:102D530000121100EC5900121100F7590012110072
:102D6300395B00121100545B00121100A05B0012CA
:102D730011000F5C00121100485C00121100625C2C
:102D830000121100C25C00121100615D00121100FB
:102D9300AC5D001211007C60001211002E61001264
:102DA30011009B6100121100DB6300121100F36339
:102DB30000121100F66300121100026400121100E8
:102DC3001664001211001E640012110051640012F7
:102DD3001100546500121100E165001211005166E3
:102DE30000121100D3660012110094670012110043
:102DF300B36700121100546800121100B168001289
:102E03001100B46800121100286900121100776ADA
:102E1300001211007D6B00121100086C00121100EA
:102E2300236D00121100EB6D001211001C6E0012D5
:102E330011003F6E00121100486E00121100776EF0
:102E430000121100076F00121100BD6F0012110074
:102E5300327000121100D970001211004E7100126D
:102E63001100857100121100C37100121100F1DF0E
:102E730003121100EFCB05121100B7CB051211009D
:102E830060CB05121100E4C90512110026C9051211
:102E9300110089C8051211007FC80512110029C845
:102EA300051211000EC8051211006DC7051211009D
:102EB30071C605121100A0C5051211008EDF0312A1
:102EC3001100C7F305121100A9C305121100FCC2BA
:102ED30005121100FEDD03121100D1DD03121100F2
:102EE3008EC20512110094F7041211008AF704121E
:102EF30011001FF70412110073F50412110031F5CC
:102F03000412110059F40412110043F404121100C5
:102F130004F4041211005FF3041211004AF00412C6
:102F230011001DEE04121100EDED0412110091EDDC
:102F3300041211002BED04121100EAEC041211002B
:102F43001CEC04121100B7EB041211005BEB04122A
:102F53001100FEEA041211009CE90412110039E980
:102F63000412110083E8041211007EE80412110018
:102F73003ADD0312110067E804121100DBDA0312D1
:102F8300110094D703121100D5D60312110032D6C3
:102F930003121100F1D503121100D2D5031211004F
:102FA30032E80412110055E50412110052E504122F
:102FB300110010E5041211009FD503121100FDE466
:102FC30004121100F2E404121100CEE40412110001
:102FD300E8E204121100D3DE0312110067E20412C7
:102FE3001100DEFF0412110023E204121100F7E1C5
:102FF3000412110030C205121100F2C105121100B2
:10300300C5C10512110091C10512110030C105128D
:10301300110018C105121100F4C005121100BDBD45
:103023000512110089BB0512110070B905121100B8
:10303300FFB805121100AEB805121100D1B7051281
:10304300110068B8051211008AD50312110000801F
:103053000600000080FB000022E4738F0001007D66
:103063001E870001007B1E35000400411E2500025F
:1030730000451E26000200471E27000200491E28A5
:10308300000100531E29000100541E84000400FDAA
:103093001A86000100791D2A000100551E2B00012C
:1030A30000561E2C0001005B1E2D0008000B1B2E7A
:1030B3000001005C1E2F0001005D1E300001005E58
:1030C3001E310001005F1E32000100131B3300019B
:1030D30000141B34000100601E36000100151B386C
:1030E300000100611E390001005A1E8300020079AD
:1030F3001E63000100201B64000100571E650001D0
:1031030000581E6D000100211B71000800031B669F
:10311300000100781E43000100691E440002006A9A
:103123001E450001006C1E460002006D1E4700088C
:1031330000181B480001006F1E4B000100701E04A5
:103143000001007C1EA1000100801E370001007FEA
:103153001E880001007E1E3C000100161B3D00017D
:1031630000621E49000200711E67000100221B4D10
:10317300000200731E4E000100751E4F0002007610
:103183001E3E000100681E51000100641E52000132
:1031930000651E53000100671E54000100171B0049
:1031A3000000000000000000002001A288000001D0
:1031B300002001A3880000020020019E8800000374
:1031C3000020019F880000040042014A8700000597
:1031D300004201D0860000060042019E86000007DF
:1031E300003001A0880000004042019E860000FDDF
:1031F300FF21019A88020400002905141E0204100D
:10320300022923061E0304000029051A1E030410C5
:103213000029051C1E0304140028011E1E030410AC
:10322300022B23081E050400002105181E050410A7
:103233000229230C1E0D04000039050E1E0D040285
:10324300021023011E0D0403021023001E0D0404AB
:10325300022123021E0D0405022123041E00013650
:10326300360101000102010001030100010401060E
:103273000605020000070100340801000F090401DC
:10328300010D0100FF0E08000017020000190100E4
:10329300FF1A0100011B0100FE1C0100081D0200B2
:1032A300001F010001200100012102000023010091
:1032B3000F24020000260100012701000828020054
:1032C300FF2A0100072B0102402C0100002D010001
:1032D300012E0100012F0100FF30010B1D310800F9
:1032E300003A0100083B01000F3C0100013D0100D1
:1032F300FF3E04000042040000460400004A0400AC
:10330300004E04000052040000560400005A04005A
:1033130000010371030103010301030103010322FC
:10332300030203010310030003000300030003006F
:103333000300030003420300032403060300030006
:1033430003040312032503230325032303040304B4
:1033530003000300030003440300030003230300EB
:103363000365032100350381030003050300030004
:1033730003000300032503230303007100300160EE
:10338300001100700031022003500480001000611E
:103393000000001400630073007200620043000029
:1033A30000130006000000000004001200000000EB
:1033B300000000000004000400370037003C024412
:1033C30000000000000000000065000000350081DF
:1033D30000000005000000830000000304710402E4
:1033E30004600411047004020402040104020410C2
:1033F3000461040004140463047304720462044348
:10340300040004130406040004000404041204006A
:1034130004000400040004510464000004000400D8
:10342300044404000400040004000465040004359B
:10343300048104640005040004830400040302718E
:1034430002300160021102700201020202020280D4
:1034530002100261023A00410063027302720262C7
:1034630002430200021302380000020002040212A7
:1034730002000200020002000204020402370037C5
:10348300003C02440200023900000200026502000F
:103493000235028102000205028202830200020158
:1034A3000171010101010111010101310101010159
:1034B300018001100161013B00140063017301727B
:1034C30001620143010001130106013D01350004BE
:1034D3000112010001000100010001040104013394
:1034E3000133013C01440132013600000100016552
:1034F3000100013500810100010501820183010002
:103503000136000100060000000F0000000000006B
:103513000000000000000003FFFF00000403FFFFA2
:103523000000FFFF0FF4010005C4040320000100A5
:10353300140B000000000000000003010F00000056
:103543000000000000000000000000000000000078
:103553000000000000000000000000000000004622
:103563001D701D4C1D801C521D761D521D821D5841
:103573001D801C521D761D5E1D801C000000006412
:103583001D801C00000000000000006A1D801C005C
:103593000000000000000000000000000000000028
:1035A3000000000000000000000000000000000018
:1035B30000000000000000000000001300B61F1F01
:1035C30000BC1F1F80C21F00001C2001001C200222
:1035D30000621F02805C1F0300681F04006E1F044B
:1035E30080741F05007A1F0600861F3100981F3361
:1035F300009E1F3400A41F3600AA1FFFFF00000A0D
:103603000000000200000004000000080000001099
:1036130000000020000000400000008000000000C7
:103623000100000002000000040000000800000088
:10363300100000002000000040000001F6270626CD
:10364300280820280B442810442502FC27051428A9
:103653000702280CDE270DEA27643A23FF00000740
:10366300ECFDFDFDECDCDCCCBCACAC9C9C8C7C7C34
:103673006C6C5C5C5C4C4C3C3C2C2C1C1C00160F96
:1036830000000B150B020002220F3300000E0F0087
:103693000000000000000000000000000000005ACD
:1036A3006967426565416C6C69616E63653039D0E9
:1036B300D1D2D3D4D5D6D7D8D9DADBDCDDDEDF144B
:1036C3000AE5D5C5B5A5A5958585756500034D4C5A
:1036D3004651181A250502003C40423A3F3F392F14
:1036E3004730000119161816161823030030301737
:1036F300181921301B1D1F30303016181920231ABA
:103703001C1E300C0E020B040B0A0708000F0204E8
:103713000201010101090200BE040AE8030000FAE4
:10372300060100030000000000E80362360E00C239
:10373300367F00101E04041E10080C280004170214
:10374300000909033C0C080508150300FF030C0AD4
:10375300FFE4F0A3F0A3F0A322123754F022901C4D
:103763006B124D60122BE02212376F22E0F508E452
:10377300F509F50AF50B22E824FBF582E934FFF598
:103783008322E82411F582E439F583E022F58312DC
:10379300379622E0F508A3E0F50922122E5C7404A3
:1037A30012114B7F08020E3C7401F0900A16E0647C
:1037B3000F22740912114B7F04020E3CEA2413FA00
:1037C300E43FFB122D8AE9227905122D9674062215
:1037D300A3A3E024F5C3941322122E68900A361291
:1037E3006D1E7A147B0022C082C083901C4A74D45D
:1037F300F0A3742BF0A374E6F0A3742BF0901C4E8B
:1038030074BCF0A3742BF0A374B6F0A3742BF0A3D1
:1038130074F2F0A3742BF0A374F8F0A3742BF0A349
:1038230074ECF0A3742BF0A374A4F0A3742BF090A6
:103833001C5A74C8F0A3742BF0A374CEF0A3742B9A
:10384300F0A374C2F0A3742BF0A374FEF0A3742B43
:10385300F0901C6B12572F6009901C6B124D5C1279
:103863001B6C901C6812507674081263CBA3F09003
:103873001D14F0901C6DF07C0BFDF97A6E7B1C120D
:103883001ABE7C0B7D0079007A797B1C121ABE026A
:103893004ED074F7120B3474F71211E3EAFEEBFF08
:1038A30012392874051251947403F0123A3F1251DD
:1038B300762430FCE43FFD8C8212392012393460C7
:1038C3000812414D74FFF0A3F0EE242EE43F1C1CBC
:1038D300FD8C82F583A3E0C0E08A828B83124E289D
:1038E300D0E0123934888289831256632403F0EEC0
:1038F3001241571214877403F0900A2B120F0B74A2
:10390300021211DB123D2112114BE9F5087007EE8B
:10391300FAEFFB122C70A9087409024166F583E0E3
:103923008882898322EA12392D221258723FF58345
:103933002212664B125182E8F0A3E9126922E022B7
:1039430074F0120B34EAFEEBFF8C0C8D0D890B1215
:103953003A3FF58312518A7410121487E0F508A3D5
:10396300123922F0E824FFF582E9123D33E508F02D
:10397300E824FEF582E9123D33E50BF0900A30E0CE
:10398300C0E0E824FDF582E9123D33D0E0F0900A6F
:103993002FE0C0E0E824FCF582E9123D33D0E0F0EB
:1039A300741212148712379212377AE509F0E82459
:1039B300FAF8E934FFF98882F583E508F0EE240488
:1039C300FCE43FFD88088A828B83E0F50E8C828DB0
:1039D30083E0250EC3950812664B124FB0850C8207
:1039E300850D83A3A3A3A3A3A3A3A3E064037009E7
:1039F300EE125164F0A3E48003123D38123D40748B
:103A030009F075086E75091C750A007808121134DF
:103A130012611512114B7508FF7509FF7808121111
:103A230038AC0CAD0D123D2112114BE9F5087007AE
:103A3300EEFAEFFB122C70A9080237A6EA2402FA69
:103A4300E43FFB8A8222C082C083901C8AE0C39435
:103A530008400474078001E08A828B83F033333398
:103A630054F8F9024ED074F0120B348A088B09898A
:103A73000A8C0E8D0F750C00A2AFE433F50BC2AFA9
:103A8300901C848045123B6B503D123B8564037050
:103A930036E50824F9F508E50934FFF5098E828F28
:103AA30083A3A3E02405FCA3E03400FDAA08AB092B
:103AB300121C5CE50824FFF508E50934FFF50974D9
:103AC30010250CF50C150A123F5A1270D3E50A6043
:103AD30004EE4F70B0E50BA2E092AFA2AFE433F572
:103AE3000BC2AF901C84803E12563C8882F5831231
:103AF30048B0850882850983F08A828983123B7CDA
:103B0300A3A3E0C0E0E50824FFF582E509123D33F5
:103B1300D0E0F0E50824FEF508E50934FFF50905D2
:103B23000C150A123F5A123DAE6021123B85640206
:103B330070F1123B6BEE40B01252ABA2E550E4853C
:103B43000E82850F837401F0E50A70D7E50BA2E0BE
:103B530092AF850882850983E50CF0E50824FFFA16
:103B6300E50934FFFB0237A6123B71A2E622EE24DD
:103B730011F582E43FF583E022123B802212568145
:103B8300A3228E828F83A3A3124E2C125D5822741C
:103B9300F0120B3474F31211E37403121487E9F077
:103BA3007402121487EAF08B0B852182852283E449
:103BB300F0041211D3122B86E9F8900A15E0292498
:103BC30037F508FA7B00121AD08A0C8B0DAE0CAFB6
:103BD3000DEA4F7003023D18EA2402F50EE43FF5A7
:103BE3000FA808EA28F8E43BF9850E82850F8312B3
:103BF30046AC900A15E0F9FAC3E49AFA95E0FB851E
:103C03000E82850F83E02AF50CA3E03BF50D900AA5
:103C130013123792750A007808121134E9FC7D00FB
:103C2300AA0CAB0D1250E612114BAC21AD2274015C
:103C3300121487E0F9E50C24FFFAE50D34FFFB12BB
:103C43002B8C8A828B83E4F0E50BC454F0F9901D2E
:103C530015E0C4333354C0F8900A0FE0A2E0E43314
:103C630013134849440FC0E0EA24FFF582EB123DE9
:103C730033D0E0F0EA24FEF50CEB34FFF50D7403CA
:103C8300121487E0F87402121487E0C454F04885D4
:103C93000C82850D83F0A80C850E82850F83126339
:103CA300982AC3988E828F83A3A3A3A3F0850E8241
:103CB300850F83E8F0A3E50DF0123D38123D40E493
:103CC300F0740C121487E4F075087975091C7808F0
:103CD30012113412611512114B852182852283E062
:103CE3006009EE240E1252AD4408F0122D78E9F962
:103CF300E4F508F509780812113874061211DB127D
:103D03003D2312114BE97006EEFAEFFB800BEEFA3E
:103D1300EFFB121AD67A007B00740D0237A37903E6
:103D2300EEFAEFFB122D90740222EE24FFF582EFE0
:103D330034FFF58322EE12392DE4F0A322F0123D75
:103D43004522EE1260383FF5832274F2120B348A57
:103D53000C8B0DA2AFE433F50AC2AF7508007509E9
:103D630000901C84802C123F6A5024850C82850DA0
:103D730083A3A31261288E828F83A3A3124D5C12A7
:103D83002D7EE9600A123F65C2E6F08E088F0912A4
:103D93003F5A123DAE70CFE50845096006123E4713
:103DA300D2E6F0E50AA2E092AF800DE0FEA3E0FFC9
:103DB300EE4F22740212114B7F06020E3C74F01276
:103DC3000B348A0E8B0F8C0C8D0D750A00A2AFE499
:103DD30033F50BC2AF7E007F00901C848010AE08C9
:103DE300AF09123E3F1252ABD2E7F0124D3A124DD9
:103DF3004E6034123E47A2E750F18508828509835D
:103E0300A3A3120F0BAC0CAD0DAA0EAB0F122D8496
:103E1300740212114BE960D3EE4F60C21241E1709C
:103E230006123E59D2E4F0E50BA2E092AFEE4F60EA
:103E330006122C6A750A01A90A0237A6123B71D22F
:103E4300E4F0EE22E5081260523509F583E022AA78
:103E530082AB83121C5C8E828F83A3A3124E2CE051
:103E63002274F2120B3474FE1211E3750C00750DFB
:103E730000852182852283E4F0A3F0A2AF33F50A03
:103E8300C2AF901C841270D3802BEE24FBF582EF1B
:103E930034FF123790780C121138123F4812114B2D
:103EA300EEFCEFFDAA21AB22121AF4AE08AF099083
:103EB3001C8AE014F0EE4F602B123F6A501DEE2473
:103EC3000BF8E43FF98882F583E024FFF0A3E034A4
:103ED300FFF08882898312572F60AF8E0C8F0D12EB
:103EE3003F5A80A1E50AA2E092AF901C8AE0602CC1
:103EF300900A16E0640F6006901D14E0701E7A624B
:103F03007B1C122E68908896120F077A627B1C1214
:103F13004F5812114B800574F0124E39AA21AB226F
:103F2300121AFA8A088B09AE08AF09EA4F60131216
:103F33002B98123F65A2E28E828F83A350D974E936
:103F430080D7023DB6EEFCEFFD7A847B1C121B0684
:103F53007402228E0A8F0BEE24FBF582EF34FFF5F9
:103F63008322EE123B7222123B71A2E72274F712F4
:103F73000B34EAFEEBFF122B98124E2512305CE94C
:103F83006401900A32700AE02401F8A3E03400804F
:103F930003124DABF91254AD124FB0901C8AE0706E
:103FA3001F900A16E0640F70177A627B1C122E684A
:103FB300908896120F077A627B1C124F5812114B8E
:103FC300A8A8C2AF901C8AE004F0E8A2E78004E549
:103FD30008A2E092AF0253BB74F7120B34EAFEEB74
:103FE300FFEA124011F0122B98EEFCEFFD7A847B6E
:103FF3001C121B00A8A8C2AF901C8A1248FF900A8B
:1040030016E0640F70057908122D300253BB123B82
:1040130072C2E42274F7120B3474EA1211E3EAFE5B
:10402300EBFF900A0FE0602A8521828522837401C9
:10403300F0121487E41240CC121487123E52C0E0EF
:10404300740A121487D0E01263B8740B1214871227
:104053005618741602416674F7120B34EAFEEBFF2E
:10406300122B7AE9F974DC69601E74DD69601974D6
:10407300E469601474F369600F74DE69600A74DFC5
:1040830069600574DB697007EEFAEFFB122D3602E7
:1040930053BB74F7120B3474EB1211E3EAFEEBFF1C
:1040A30085218285228374061240CC121487AA824A
:1040B300AB83121C5CEE2408FCE43FFD740A12146B
:1040C300871256187415024166F0EA2413FCE43F84
:1040D300FD74022274F7120B3474F71211E3EAFE33
:1040E300EBFFEA24301252AD605DEA12415712141D
:1040F300877403F0900A2B120F0B12414D120F0B12
:10410300900A3EE0F974041211DBEEFAEFFB122B76
:1041130080740412114BE9F974DC69602374DD695E
:10412300601E74E469601974F369601474DE696075
:104133000F74DF69600A74E869600574DB697007EE
:10414300EEFAEFFB122D3602391BEE242EF582E434
:104153003FF58322126529AA21AB22121C5C740845
:1041630022740312114B0253BB74F2120B348A0CE8
:104173008B0D750A00750B007508E7A2AFE433F5E4
:1041830009C2AF901C848003123F56123DAE6025D6
:10419300123F6A50F31241E170EEEE24321243787B
:1041A300E06870E4780A121138123F4812114B90FC
:1041B3001C8AE014F0E509A2E092AFEE4F6013EE23
:1041C300FAEFFB122B9879F0EEFAEFFB122D36750E
:1041D3000800A908AA0CAB0D122D36023DBB123DF7
:1041E30045E064012274F4120B3474F71211E3EA0C
:1041F300FEEBFF8A82F583A3E064F3700302428639
:104203008A828B83A3E064DF60798A828B83A3E055
:1042130064E8606F8A828B83A3E064DB6065122BA2
:10422300DAE9F5087055EE240E1252AD604D1242D4
:10423300906048740812148712429F120F0B75087E
:10424300FF7509FF78081211388E828F83A3A3A309
:10425300A3A3A3A3A3E0F974041211DB122B8074AC
:104263000412114BE9F50874F369600F74DF696098
:104273000A74E869600574DB69700F8E828F83A30B
:10428300E508F0EEFAEFFB122BE60237B5EE240F4A
:10429300FAE43FFB7909122C1CEA4B227402125BED
:1042A3001E74FFF0A31242AC2212566CA3A3227415
:1042B300F1120B34EAFEEBFF7508008A82F583A343
:1042C300A3A3A3A3A31237D340037508E88A828B61
:1042D30083A3A3A3A3A3A3A3A3A3A3E0C394104073
:1042E300057508E880138A828B83A3A3A3A3A3A3E2
:1042F300A3A3A3A3E0640F600B901CF1E054087028
:10430300037508E8EA240B124378A3A3A3A3A3A38A
:10431300A3A3E0C398500DEA240B1252AD640F60BF
:10432300037508E8900A2FE0F47003A3E0F4700328
:104333007508EC7A237B00121B668B0BA90B901C70
:104343006B12438760278E828F83A3A3A982AA83DC
:10435300890C8A0D750E00780C1211347C237D00B4
:10436300901C6BE0FA1250E612114B800375081A89
:10437300A908026110F582E43FF583E0F88A828B95
:1043830083A3A322EAF0A3EBF0EA492274F5120B0C
:1043930034EAFEEBFF8A82F583A3A3A3A3A3A3A31B
:1043A300A3E0900A1612441FE0900A31F0EA240BAE
:1043B3001252AD900A1112441FA3E0901D15F0F99B
:1043C300121902901D15E0600BEE240412529F2473
:1043D30006124415901D141237AB60047401800259
:1043E3007400901C6D126A631211347C0B7D007A89
:1043F3006E7B1C1250E612114BEE2418F508E43FB5
:10440300F50978081211347C0B7D007A797B1C0244
:1044130050D3FAE43FFB79E11218EA22126A4DA362
:10442300A3A3A32274F7120B34EAFEEBFF8A82F5EF
:1044330083A3E070031237611265D40253BB74F790
:10444300120B34EAFEEBFF901C6B12572F60109097
:104453001C6B124D5C901C6BE4F0A3F0121B6C8E72
:10446300828F837408124E401221FC0253BB74F6F0
:10447300120B34901D14E06010901C6DE0700A1252
:10448300448FEA4B6003122C700266CE900A11E04F
:10449300FB900A31E0FA900A16E0F9122B9222748B
:1044A300F4120B3474E71211E3EAFEEBFF750B0110
:1044B3008A82F583A3A3A3A3A3A3A3E0A2E25069E3
:1044C300EA242BF582E43F126126EA2413FAE43F3F
:1044D300FB122B9EE97052908792E0640170057580
:1044E3000B0080451245611211347C0B7D00741161
:1044F3001211D31250E612114B122D78E9FA740EF1
:104503001211CB880889097808121138750830759B
:1045130009007808121138EE126381120F0B12652D
:104523001B79011237CD12114B85218285228374A9
:1045330010F012651B7402121487AA82AB83121C3B
:1045430050EE242B126D14740B121487124FB07497
:104553000D121487E50B12678D74190237B7EE2419
:1045630008126A6B22C082C083901D15E06003129B
:104573002DEA024ED0C082C083901D0C744AF0A372
:10458300741CF0A3744EF0A3741CF0A3745AF0A32C
:10459300741CF0901EE274DEF0A37433F0901CF6EA
:1045A3007474F0A3742BF0901C8F74AAF0A3742B73
:1045B300F0901C9174B0F0A3742BF0901CF1E044C4
:1045C300020249D4C082C083EAFCEBFD79030256A0
:1045D300DBC082C083790802684EC082C08374FE48
:1045E3001211E3901C977458F0A3742CF0901C994B
:1045F3007452F0A3742CF080077A847B1C12463922
:10460300901C8412572F70F1901C8612572F60094B
:104613007A867B1C12463980EF901C84E4F0A3F069
:10462300901C8AF0A3F0A3F0901CA57494F0A374DB
:104633002CF07402801C121AFA852182852283EAE7
:10464300F0A3EB12464D122D6622F0AA21AB2222D3
:10465300741112114B024ED074F6120B34E9FF742D
:10466300DA29F582E43436F583E493FEFA7B00120B
:104673001AD0EA4B6007EA2E1246A980267A027BFB
:1046830000121AD0EA4B601774F02FF582E4343627
:10469300F583E4938A828B83F0A3741A124A727AA5
:1046A300007B000266CE124F9FE8126648A3A3A3C5
:1046B300A3E4F022E9FC740629F8EAA2E0501EE81C
:1046C30075F00A84E5F0F96014740A28C399F8E9CF
:1046D300C394054004740A28F8740B28F8ECC394B7
:1046E300134004791480027906E82979002409F833
:1046F3005001097A0A7B0012096CE8F90210FDC027
:1047030082C083901CF1E05402600A122202E96025
:1047130004790180027900024ED0C082C083901CCC
:10472300F1E054026014901C8AE0700A12572C6066
:10473300091247425004790180027900024ED012D7
:104743003785A2E722C082C08390878FE0F8901C50
:104753008CE0C3985005121AD080047A007B0002C3
:104763004ED0C082C083122D667900024ED0C08223
:10477300C08374FE1211E3852182852283EAF0A3AC
:10478300EB1248DBA3A3A3A3A3E0600A146057249E
:10479300FE605A02484B900A16E0640F6012122D15
:1047A3003CE9700C124D56901C93124E2812305C4B
:1047B300900A3EE0C0E085218285228312564FD0C5
:1047C300E01248DB741412606CFCA3E0FD7A867B74
:1047D3001C121AF4A8A8C2AF901C8C1248FF7920AF
:1047E300122D30024635124BA9741580D9124BA9EC
:1047F300A3A3A3A3E06051124BA9123E5DC0E085C1
:104803002182852283E02406F582E43BF583D0E010
:1048130012606C2402F8A3E03400F98882F583E087
:104823002401FAA3E03400FB88828983EAF0A3EB36
:1048330012606C124BE98521828522836013124832
:10484300B060051248C24048AA21AB22122D6680EF
:10485300921248B060F21248C250211248CFFA8532
:104863002182852283A3E0C82406124BA5F8741085
:104873001258643437F583E4936A60148521828582
:1048830022831248B0640870BF1248CF640870B81E
:104893001248CF141248E3240AC0E08521828522FE
:1048A30083124E28D0E01248E3040247C91248B4E9
:1048B30022124DABC82406F582E438F583E0228545
:1048C30021828522831248B4C3940A2285218285DA
:1048D3002283123B80A3E0221248EDF583888222D3
:1048E3001248EDC82406124BD322F085218285227B
:1048F30083124DAB22A8A8C2AF901C8BE004F0E852
:10490300A2E792AF22C082C083901C9B12572F60F4
:1049130008124BB012305C80027900024ED074F75B
:10492300120B34EAFEEBFFEA123D467401124F5EAE
:10493300F8A3E0F9123928124FB0EA24351252AD28
:10494300C0E0EA2413F582E43FF583D0E0F0EA24E3
:10495300361252ADC0E0EA2414F582E43FF583D069
:10496300E0F0EA24381252ADC0E0EA2418F582E4FC
:104973003FF583D0E0F0EA242FF582E43FF583127C
:104983000F0B126528EA24311252ADF9123D27129A
:10499300114BE9F5087007EEFAEFFB122C70A9082A
:1049A3000253BBC082C083122D3CE960047920808E
:1049B300027901024ED0C082C083EA24111249CA8F
:1049C300D2E0800DEA240DF582E43BF583E022F08A
:1049D300A3F0024ED0C082C0831249C76401701194
:1049E300124A6C400C8A828B83A3E0F9122D368025
:1049F30066124A5DA2E650128A828B83A3E0F99085
:104A03001C95124E2812305C804D1249C764017008
:104A13000D124A6C50088A828B83743080368A82E6
:104A23008B83A3E0641B8A828B83700474228024AB
:104A3300A3E0700D1249C7F874FB12586434368032
:104A43000B1249C7F874F01258643436F583E493B3
:104A53008A828B83124A72024ED0124A6122EA245E
:104A630010F582E43BF583E022124A61A2E322F0CF
:104A7300901CECE0F9121ADC2274F7120B34E9FEF5
:104A830012572C7003024BA2EE6014741B6E701A43
:104A9300E812603839F583E064057003024B7A90BD
:104AA3001C8E124BB0A3E4024B8174E96E7068E86C
:104AB3002412F582E439F583E0700B122208E960D1
:104AC30005124BF3606179EE12186C901C8D124B3A
:104AD300CA901C8D603A124BF6901C8D700B124BD2
:104AE300CA14F0121A2E024BA2124BE8C2E7124D5F
:104AF30091240D124BA564037009124BC3124D4749
:104B0300D2E2F079ED12186C124BDB12305C807834
:104B1300124BB674E9806774E16E703E122208E9A5
:104B23006055124BF37050900A38E0C0E0124BC34B
:104B33002412F582E438F583D0E0F0900A27E0C030
:104B4300E0901C8D124BBF124BBFD0E0F0900A27B0
:104B5300E004F07901121A168045741C6E701890E7
:104B63001C8D124D5C901C9D124E2812305C901CC3
:104B73008DE4F0A3F08028901C8D124BB6EEF090DC
:104B83001C8D124D5C122C5E124D72E0548060033A
:104B930012683D901C8DE4F0A3F07910122D3002C1
:104BA30053BB124BD322852182852283A3E0F58355
:104BB300888222124BBA22124E30A32212567D2231
:104BC300901C8D12565E2212565E2412124BD32273
:104BD300F582E438F583E022901C8D124D60901C21
:104BE30091124E2C22E0F8A3E0C82410124BD322DA
:104BF300901C8D124D79E054042274F4120B347519
:104C03000A00750B00A2AFE433FEC2AF12572C604B
:104C130003024CF0124E2512305CE94410F8901C4C
:104C230084800985080A85090B124D3A124D4E708E
:104C330003024CF0123E47586870E8780A121138A4
:104C4300AC08AD09123F4C12114B901C8DE508F0D6
:104C5300A3E509124D91124D47A2E75003024CF709
:104C6300901C8BE014F0EEA2E092AF901C8DE02438
:104C73000EF8A3E03400F9E8FEE9FF8882F5831219
:104C83004D5C901C8D1248D5F9122C22E9901C889A
:104C93001263CB8E828F83E054806018124BC3243F
:104CA30013124BA5F9121926124BC32414124BA548
:104CB300F912191A124D72A3E05401605F901C8817
:104CC30012572F6045124D886040124D88F87900C5
:104CD300901C88124D5C120974E8C0E0124D66D036
:104CE300E0124D96C3941340117402800FEEA2E0BC
:104CF30092AF8037901C8A024C667400C0E0901C0F
:104D03008EE0C8124D31D0E0800D124D6674011251
:104D13004D91124D317401F07903800C901C8D126A
:104D23004BE8A2E1B3E433F9121A160237BA241A94
:104D3300F582E438F58322E50824FBF582E509349E
:104D4300FFF58322126052124BD622123796E508E2
:104D5300450922852182852283124D6022E0FAA330
:104D6300E0FB2212565B2419F582E438F583229086
:104D73001C8D124D7922124DABC8124D812212584F
:104D83007238F5832212565B2418124BD322124D2C
:104D9300A3C822124DA3F5838882A3A3A3A3E02271
:104DA300F0901C8D124DAB22E0F8A3E02274F712B1
:104DB3000B34EAFEEBFF122D601252AAA2E3400A63
:104DC3001241E1700590878D800390878EE0F9EEA4
:104DD300FCEFFD7A847B1C121B0CE96038EEFAEFC2
:104DE300FB901C97124E2812305CEE240E1252AD2B
:104DF300540470121248F8EE123929A3E0540170DA
:104E03001E122C6A8019EEFAEFFB901C8F124E28AB
:104E130012305C800A8E828F83A374F1124E3902A2
:104E230053BB901C99124E2C22124E3022E0F8A351
:104E3300E0F583888222124E40122C5E22F0EEFAB5
:104E4300EFFB22024EC974F7120B34EAFEEBFF7933
:104E530000901CF1E05402700CEA24331252AD545A
:104E630004600279E8901CF1E05460700CEA24338A
:104E73001252AD5402600279E88A828B83A3A3A302
:104E8300A3E0F8908793E0C398500279E8EA2431CD
:104E93001252AD700CEA242E1252AD700479F580D3
:104EA3000BE97005122C4CE9F9E96007EEFAEFFB08
:104EB300122D360253BBC082C0838A828B83740D4A
:104EC300F01221FC8007C082C083122C6AD083D0E9
:104ED300820210FD74F4120B34EAFEEBFF8A82F5B2
:104EE30083E4F0A3124F5E540490878D7012E0F8B0
:104EF300901C8BE0C398401279F1122D360237BA19
:104F0300E0F8901C8AE0C39850EE124F64A3E0547B
:104F1300016037EA24371252ADC394054033EA24C3
:104F2300331252AD540570297A9F7B1C122E68EE02
:104F33002437F582E43FF58312376B78081211307A
:104F43007A9F7B1C124F5812114BEEFA125955805F
:104F5300AC79E880A5122E5C740422F0124F64E051
:104F630022EA2433F582E43FF5832274F6120B34EC
:104F7300E9FE2451FAE43400FB121AD0EA4B60151F
:104F8300EE8A828B83A3A3A3A3F0EA2451124F9F3B
:104F9300124FB080047A007B000266CEF8E43BF93E
:104FA3008A828B83A3A322126D1E901D69E8F0A34E
:104FB300E9F022024EC9C082C083901CA874BEF0DF
:104FC300A3742CF0A374EEF0A3742CF0A374C4F0B8
:104FD300A3742CF0A374CAF0A3742CF0A374E8F0A8
:104FE300A3742CF0A374DCF0A3742CF0A374D6F098
:104FF300A3742CF0A374F4F0A3742CF0A374FAF04C
:10500300A3742CF0A37400F0A3742DF0A3740CF01C
:10501300A3742DF0A374D0F0A3742CF0A374B8F090
:10502300A3742CF0A374B2F0A3742CF0901CC4747A
:10503300E2F0A3742CF0A37406F0A3742DF0A37410
:1050430020F0A3742EF0A37412F0A3742DF0A374B4
:1050530018F0A3742DF0901CE8E4F0901CEBF09092
:105063001CD41250767402F0901CDD125076740139
:105073000249D47430F0A3742DF0A32274F5120BFB
:105083003474F11211E38521828522837402F07452
:1050930001121487E9F060047AFF7BFF7402121493
:1050A30087125B137508E075091C750A00780812EE
:1050B30011347C0B7D007407121487AA82AB831210
:1050C30050E612114BAA21AB221221FC740F80036C
:1050D3001250E612114B7F03020E3C7C0B7D007ACB
:1050E300E07B1C121AB274032274F7120B3474FDA2
:1050F3001211E3852182852283740AF0740112144C
:1051030087E9F07402121487EA12678D024164740E
:10511300F6120B3474F71211E3EAFEEBFFEA1251B5
:10512300641251947402F0EA2428FCE43FFDAA219E
:10513300AB22121C50EE243112516A243312618CBB
:1051430012113874021211DB79831A1A123D2512D7
:10515300114BE9F5087007EEFAEFFB122C700266AB
:10516300C712392D740122F582E43FF58312379675
:10517300125634F583125182E8F0A3E9F0EE2212BD
:10518300518A8A828B8322E024FFF8A3E034FFF95B
:1051930022F0A3E4F0EA123D462274F0120B34121B
:1051A3006BFC1214147808790C1209CD78081211CB
:1051B300307AD77B1C02379E74F4120B3474C612F8
:1051C30011E3900A16E0640F600D85218285228326
:1051D300742E125B3280227ACE7B1C1237DC1209CA
:1051E3007488088909E4F50AF50B78081211307AF6
:1051F300CE7B1C124F5812114B743A0237B774F519
:10520300120B34EAFEEBFF8A82F583A3E0F8707891
:10521300EA24301252AD64026007E064036002784E
:10522300E8EA2426F582E43FF5831237D540047873
:10523300E88058E87052EA2426124415EE2431120D
:10524300529F24301252AD6402700EEE2428126D68
:1052530014900A25124FB08017900A2574FEF0A30C
:1052630004F0EE2428FCE43FFD7A1C7B0A121C5C4C
:10527300EE241B1245641211341250DE12114BEE50
:10528300FAEFFB122CACE9F8E8600EE88E828F830C
:10529300A312653074171265DA0250D9FAE43FFBA2
:1052A30079501218EAEE22EE2410F582E43FF583DA
:1052B300E02274F6120B3474F71211E3901CEBE046
:1052C30070377401F0F91219E0AA21AB22122D7282
:1052D3007508E075091C78081211387508017509FD
:1052E300007808121138900A2B120F0B7406121152
:1052F300DB7A031237CB12114B0266C974F7120B18
:10530300341254DB7004A374EBF0901CEBE0A2E2C4
:105313005003C2E2F0E0A2E150051254EC80098E82
:10532300828F83742A1265DA0253BB74F4120B342E
:1053330074FE1211E31253E1125627EC8521828584
:105343002283125676E0F50B7015AA21AB2279530E
:105353001218EAEE2413FAE43FFB794A1218EA1210
:1053630045611211341250DE12114B124D56A90B26
:10537300122CA0901CEBE0A2E150031254F3901CFA
:10538300EBE4F074020237B774F7120B34EAFEEB66
:10539300FF8A82F583A374EBF0901CEBE0A2E1504B
:1053A300077A0079EB122CA6EEFAEFFB122CDC80C5
:1053B30007EEFAEFFB122DDE7F01020E3C74F712AB
:1053C3000B341253E1901CE8E4F0901CEBF07AFFED
:1053D3007BFF8E828F83A3E0F9122CA080DA125513
:1053E3002C7AD77B1C122E682274F7120B34EAFE38
:1053F300EBFF122CD680BA74F7120B34125569A343
:10540300A3A3E060047400800274EB12543A5003C7
:10541300C2E2F0E0A2E1500512553D8011A2E05036
:105423000D8E828F83742AF0A374EB1265DAEEFA81
:10543300EFFB122C8280818E828F83A3F0901CEB72
:10544300E0A2E22274F6120B34EAFEEBFF901CEBAF
:10545300E0D2E1F079011219E08E828F83A3E0702C
:1054630038122D78E9FAEE240DF508E43FF50978B2
:1054730008121138750801750900780812113812DD
:1054830054AD120F0BEE2402FCE43FFD1237CB1296
:10549300114BE98E828F83A3F08E828F83A3E0600A
:1054A300067A00F9122CA60266CEEE240BF582E4EE
:1054B3003FF5832274F7120B341254DB7004A37488
:1054C300EBF0901CEBE0A2E25003C2E2F0E0A2E1B9
:1054D30050031254EC0253BBEAFEEBFF790112199D
:1054E300E68E828F83E0642022C2E1F01254F3221D
:1054F3007A008E828F83A3E0F9122CA62274F7120E
:105503000B3412552C8E828F83A3A3A3A3E06004D4
:105513007400800274EB12543A5003C2E2F0E0A22A
:10552300E1500312553D025431EAFEEBFF790112BB
:1055330019E67ACE7B1C122E6822C2E1126A5EE063
:10554300A2E4E433FA1254F52274F7120B34125521
:105553006974EB12543F5003C2E2F0E0A2E150033E
:105563001254EC0253BBEAFEEBFF79011219E68EEB
:10557300828F83A32274F7120B3412558E0253B415
:1055830074F7120B3412558E0253BBEAFEEBFF7A0B
:10559300CE7B1C122E68EEFAEFFB122D002274F75D
:1055A300120B3474EF1211E3EAFEEBFFEA12651CEF
:1055B3007A1C7B0A121C4AE9605685218285228364
:1055C3007409F0740112148774EFF01256277402F1
:1055D300121487EC125676A3A3E0C0E074041214ED
:1055E30087D0E0125663640870158E828F83A3A35D
:1055F30012564FE0C0E07405121487D0E0800674A1
:1056030005121487E41263B874061214871256182D
:105613007411024166AA82AB83122DA8AA21AB2280
:105623001221FC22125634F583125646FCA3E0F9EC
:1056330022EE12563CFB8882222402F8E43FF9E86A
:10564300FAE922124DAB8882F583E02212565E24DA
:1056530007F582E438F58322901C8D124DABC822E6
:105663001256672212566CE022F08E828F83A3A318
:10567300A3A32212664812567D2212568122E0F815
:10568300A3E0F5838882A3A322C082C083122DEAFC
:10569300024ED0C082C083901D0874A8F0A3741C6E
:1056A300F0A374C4F0A3741CF0901EDC74A2F0A3E6
:1056B3007434F0A37440F0A37434F0901CF4749A1F
:1056C300F0A3742CF0901CF1E044010249D4C08291
:1056D300C083EAFCEBFD7902122D4E024ED074F624
:1056E300120B3474FE1211E3901CED12572F600756
:1056F3007AED7B1C122D66901CF3E4F09010D1120E
:10570300572F60208007AA21AB22122D66901CEC34
:10571300E0F9121AE88B09A90985218285228312EF
:10572300438770E274020266CB901C8D126D1EE8F3
:10573300492274F7120B34E9FA7B00901CECE0F970
:10574300121B120253BB74F7120B3474F01211E3E1
:10575300EAFCEBFDE9FE8A828B83E0F874061258BB
:10576300643437F583E493C0E07401121487D0E006
:10577300F0640B700DE98A828B83A3F0122DCC02A7
:10578300585FE0700302585F640C60030258507462
:105793001A6E700B7404121487E4F0A302584F744A
:1057A30004121487125B13EA243212601CC0E074E3
:1057B30003121487D0E0126A4912144C74061214AF
:1057C300871214588C828D83A3A3A3A3A3A3A3A39B
:1057D300A3126D1A740A121487E8F0A3E912586928
:1057E300E054106009852182852283E48013EC2430
:1057F3001212601CF8900A38E0C398852182852232
:1058030083F0E0C0E0740C121487D0E0F0EC2415B0
:1058130012601CC0E0740D121487D0E0F0EC241663
:1058230012601CC0E0740E121487D0E0F0EC241751
:1058330012601CC0E0740F121487D0E0125869A3E1
:10584300E05401600874011214877411F074021299
:105853001487EEF074011211D31221FC741002416B
:105863006628F582E422F0EC1258723DF583222477
:105873000EF582E422C082C083901CF3E0640370BF
:1058830004790180027900024ED074F7120B349030
:105893001CF3E012590874DA28F582741E39F58373
:1058A300125D9AC2E7F012590FA3E493FE25E0FCC0
:1058B300E433FD74DA2CF582741E3D126126EC4D3F
:1058C3006005EE901CF3F08A828B83E025E0FCE414
:1058D30033FDE82CF582E93DF583E493FCC4540FD2
:1058E30025E0F87402125864341DF58312572F70A3
:1058F30005122DBA800CEC540F12590F124E2812B8
:10590300305C0253BB25E0F8E433F92225E0FCE8E0
:105913002CF582E439F5832274F2120B3474FE12EF
:1059230011E3890B8A088B091259BA1259AB601A11
:105933001263C5F50A78081211341259C7240212EA
:10594300611C12114B12595380031259D9023DB6EF
:10595300AA0CEFFB901CECE0F9121ADC2274F01293
:105963000B3474FE1211E3890B8A0E8B0F1259BA92
:10597300F5081259AB60271263C5A808EA28124636
:10598300A9850E08850F09F50A78081211341259F2
:10599300C712611A12114B1259537900800512591B
:1059A300D9791A74020237A3FA7B00121AD08A0C2F
:1059B3008B0DAF0DEA4F2274CF29F582E43436F50F
:1059C30083E49322A80B74E51258643436F583E418
:1059D30093FC7D00EA22852182852283E50BF07901
:1059E3001AAA21AB22122D3622C082C083E9901C51
:1059F300EC0249D474F6120B3474FE1211E3EAFE7E
:105A0300EBFFEA542070308039A8A8C2AF901C8CF9
:105A1300E0141249018A828B83125B00901CEF12FF
:105A23005B13122D42852182852283E06415600772
:105A33007AEF7B1C122D667A867B1C121AFAEA4BCC
:105A430070C7EF5480700C8016901CEFEAF0A3EB44
:105A5300125B26901CECE0F9121AE8EA4B70EAEEAE
:105A63005410600B852182852283742D125B32EEE4
:105A7300A2E0500B8521828522837424125B32EECF
:105A83005402600B8521828522837425125B32EEDA
:105A93005404600B8521828522837426125B32EEC7
:105AA3005408600B8521828522837428125B32EEB1
:105AB3005440600D7401121487125B19742C125B2D
:105AC30032EE5480600D7401121487125B19742F27
:105AD300125B32901CED12572F601BA8A8C2AF9027
:105AE3001CED124D5C901CEDE4F0A3124901A3EAF6
:105AF300F0A3E9125B267A007B00025727125B04AE
:105B030022E0852182852283F022A3A3A3A3A3A35A
:105B1300EAF0A3EBF022E4125B1E22F085218285DA
:105B2300228322F0122D427AEF7B1C122D66221261
:105B3300464D122D4222C082C083901CEF1267880B
