:020000040000FA
:060000000210320205DFD0
:03002B00020D942F
:030033000209A21D
:0300530002050E95
:03006B0002095730
:03007B00020980F7
:1000830002057001010000000000F8FF07FFFF00F8
:10009300000504000000030001FFFFFF1410270008
:1000A300000020FD000206FFFF1E8E190000000065
:1000B300000000000000000000000000000000003D
:1000C300000001040000481A000000E8030000FFDC
:1000D300FF991A0188130000E8030000640064001C
:1000E300B801A0BB0D00A0BB0D0002020207040172
:1000F300051E02051E020A0A010108080103B80BC6
:1001030002803E0102FEFFE8030A050001FFFF0231
:100113000A011401E0050301010F030003000300BA
:1001230003000300030003000300030005000A00AB
:10013300140028004F009E000000A52C00000000C2
:10014300792B00000000FF000000FF001210516037
:1001530046121042603DE9687008F618F618F61862
:10016300F622748067F7120183090909748067F71F
:1001730022121042601D1210517005191919801AAC
:10018300120F21701F120EE5C37003E667331919AE
:100193001940071818182208080874FFF618F618EB
:1001A300F618F622120EE560171210DF702192F096
:1001B3001210E87019501720F014080808090909EB
:1001C300E7F61819E7F61819E7F61819E7F62212F1
:1001D30010E860E6E869701F0808E62480F608E482
:1001E30036F618547FB47F0CE654806007F6E418A3
:1001F300F618F622181822E9C6CC08C6CD08C6CED2
:1002030008C6CFC0E0E8C0E0EAC0E0EBC0E009E91F
:10021300F809E7FA09E7FBE6F918E6F8C3EC98ED05
:1002230099EE9AEBC2E7F5F0EFC2E795F0500E6056
:100233000CEBCFFBEACEFAE9CDF9E8CCF8EAA2E77A
:10024300D2E7FAEB33FB13F5F0EEA2E7D2E7FEEFCA
:1002530033FFC5F013A2E730E601B313C5F0C3C003
:10026300E0C0F07F00C39BFB605E9418600F401DED
:1002730014601AD0E023F9D0E0F80203558AF0E9BC
:10028300486003D2F0E4AFF0FAF9F8803BEB30E4D6
:100293000D89F0EA6003D2F0E4AFF0F9CAF8EB306D
:1002A300E30D88F0EF6002D2F0AFF0E4CAC9F8EBD7
:1002B30054076014FBC3EA13FAE913F9E813F8EFE0
:1002C300135002D2E0FFDBEDD0E0C0E030E739C3EA
:1002D300E49FFFF5F0EC98FC42F0ED99FD42F0EE5F
:1002E3009AFE42F0D0E0F9D0E0F8E5F0607AE92335
:1002F300F9EE20E742D8028067C3EF33FFEC33FC0B
:10030300ED33FDEE33FE80EAEC28FCED39FDEE3AE9
:10031300FED0E023F9D0E0F84002801BC3EE13FEC9
:10032300ED13FDEC13FCEF135002D2E0FF08B8000D
:10033300067F7F74FF802EEF3350178CF020F0027E
:1003430060100CBC000C0DBD00080EBE000408E8D4
:1003530060DFE933E813FFEE2313FE4F4D4C8008B3
:10036300E95480FFE4FEFDFCEE33EF33F47004FC4C
:10037300FD7E80D0E0FBD0E0FAD0E0F8D0E0CFC63D
:1003830018CEC618CDC618CCC6F92200121042608A
:100393004F1210516012E7548066F6120F2170114C
:1003A3001210DF703B090909F4F618F618F618F66F
:1003B30022120EE570151210E808080860EAE644F8
:1003C3007FF618768018E4F618F6221210E8601605
:1003D3001210DF7012E4F608F608F608E65480F609
:1003E30009090918181822EAC0E0EBC0E0ECC0E0E4
:1003F300EDC0E0E687F0A4FBACF008E687F0A42CA0
:10040300FCE435F0FA1809E687F0A42C4B6002747B
:1004130001CA35F0FCE433FB09E687F0D2F7A42CDC
:10042300CB35F0FC1908E687F0A42BCC35F0FBE4C0
:1004330033FD0819E687F0D2E7A42C4ACB35F0CD7B
:100443003400FC09E687F0D2E7A42DCC35F0FDE4B7
:1004530033FA0918E687F0D2F7A42CCD35F0CA3465
:1004630000FC08E687F0D2E7D2F7A42ACC35F07A6D
:100473007E20E70B0ACB33CBCD33CDCC33CC33CB80
:100483003350147004ED30E00ED2F1E4CD3DCDCC09
:100493003CCC3B5005DA05C2F1EB547FC63308E68A
:1004A3003392F0FBE73309E733C39A502D2B7019CE
:1004B3000C0D4C4D70151806E608C333700D20F172
:1004C3000AA2F013F6E418800B4024E4F630F0029D
:1004D300768018F618F618F68024D33B145010745F
:1004E300FFA2F013F6187680E418F618F6800FA230
:1004F300F013F618E63303F618ECF618EDF6D0E031
:10050300FDD0E0FCD0E0FBD0E0FA22C0E074F112B1
:1005130008F8A2AFE433F509D2AF85A708AFA1EF7E
:100523005508FE74105E60061213EE75A1EF740891
:100533005E60081213F475A1F78024EFA2E092F035
:10054300E508A2E082F05017906198E0F89005F476
:10055300E0C398A2D265D0335002E8F075A1FE75CE
:100563002300E509A2E092AF7F02020A13C0E07400
:10057300F21208F8A2AFE433FED2AF9061A4E0F820
:10058300759B00E59158540860087591F712144261
:100593008023E59158541060087591EF1214488038
:1005A30014E591A2E092F0E8A2E082F05007E0C2E5
:1005B300E0F01215AA9061A3E0F8E5E9585404604D
:1005C3000E12158075E9FB906193E0A2E640F27587
:1005D3002300EEA2E092AF7F01020A13C0E074F29F
:1005E3001208F8A2AFE433FED2AF9061A5E0F8E5BC
:1005F300BF585404600675BFFB1215C280D1C3E413
:1006030098F8E499F91206428026C3E49AFAE49B27
:10061300FBE920E7E9120642E498F8E499F922C3DA
:10062300E498F8E499F9120642E498F8E499F9C3D6
:10063300E49AFAE49BFB22EB20E7CFE920E7E0B959
:100643000010BB0008E88AF084F8AAF022E4FBC893
:10065300FA22EB70227B10C833C8C933C933500761
:10066300C39AC3DBF280069A50012ADBEAC833F44B
:10067300C8C933F4C9FA2275F008E4C833C8C933CA
:10068300C933C99AC99B5004C92AC93BD5F0ECFBAD
:10069300C833F4C8E4C9FA221206E630F039120767
:1006A3002B80341206E620F01430E72B74FFFCFB9A
:1006B300FA747F8022E4FCFBFA7480801AB4800809
:1006C300BC00F2BB00EF800F50EBF9E4C39AFAE4ED
:1006D3009BFBE49CFCE499C6CC18C6CB18C6CA188D
:1006E300C6F922E4C9C608CAC608CBC6D333030871
:1006F300CCC63392F0C3947F402E94184019C9B9E5
:100703000704CACBCC225025C309CA33CACB33CB87
:10071300CC33CC33D9F422F4600DC9CCC313CB133F
:10072300CBCA13CAD9F6CC22E4FCFBFA2214FCFB95
:10073300FA22080808EAC0E0EBC0E086F0E7A4FA72
:10074300180986F0E7A42AFA180986F0E7A42AFA1A
:10075300180986F0E7A42AFA1986F0E7A4FBE5F066
:100763002AFA190886F0E7A42BFBE5F03AFA1908F0
:1007730086F0E7A42BFBE5F03AFA18180986F0E7B0
:10078300A4C5F02BFBE43AFA1908E7C5F0C6A42682
:10079300F6E5F03BFBE43AFA1886F0E7A4F6E5F059
:1007A3000826F6E43B08F6E43A08F6D0E0FBD0E08E
:1007B300FA22E4CFC0E0E4CEC0E0E4CDC0E0E4CC74
:1007C300C0E075F020E626F608E633F608E633F6D1
:1007D30008E633F6181818EC33FCED33FDEE33FE60
:1007E300EF33FFC3EC9709ED9709EE9709EF9719DC
:1007F3001919400FFFEC97FC09ED97FD09EE97FEE1
:10080300191906D5F0BFECF709EDF709EEF709EF73
:10081300F7191919D0E0FCD0E0FDD0E0FED0E0FFDD
:10082300222521C582C0E0E52234FFC583C0E0E56F
:1008330021C3958224F810AF088583228582218005
:1008430008858322858221D2AFCEF0A3E520F0A3D1
:100853007808E608F0A3DEFAEFF0A3E58124FAF8BE
:10086300E608F0A3E608F0A3E608F0A30808E60804
:10087300F0A3E608F0A315811581D0E0FED0E0F8DF
:10088300158115811581E8C0E0EEC0E0221210CA7F
:10089300B900030208E2E490050178347919800273
:1008A300F0A3D8FCD9FA78239000867A01BA000223
:1008B3008007E493A3F608DAF97A347B1D90008766
:1008C30078C979018015E493A3AD82AE838A828BC4
:1008D30083F0A3AA82AB838D828E83D8E9D9E7758F
:1008E30082BE7583DE7404120D767582D4758327F8
:1008F3007400120D76C0D02521C582C0E0E52234F4
:10090300FFC583C0E0E521C3958224F310AF0885BA
:1009130083228582218008858322858221D2AFC8E4
:10092300F0A3E9F0A3EAF0A3EBF0A37908E709F059
:10093300A3D8FAECF0A3EDF0A3EEF0A3EFF0A3D06D
:10094300E0F0A3D0E0F0A3D0E0F0A3E520F0A3E52E
:10095300F0F0A322C0E074F21208F8A2AFE433FE71
:10096300D2AFE589547C6003121328538983C2C52F
:10097300752300EEA2E092AF7F01020A13C0E0C02C
:10098300D0E8C0E0A8A8D2AFE58A858A8AC2EB7511
:100993002300E8A2E792AFD0E0F8D0D0D0E032C095
:1009A300E0C0D0E8C0E0A8A8D2AFE58B858B8BC2AE
:1009B300E880DCE9799EC608CAC608CBC608CCC65F
:1009C300C370207996CACBCC7019798ECBCC7013B7
:1009D3007986CC700EF9802ACA33CACB33CBCC3399
:1009E300CC331930E7F2CCCBCA3350147004EA305D
:1009F300E00DE4CA3ACACB3BCBCC3CCC500209C392
:100A0300E913C6CC182313C6CB18C6CA18C6F922D5
:100A1300852283852182E0C0E0A3E0F9A3E0FAA365
:100A2300E0FBA37808E0F608A3DFFAE0FCA3E0FD0F
:100A3300A3E0FEA3E0FFA3E0C0E0A3E0C0E0A3E0E7
:100A4300F5D0A3E0F520A3E0A3F5F010AF0885836C
:100A5300228582218008858322858221D2AFD0829C
:100A6300D083D0E0F8D0E0320375F0108E248F25C8
:100A7300858229858328852182852283E0CEA3E090
:100A8300CF852982852883EBC9EAC8EDCBECCAC39D
:100A9300E833C8E933C9EA33CAEB33CBC3EA9EF57B
:100AA30027EB9FF526B35004AB26AA27EC33CCEDF6
:100AB30033CDD5F0DAAE24AF2522121042601C12DA
:100AC300105160171210E870071210DF7001D32263
:100AD300C0D01210DF7006D0D0B322C32233D0D0DF
:100AE300501430E0F6C3E7960809E7960809E7963D
:100AF3000809E796B32220E0D5E6970809E69708A8
:100B030009E6970809E697B322D083D082ECC0E0C8
:100B1300EDC0E0E493A3FCE493A3FDED4C600D1260
:100B23000BE4EC24FFFCED34FFFD80EFE493A3FC26
:100B3300E493A3FDED4C600D120C81EC24FFFCED5E
:100B430034FFFD80EFD0E0FDD0E0FCE493A3C0E0F0
:100B5300E493C0E022852283852182E0A3FEE0A303
:100B6300F5207808E0A3F608DFFAE0A3FFE0A3C0CE
:100B7300E0E0A3C0E0E0A3C0E0E0A3C0E0E0A3C0E6
:100B8300E010AF0885822185832280088582218534
:100B93008322D2AFD083D082020D7CD083D082E96E
:100BA300C0E0E493A3C386F0C5F095F0F908E4939D
:100BB300A386F0C5F095F0700BE493A3C3994005A9
:100BC300E9048002A3E475F002A42582F582E5F02E
:100BD3003583F583D0E0F9E493A3C0E0E493C0E068
:100BE30022C0E0C3E49396087401939618400FE47F
:100BF3009366700808740193661870007019A3A3B4
:100C0300C3E49396087401939618A3A3400DD0E010
:100C1300D0E0D0E0020B48A3A3A3A3A3A3D0E02278
:100C23007404800474028000CCC0E0EDC0E0E521D0
:100C3300C39CCCAD2250011D10AF068C218D2280A8
:100C4300068C218D22D2AF120CF8D0E0FDD0E0FC4F
:100C53002274028000CCC0E0EDC0E0E521C39CCC4F
:100C6300AD2250011D10AF068C218D2280068C21F0
:100C73008D22D2AF120CD6D0E0FDD0E0FC22C0E032
:100C8300C0F088F0E49366700808740193661870E6
:100C930000A8F0A3A3700BD0F0D0E0D0E0D0E00226
:100CA3000B48A3A3D0F0D0E022D083D082CCC0E005
:100CB300E493A36006120D571470FAE493A360063D
:100CC300120E7B1470FAD0E0FCE493A3C0E0E4932B
:100CD300C0E022CAC0E0E493A3C582CCC582C58329
:100CE300CDC583F0A3C582CCC582C583CDC583DAC8
:100CF300E5D0E0CA22CAC0E0E0A3C582CCC582C564
:100D030083CDC583F0A3C582CCC582C583CDC583FE
:100D1300DAE6D0E0CA22700908080822601618181B
:100D230018C6C333C608C633C608C633C608C63397
:100D3300C6D5E0EA22C008C3E096F50808A3E0960A
:100D4300420808A3E096420808A3E096450870010C
:100D5300D3D00822C0E0E493A3D39C5010E493A320
:100D6300C39C400AD0E0D0E0D0E0020CC9A3A3A307
:100D7300D0E022C09FF59FE473D09F22D083D0821E
:100D8300C09FE493C0E0740193C0E0740293F59FA5
:100D930022C0E0C0D0E8C0E0A8A8D2AFC2C7752384
:100DA30000E8A2E792AFD0E0F8D0D0D0E0327404EC
:100DB300800A74038006740280027401C0E0F404A4
:100DC300120DE7D0E012108D2200C0D0252110AF04
:100DD30008F521500C05228008F52150020522D286
:100DE300AFD0D0222521F58210AF08F521400C1594
:100DF300228008F52140021522D2AF85228322BB2F
:100E03000102E722C082C08389828A83BB0003E098
:100E13008002E493D083D082226016080808C6C3F8
:100E230013C618C613C618C613C618C613C6D5E00C
:100E3300EA22C3E0C696F608A3E0C696F608A3E046
:100E4300C696F608A3E0C696F6222521F8E43522D5
:100E5300F9222521FAE43522FB222521FCE435225F
:100E6300FD22252110AF08F521400C15228008F53D
:100E73002140021522D2AF22C0E0E493A36C700993
:100E8300D0E0D0E0D0E0020CC9A3A3D0E022E0661A
:100E9300701008A3E066700A08A3E066700408A354
:100EA300E06622C3E09608A3E09608A3E09608A3B1
:100EB300E096A2D265D03322C3E7960809E79608E5
:100EC30009E7960809E796A2D265D03322E7667050
:100ED300100809E766700A0809E76670040809E75D
:100EE3006622191919E70947097009E727097005E7
:100EF300E733F4220922C3E096F008A3E096F00852
:100F0300A3E096F008A3E096F022C3E697F608095B
:100F1300E697F60809E697F60809E697F622181801
:100F230018E60846087009E626087005E633F42239
:100F33000822C3E493960874019396087402939667
:100F4300087403939622E026F608A3E036F608A376
:100F5300E036F608A3E036F622E627F60809E63778
:100F6300F60809E637F60809E637F6227004226028
:100F73000D18C6C333C608C633C6D5E0F41822E03D
:100F830056F008A3E056F008A3E056F008A3E05695
:100F9300F022E657F60809E657F60809E657F60879
:100FA30009E657F622E026F008A3E036F008A3E0AE
:100FB30036F008A3E036F022E056F608A3E056F632
:100FC30008A3E056F608A3E056F622E647F608091A
:100FD300E647F60809E647F60809E647F622E4C3BA
:100FE30096F608E496F608E496F608E496F6226088
:100FF3000D08C6A2E713C618C613C6D5E0F322C66A
:10100300F4C608C6F4C608C6F4C608C6F4C622C3A6
:10101300E09608A3E09608A3E09608A3E09622C30F
:10102300E7960809E7960809E7960809E7962275FF
:10103300D00075813F75210175220500020890E6F5
:10104300084608C3134608336002E633F422E7096F
:101053004709C3134709336002E733F422600C08DE
:10106300C6C313C618C613C6D5E0F422E6F008A318
:10107300E6F008A3E6F008A3E6F022E0F608A3E012
:10108300F608A3E0F608A3E0F622CAC0E0E6F0A360
:1010930008DAFAD0E0FA22E0FAA3E0FBA3E0FCA32B
:1010A300E0FD22EAF0A3EBF0A3ECF0A3EDF022E0E5
:1010B300F8A3E0F9A3E0FAA3E0FB22E8F0A3E9F048
:1010C300A3EAF0A3EBF022E5C754F84401F5C7798E
:1010D30001222521F582E43522F58322E7271947EA
:1010E3001947194722E62618461846184622C2AF62
:1010F30075D69F02000022120D7FE0D302120D7FEE
:1011030027D702120D7F86D902120D7F1DDA021234
:101113000D7F4ADA02120D7F97DA02120D7F1FDB71
:1011230002120D7FDADB02120D7F3DDC02120D7F0E
:1011330081DC02120D7F1BDD02120D7F99DD02128D
:101143000D7FCCDD02120D7FDADE02120D7FFADE97
:1011530002120D7F4EDF02120D7F36E002120D7F69
:1011630038E202120D7FDAE202120D7F2AE5021243
:101173000D7FAEE502120D7FB3E802120D7FE7EAA1
:1011830002120D7F1FEB02120D7F7EEC02120D7F08
:1011930088EC02120D7FD7EC02120D7FA9EE02122A
:1011A3000D7F39D804120D7F6DD804120D7FADD891
:1011B30004120D7FB0D904120D7FD1D904120D7F13
:1011C3005CDA04120D7F82F101120D7FFEF1011230
:1011D3000D7F31F201120D7F5FF201120D7F9DF23F
:1011E30001120D7FD8F401120D7FF7F401120D7F68
:1011F3003CF501120D7FD2F501120D7F1EF601128F
:101203000D7FB2F601120D7F8AF701120D7FE6F70B
:1012130001120D7F44F801120D7FC1F801120D7FF9
:10122300F7F801120D7F42F901120D7F68F90112DF
:101233000D7FF8F901120D7F8FFA01120D7FDBFA92
:1012430001120D7F0CFB01120D7F43FB01120D7F79
:10125300C9FC01120D7F93FD01120D7F63FE011284
:101263000D7F96C004120D7FB8C004120D7FD8C045
:1012730004120D7FFFC004120D7F46C204120D7FBE
:10128300B4C204120D7F7AC304120D7F11C4041279
:101293000D7FEEFF01120D7FF3FF01120D7FF6FFAD
:1012A30001120D7F8BD304120D7F52D404120D7FD4
:1012B30064D404120D7FD7D404120D7FB6EC04124C
:1012C3000D7FC7EC04120D7F65ED04120D7F70EDE9
:1012D30004120D7F88ED04120D7FF9FF01120D7FBB
:1012E300EBFF03120D7F97ED04120D7FA7ED0412A0
:1012F3000D7FBCED04120D7F70EE04120D7FE0E84C
:1013030004120D7F63E904120D7FC9E904120D7FF6
:10131300A7E304120D7FCFE304120D7FF2E304125F
:101323000D7F67E404120D7FB1E404120D7FDCE44A
:1013330004120D7FF3E404120D7FBB7B00120D7FBB
:10134300C97B00120D7F427C00120D7F1A7D0012B3
:101353000D7FDD7E00120D7F2D7F00120D7F697FD3
:1013630000120D7FF87F00120D7FB4DC04120D7F95
:10137300ECDC04120D7F37DE04120D7FBBDE04129A
:101383000D7F4DB704120D7F79B704120D7FBDB9E0
:1013930004120D7FFDB904120D7F3DBA04120D7FB7
:1013A30051BA04120D7F6ABA04120D7F5CBB04129A
:1013B3000D7F01BC04120D7F15BC04120D7F3FE2AB
:1013C30004120D7F63E204120D7F7CE204120D7F91
:1013D300AEE204120D7FDEE204120D7F0BE3041272
:1013E3000D7F15E304120D7F77E304120D7F86E36F
:1013F30004120D7F90E304120D7F9DE304120D7F11
:10140300E6D004120D7F06D104120D7F45D10412DC
:101413000D7F60D104120D7F7FD104120D7FE5D1C2
:1014230004120D7FEED104120D7F4BD204120D7FF7
:101433005AD204120D7F7ED204120D7F3FD30412C1
:101443000D7F4CD304120D7F5DD304120D7F7C7F7F
:1014530000120D7FC47F00120D7FF07F00120D7FFD
:10146300A2B204120D7FF6B304120D7F04B404126A
:101473000D7F17B404120D7F2CB404120D7F41B4F9
:1014830004120D7F54B404120D7FC8B404120D7FEF
:101493002DB504120D7FB5B504120D7F31B60412BC
:1014A3000D7FF5B604120D7F05B704120D7F14B737
:1014B30004120D7FFDEF04120D7F21F004120D7F46
:1014C30049F004120D7F71F004120D7FE8D5041268
:1014D3000D7F0FD604120D7F2DD604120D7FA0D6DB
:1014E30004120D7FF4CA04120D7F0DCB04120D7F7D
:1014F30019CB04120D7F2DCB04120D7F4BCB04129D
:101503000D7F55CB04120D7F5FCB04120D7F72CB81
:1015130004120D7FFCCB04120D7F71CC04120D7FDE
:10152300A5CC04120D7FF3CC04120D7F40CD041221
:101533000D7F5BCD04120D7F65CD04120D7F8BCD26
:1015430004120D7FF0CD04120D7F76EE04120D7F91
:1015530098EE04120D7F2BEF04120D7FC0F10412DD
:101563000D7F7D9404120D7FA79404120D7FC49404
:1015730004120D7FD79404120D7FED9404120D7F96
:101583004B9504120D7F839504120D7F7B990412F2
:101593000D7FC09A04120D7FF39A04120D7F569BA0
:1015A30004120D7FCF9C04120D7FF79C04120D7F54
:1015B3000C9D04120D7F1C9D04120D7F609D04126F
:1015C3000D7FBB9D04120D7FCB9D04120D7FB0E7F1
:1015D30004120D7FCAE704120D7FF2E704120D7F98
:1015E3000BE804120D7F2FE804120D7F4DE804125F
:1015F3000D7F64E804120D7F92E804120D7FADE8BD
:1016030004120D7F3CFF01120D7F80FF01120D7F3D
:1016130049C404120D7F59C404120D7F5EC5041220
:101623000D7F90C504120D7FC0C504120D7FE3C565
:1016330004120D7FFAC504120D7F34C604120D7F08
:1016430099C604120D7FDBC604120D7F1AC704125C
:101653000D7F4BC704120D7F76C704120D7F09E57A
:1016630004120D7F1BE504120D7F2FE604120D7F7C
:1016730032E604120D7FE2EA04120D7F18EB041226
:101683000D7F2EEB04120D7F70EB04120D7F80EBA8
:1016930004120D7FC4EB04120D7FBBA504120D7F52
:1016A300FEA504120D7F63A604120D7F80A604120B
:1016B3000D7F22A704120D7F2BA704120D7F70A7A5
:1016C30004120D7F99A704120D7FA6A704120D7FA4
:1016D30021A804120D7FACA804120D7FF1A80412F7
:1016E3000D7F3CA904120D7FA1A904120D7FC4A98B
:1016F30004120D7F35AA04120D7F8AAA04120D7FEE
:10170300C5AA04120D7FFAAA04120D7F0CAB0412B2
:101713000D7F1EAB04120D7F3DAB04120D7F46AB54
:1017230004120D7FF9AB04120D7F3CAC04120D7F44
:101733007AAC04120D7F5FE604120D7F9FE704125B
:101743000D7F0BF104120D7F7EDA04120D7FB4DAE4
:1017530004120D7FFCDA04120D7F55DC04120D7F99
:10176300D1DB03120D7FEADC03120D7F24DD0312AC
:101773000D7FD2DE03120D7F00DF03120D7F66E1C2
:1017830003120D7FA6E103120D7F4AE303120D7FBF
:10179300DAE303120D7F2EE403120D7FD0E403126C
:1017A3000D7F12E503120D7F54E503120D7FB1E6A1
:1017B30003120D7FFFE703120D7F36EA03120D7F3D
:1017C30064EA03120D7F8BEA03120D7F94EA03127E
:1017D3000D7FEBEA03120D7F86EB03120D7F8EEE76
:1017E30003120D7F15EF03120D7F55EF04120D7FCA
:1017F3006DEF04120D7F77EF04120D7FCBEF041210
:101803000D7F53FB02120D7F69FB02120D7F0AFC51
:1018130002120D7F49FC02120D7F66FC02120D7F3E
:1018230097FC02120D7FE4FC02120D7F17FD0212DA
:101833000D7F52FD02120D7F4DFF02120D7FB5FF8A
:1018430002120D7FE2E904120D7F41EA04120D7FBB
:101853007FEA04120D7FC0EA04120D7FC7FF021254
:101863000D7F68F104120D7F008002120D7F0C8042
:1018730002120D7F6E8002120D7F788002120D7F9F
:10188300098102120D7F458102120D7F35820212FA
:101893000D7F828202120D7F118302120D7F478317
:1018A30002120D7FC28302120D7F918502120D7FFA
:1018B3008B8702120D7F698802120D7F87890212BE
:1018C3000D7FCD8B02120D7F108D02120D7FBF8D08
:1018D30002120D7F5F9202120D7F539302120D7F4E
:1018E300F79302120D7F1C9402120D7FB89402121B
:1018F3000D7FCD9402120D7FF19402120D7F5F953F
:1019030002120D7F7C9502120D7FA69502120D7FA8
:101913003C9702120D7F5D9702120D7F039802120E
:101923000D7F4B9802120D7FA09802120D7F4099F4
:1019330002120D7FA49902120D7F029A02120D7FEB
:10194300AB9A02120D7F199B02120D7F4C9B021260
:101953000D7FBA9B02120D7FF59C02120D7F6B9EC9
:1019630002120D7F089F02120D7F46A102120D7F06
:10197300AFA102120D7FD9A102120D7FF5A30212AE
:101983000D7F9CA602120D7FC5A702120D7FFB9D42
:1019930004120D7F139E04120D7F309E04120D7FDF
:1019A300859F04120D7F3EA204120D7F60A20412D4
:1019B3000D7F52A304120D7FDCA304120D7F2EA50D
:1019C30004120D7FB1E004120D7F6DE104120D7F4F
:1019D3000FE204120D7FA6AC04120D7F33AD041287
:1019E3000D7FACAD04120D7F4BAE04120D7F6CAEB8
:1019F30004120D7F48AF04120D7FB5B004120D7FA2
:101A0300EFEB04120D7F0DC703120D7F3CC70312CA
:101A13000D7FB4C703120D7FB7C803120D7F13C91F
:101A230003120D7F8ACA03120D7FA6CA03120D7F0C
:101A3300F8CA03120D7F3BCB03120D7F4ECB03126B
:101A43000D7FA0CB03120D7F5BCC03120D7FD5CC92
:101A530003120D7FFFCC03120D7F37CD03120D7FD1
:101A6300B3CE03120D7F8CCF03120D7FD5D003129B
:101A73000D7FA8D103120D7F30D203120D7F78D2D0
:101A830003120D7F92D203120D7FD9D203120D7F61
:101A9300F9D203120D7F8FD303120D7F15D40312D6
:101AA3000D7F6FD403120D7FB3D403120D7F44D780
:101AB30003120D7F67D803120D7FA3D803120D7F86
:101AC30095D903120D7FBDD903120D7FC0D903121F
:101AD3000D7FCAD903120D7FDDD903120D7F5CDAA6
:101AE30003120D7F92DA03120D7FBEDA03120D7F0C
:101AF300E5DA03120D7F09DB03120D7F7ADB031294
:101B03000D7F88DB03120D7FBBDB03120D7F96F085
:101B130004120D7FA2F004120D7FD6F004120D7F84
:101B2300F37F00120D7FF3B003120D7F16B1031282
:101B33000D7F5CB203120D7FA5B203120D7F0DB3AF
:101B430003120D7F6BB303120D7F6EB303120D7F70
:101B5300BAB303120D7F2DB403120D7FB5B4031274
:101B63000D7FB8B403120D7F42B503120D7F83B509
:101B730003120D7F66B903120D7FFFBA03120D7FA7
:101B83005DBB03120D7F429004120D7F11C003123F
:101B93000D7F80C103120D7F1EC203120D7F29C367
:101BA30003120D7F7AC503120D7F64EF03120D7FBD
:101BB3000EF003120D7F74F003120D7F8DF00312EC
:101BC3000D7F09F103120D7F5FF103120D7FAFF15A
:101BD30003120D7F16F203120D7F8FF303120D7F95
:101BE300BDF403120D7F42F503120D7F48F7031274
:101BF3000D7FF1F703120D7F9AF803120D7F5CF945
:101C030003120D7F21D302120D7FADFC03120D7F52
:101C13005EFD03120D7F76FE03120D7F008003121B
:101C23000D7F748003120D7FBC8003120D7F008132
:101C330003120D7F498103120D7F938103120D7FE0
:101C4300CB8103120D7F498203120D7FA3820312FE
:101C53000D7FF78303120D7F888403120D7FE084C9
:101C630003120D7FFA8403120D7F228503120D7F69
:101C73007A8503120D7FE98703120D7F088803120B
:101C83000D7FEC8803120D7F1C8A03120D7F998A46
:101C930003120D7FE88A03120D7F498B03120D7F18
:101CA300EF8B03120D7FBD8D03120D7FBD8E0312CB
:101CB3000D7F3B9003120D7F1C9203120D7F8294C4
:101CC30003120D7F329603120D7F029703120D7FCD
:101CD300709703120D7F879703120D7F7F9803126E
:101CE3000D7F6F9903120D7FDA9903120D7FFBCDE0
:101CF30004120D7F47CF04120D7F04D004120D7F11
:101D030068D004120D7FCEC704120D7FE9C70412F9
:101D13000D7F2DC804120D7F53C804120D7F79C89F
:101D230004120D7F91C804120D7FF4C804120D7FB5
:101D330009C904120D7F2CCA04120D7F35CA04127F
:101D43000D7F3ECA04120D7F47CA04120D7F51CA8C
:101D530004120D7F29BC04120D7F28C004120D7FCD
:101D63002DC004120D7F2FC004120D7F3EDF04121D
:101D73000D7FBFFF03120D7FF2AB02120D7F25AC67
:101D830002120D7F91AC02120D7F2CAD02120D7F5A
:101D9300C9AD02120D7F0EAE02120D7F30AE0212DC
:101DA3000D7F49AE02120D7F6FAE02120D7F91AE11
:101DB30002120D7FCFAE02120D7F13AF02120D7F01
:101DC30035AF02120D7F97AF02120D7F5EB0021284
:101DD3000D7F15B102120D7F87B102120D7F52B232
:101DE30002120D7FA5B202120D7F0BB302120D7FFB
:101DF30045B302120D7F97B302120D7F05B4021291
:101E03000D7F70B402120D7F73B402120D7FF4B410
:101E130002120D7F8BB502120D7F0BB602120D7FDE
:101E23002AB602120D7F8EB702120D7F9BB70212E4
:101E33000D7FA7B802120D7FB4B802120D7FBDB893
:101E430002120D7F95BA02120D7FAFBB02120D7FF6
:101E530028BC02120D7F9ABC02120D7FBCBC021279
:101E63000D7F50BD02120D7F24BF02120D7FFBC2F6
:101E730002120D7F0FC302120D7F1FC302120D7FCB
:101E830029C302120D7F32C302120D7F3BC302121C
:101E93000D7F45C302120D7F72C302120D7F9BC3D8
:101EA30002120D7FA6C302120D7FCAC302120D7F59
:101EB300EEC302120D7F58C402120D7F9EC402129C
:101EC3000D7FBBC402120D7F38C502120D7F6FC593
:101ED30002120D7FAEC502120D7FFBC502120D7FEC
:101EE30081C602120D7F4FC802120D7FD2C80212A3
:101EF3000D7FB6C902120D7F1DCC02120D7F76CC69
:101F030002120D7FC0CC02120D7F1BCE02120D7F79
:101F130050CE02120D7FA2CE02120D7F57CF0212B6
:101F23000D7F06D002120D7F43D002120D7FD8D051
:101F330002120D7F44D102120D7FFE2E00120D7F7F
:101F4300302F00120D7F5E2F00120D7F34310012EF
:101F53000D7F143200120D7F6C3200120D7FA733F8
:101F630000120D7FF33300120D7F1C3700120D7F1B
:101F73000F3A00120D7F5F3B00120D7FF53B0012FD
:101F83000D7F013C00120D7F333C00120D7FB63DE7
:101F930000120D7F673F00120D7FFB3F00120D7F84
:101FA3003E4000120D7FBC4000120D7FD94000124D
:101FB3000D7F094100120D7F3E4100120D7F0E423D
:101FC30000120D7FB74200120D7F3D4500120D7FB9
:101FD3005D4600120D7F484700120D7FCA4700126D
:101FE3000D7FFE4B00120D7F3B4C00120D7F934C77
:101FF30000120D7FC64C00120D7F304D00120D7F75
:10200300664D00120D7FF14D00120D7F494E0012F7
:102013000D7F204F00120D7FD94F00120D7F74509A
:1020230000120D7F7C5300120D7F985400120D7F18
:102033003B5800120D7F2F5900120D7F32590012A9
:102043000D7F615900120D7F675B00120D7F405CAD
:1020530000120D7F835C00120D7FD95D00120D7F8E
:10206300185E00120D7FA15E00120D7FD55E001277
:102073000D7F9A5F00120D7FB26100120D7F236204
:1020830000120D7F636200120D7FF16200120D7F5B
:10209300136400120D7FD56400120D7FDC660012FD
:1020A3000D7FF46600120D7F086700120D7F4067F5
:1020B30000120D7F6E6700120D7FED6800120D7F19
:1020C300126A00120D7F6F6A00120D7F216B0012DE
:1020D3000D7F486B00120D7F0F6C00120D7FA76CF4
:1020E30000120D7FCD6E00120D7F026F00120D7F67
:1020F300656F00120D7F947000120D7F3C7100120A
:102103000D7F6D7100120D7F857100120D7F1472AA
:1021130000120D7FC87400120D7FA07600120D7F90
:10212300BC7600120D7FD87600120D7FA6770012C1
:102133000D7F997B00120D7FA08701120D7FD2873F
:1021430001120D7FC18B01120D7F0D8C01120D7FCA
:10215300538C01120D7FF58C01120D7F518D0112ED
:102163000D7F968D01120D7FDD8E01120D7FF18F94
:1021730001120D7FE09301120D7F649401120D7F14
:10218300719501120D7FCD9501120D7FBD9701123F
:102193000D7F329801120D7F3C9801120D7F4998F3
:1021A30001120D7F749801120D7F5B9901120D7F4F
:1021B300059A01120D7F839A01120D7FA39A0112D2
:1021C3000D7FCC9A01120D7FEE9A01120D7F4E9D69
:1021D30001120D7F149E01120D7F599E01120D7F76
:1021E300D69E01120D7F879F01120D7FB99F0112A9
:1021F3000D7FFF9F01120D7F3BA001120D7F8BA06E
:1022030001120D7FDFA001120D7F35A101120D7F99
:1022130081A101120D7FEEA101120D7F69A20112AE
:102223000D7F34A401120D7F34A501120D7F59A631
:1022330001120D7F98A901120D7FABAC01120D7F26
:1022430068AD01120D7FACAD01120D7F5CAF0112C1
:102253000D7F70AF01120D7F7AAF01120D7F84AF36
:1022630001120D7F90AF01120D7FACAF01120D7FF4
:1022730057B001120D7F96B001120D7FA0B001126D
:102283000D7FAAB001120D7F1AB101120D7F65B146
:1022930001120D7F7AB201120D7FD6B201120D7FAA
:1022A30057B301120D7F16B401120D7F1FB5011232
:1022B3000D7F53B601120D7F41B701120D7F59B740
:1022C30001120D7FB4B701120D7FD2B701120D7F3A
:1022D3001AB801120D7F41B801120D7FDCB801124B
:1022E3000D7FA2B901120D7F34BA01120D7FAEBA70
:1022F30001120D7FC8BB01120D7F75BC01120D7F4A
:102303009DBD01120D7FEDBD01120D7F51BE011266
:102313000D7FB3BE01120D7FE1BE01120D7F05BF1C
:1023230001120D7F3ABF01120D7F6BBF01120D7FAA
:102333009EBF01120D7FBEBF01120D7F26C0011289
:102343000D7F1AC101120D7F75C101120D7F9EC150
:1023530001120D7F26C201120D7FA9C201120D7F4A
:10236300D4C201120D7FB9C301120D7F3EF00212D8
:102373000D7F76F002120D7F97F002120D7FD9F0D8
:1023830002120D7F3BF102120D7F45F102120D7F08
:1023930055F102120D7F90F102120D7F70F50212BA
:1023A3000D7F5DF702120D7F43F902120D7FDAF9FB
:1023B30002120D7F7CFA02120D7FBBC501120D7F45
:1023C30039C601120D7F95C601120D7FE0C60112B9
:1023D3000D7FFBC601120D7F26C701120D7F43C778
:1023E30001120D7F4FC701120D7FE6C801120D7F49
:1023F300FFC801120D7F84C901120D7F97C9011215
:102403000D7FB6C901120D7F5ACA01120D7FDBCBB6
:1024130001120D7F8ECD01120D7F24CE01120D7F8F
:1024230027CE01120D7F97CE01120D7FB5CE01127B
:102433000D7F4CCF01120D7F94CF01120D7F97CFEB
:1024430001120D7F5DD001120D7FCAD001120D7FE5
:10245300F0D001120D7F7BD101120D7F99D10112B2
:102463000D7FDFD101120D7F93D201120D7FDDD2DB
:1024730001120D7F0CD301120D7F69D301120D7F61
:102483009ED301120D7FCAD301120D7FD8D301123F
:102493000D7F25D401120D7F95D401120D7FDED45B
:1024A30001120D7F2AD501120D7F56D501120D7F22
:1024B30061D501120D7F7FD501120D7F6AD60112FE
:1024C3000D7F74D601120D7FAFD601120D7FBFD6DB
:1024D30001120D7FC8D601120D7F1CD701120D7F8B
:1024E30030D701120D7F5FD801120D7F76D801120C
:1024F3000D7F8BD801120D7F19D901120D7F5ED983
:1025030001120D7FEAD901120D7FF5D901120D7F5A
:1025130037DB01120D7F52DB01120D7F9EDB0112AF
:102523000D7F0DDC01120D7F46DC01120D7F60DC97
:1025330001120D7FA2DC01120D7F72DF01120D7FEC
:102543001FE001120D7F8CE001120D7FCCE201121E
:102553000D7FE4E201120D7FE7E201120D7FF3E24A
:1025630001120D7F07E301120D7F0FE301120D7FAF
:1025730042E301120D7F44E401120D7FCBE401120B
:102583000D7F3BE501120D7FBDE501120D7F7EE658
:1025930001120D7F9DE601120D7F3EE701120D7FB3
:1025A3009BE701120D7F9EE701120D7FCBE701121E
:1025B3000D7FE0E701120D7F54E801120D7FA3E9BF
:1025C30001120D7FA9EA01120D7F34EB01120D7F79
:1025D3004FEC01120D7F17ED01120D7F48ED011233
:1025E3000D7F6BED01120D7F74ED01120D7FA3EDD5
:1025F30001120D7F33EE01120D7FE9EE01120D7F03
:102603005EEF01120D7F05F001120D7F7AF00112CA
:102613000D7FB1F001120D7FEFF001120D7F25F157
:1026230001120D7FA18F04120D7FA58E04120D7F61
:10263300CF8D04120D7FD88B04120D7F2B8B0412C8
:102643000D7FBD8A04120D7FC3B003120D7FB9B095
:1026530003120D7F4EB003120D7FA2AE03120D7F46
:1026630060AE03120D7F7ED202120D7F3DD20212A5
:102673000D7F80AD03120D7F6AAD03120D7F1ED255
:1026830002120D7FEBD102120D7F2BAD03120D7FD2
:1026930086AC03120D7F80A903120D7F6EA7031270
:1026A3000D7F3BA703120D7FD6A603120D7F69A6EC
:1026B30003120D7F28A603120D7F61A503120D7F60
:1026C300FCA403120D7FA7A403120D7F4AA40312D7
:1026D3000D7F21A303120D7FBEA203120D7F08A25B
:1026E30003120D7F03A203120D7FF7A103120D7FC7
:1026F300AA9E03120D7F849E03120D7FD6D1021270
:102703000D7FABD102120D7F379404120D7FFF931F
:1027130004120D7FA89304120D7F119204120D7FF2
:10272300539104120D7F299E03120D7FD49D031232
:102733000D7F959D03120D7F829D03120D7FB69031
:1027430004120D7F779D03120D7F539D03120D7F9E
:10275300629B03120D7FE19A03120D7FAC9004126A
:102763000D7F9D9A03120D7F05FB03120D7F719A56
:1027730003120D7F5F8A04120D7F218A04120D7FDD
:10278300F48904120D7FC08904120D7F5F8904123E
:102793000D7F478904120D7F238904120D7FEC8579
:1027A30004120D7FB88304120D7F9F8104120D7FE5
:1027B3002E8104120D7FDD8004120D7F9780041299
:1027C3000D7F569004120D7F008004120D7FD8BE3A
:1027D3000300000080FBE4738F000100C11D87002C
:1027E3000100BF1D35000400881D250002008C1D5B
:1027F300260002008E1D27000200901D2800010004
:102803009A1D290001009B1D84000400241B8600DF
:102813000100421D2A0001009C1D2B0001009D1D8B
:102823002C000100A11D2D000800301B2E0001000B
:10283300A21D2F000100A31D30000100A41D3100C3
:102843000100A51D32000100381B33000100391BB4
:1028530034000100A61D360001003A1B38000100B8
:10286300A71D39000100A01D83000200BD1D6300E8
:102873000100461B640001009E1D650001009F1DB1
:102883006D000100471B71000800281B6600010052
:10289300BC1D43000100AD1D44000200AE1D4500F8
:1028A3000100B01D46000200B11D470008003E1B99
:1028B30048000100B31D4B000100B41D04000100DA
:1028C300C01DA1000100C41D37000100C31D880005
:1028D3000100C21D3C0001003B1B3D000100A81D7F
:1028E30049000200B51D67000100481B4D000200AE
:1028F300B71D4E000100B91D4F000200BA1D3E0076
:102903000100AC1D510001003C1B52000100AA1D37
:1029130053000100AB1D540001003D1B00000000EB
:1029230000000700000030231919070010003023AE
:1029330005190700000030231A190700100030237F
:1029430006190700000030231B190700100030236D
:1029530007190700000030231C190700100030235B
:1029630008190700000030231D1907001000302349
:1029730009190700000030231E1907001000302337
:102983000A190700000030231F1907001000302325
:102993000B19070000003023201907001000302313
:1029A3000C19070000003023211907001000302301
:1029B3000D190700000030232219070010003023EF
:1029C3000E190700000030232319070010003023DD
:1029D3000F190700000030232419070010003023CB
:1029E30010190700000030232519070010003023B9
:1029F30011190700000030232619070010003023A7
:102A03001219070000003023271907001000302394
:102A13001319070000003023281907001000302382
:102A23001419070000003023291907001000302370
:102A330015190700000030232A190700100030235E
:102A430016190700000030232B190700100030234C
:102A530017190001363601010001020100010301CB
:102A63000001040106060502000007010034080105
:102A7300000F090401010D0100FF0E0800001702F9
:102A83000000190100FF1A0100011B0100FE1C01D7
:102A930000081D0200001F010001200100012102A6
:102AA30000002301000F240200002601000127017A
:102AB3000008280200FF2A0100072B0102402C0115
:102AC30000002D0100012E0100012F0100FF300144
:102AD3000B1D310800003A0100083B01000F3C01C7
:102AE30000013D0100FF3E040000420400004604D3
:102AF30000004A0400004E04000052040000560483
:102B030000005A0400000000000020019E8700001E
:102B1300010020019F870000020020019A87000026
:102B2300030020019B8700000400420198860000F7
:102B33000500420161860000060042015086000044
:102B4300070030019C870000004020019F870000A0
:102B5300FDFF210196870100200020054A1D010089
:102B6300210020054B1D0700000030231819070022
:102B7300100030230419010371030103010301034E
:102B830001030103220302030103100300030003F3
:102B930000030003000300030003420300032403B4
:102BA3000603000300030403120325032303250381
:102BB300230304030403000300030003440300038B
:102BC300000323030003650321003503810300038E
:102BD300050300030003000300032503230303028B
:102BE300710230016002110270020102020202024C
:102BF3008002100261023A00410063027302720212
:102C030062024302000213023800000200020402BF
:102C13001202000200020002000204020402370052
:102C230037003C0244020002390000020002650240
:102C330000023502810200020502820283020002C1
:102C430001017101010101011101010131010101C1
:102C530001018001100161013B0014006301730154
:102C63007201620143010001130106013D013500B8
:102C7300040112010001000100010001040104012B
:102C8300330133013C0144013201360000010001EC
:102C93006501000135008101000105018201830105
:102CA3000001030071003001600011007000310267
:102CB3002003500480001000610000001400630032
:102CC300730072006200430000001300060000005E
:102CD30000000400120000000000000000000400D7
:102CE3000400370037003C024400000000000000ED
:102CF30000006500000035008100000005000000B1
:102D03008300000036000100060000000F000000F1
:102D13000000000000000000000003FFFF000004AB
:102D230003FFFF0000FFFF0FF4010005C4040320AD
:102D3300000100140B000000000000000003010F5D
:102D43000000000000000000000000000000000080
:102D53000000000000000000000000000000000070
:102D630000004C1976195219861858197C195819EC
:102D730088195E19861858197C1964198618000079
:102D830000006A1986180000000000000000701996
:102D93008618000000000000000000000000000092
:102DA3000000000000000000000000000000000020
:102DB3000000000000000000000000000000000010
:102DC300D41B0100D41B02004A1B0280441B0300D6
:102DD300501B0400561B04805C1B0500621B06008D
:102DE3006E1B3100801B3300CE2734008C1BFFFF8A
:102DF3000000030003000400080010001F003E0051
:102E03007B00F600EC01D703AF075D0FB91E713DE0
:102E1300000007ECFDFDFDECDCDCCCBCACAC9C9C09
:102E23008C7C7C6C6C5C5C5C4C4C3C3C2C2C1C1C8F
:102E33000AB021027A210586210780210C62210D27
:102E43006E21FF000000160F00000B150B0200029D
:102E5300220F3300000E0FD0D1D2D3D4D5D6D7D87A
:102E6300D9DADBDCDDDEDF5A6967426565416C6C0C
:102E730069616E63653039140AE5D5C5B5A5A595B5
:102E83008585756500034D4C4651181A25050200CA
:102E930001191618161618230300303016181920B6
:102EA300231A1C1E30303017181921301B1D1F30F8
:102EB300003C40423A3F3F392F47300C0E020B048F
:102EC3000B0A0708000F02040201010101090200B5
:102ED300BE040AE8030000FA06E8037A2E010003A1
:102EE300000E00152E030A0C040108042828020C06
:102EF300050908151E00FFFF0E041EC082C08312C1
:102F030011C6901B717452F0A3741FF0901B73745D
:102F130058F0A3741FF0901B75745EF0A3741FF038
:102F2300901B777464F0A3741FF0025C3974F7127A
:102F33000824901B65E4F0E9901B64F07C3E7D1B44
:102F43007A667B1B121856901DB3E0901B6EF090AF
:102F53001B6F7428F0A3741B023EC674F01208247E
:102F6300EAFEEBFF548070030230CF901B64123FE4
:102F73005B70030230C8EA241B1257C6707CEA2434
:102F83001F1257C664137002A3E0706E8A828B838C
:102F930012311D901B7F124D58750A00750B00806E
:102FA3000D123D9C126E3812175AAA0EAB0FEA4B44
:102FB30060488A828B83E0650C7004A3E0650D7022
:102FC3002C8A828B83A3A3A3A3E0F50EA3E0F50FC2
:102FD300E50A450B8A828B83A3A3A3A360C3124094
:102FE3009E850A82850B83A3A3A3A380B78A0A8B3A
:102FF3000B8A828B83124D5480B4E508242A12571E
:10300300C6FCE5082402F8E43509F9E8FAE9FB907F
:103013001B7F123204A3A3E06402703C8A828B8379
:10302300124D58800B88828983A3A3A3A312409EC9
:10303300E849601F88828983E06A7003A3E06B70AC
:10304300E488828983A3A3E06C70DA901DB9125AD5
:10305300F6806BECF9121F8E850882850983E06484
:1030630001704FE5082418123106120DBD1263E0FA
:10307300120C23E5082412123106120DBDE50812C5
:103083003F4F120DB9E508240B1263E4120C27E538
:10309300082417123EECE5082402FCE43509FDE59B
:1030A300082419FAE43509FB1227AA740A120DCC75
:1030B300800CE064027007AA08AB0912206CAA080E
:1030C300AB091216BEEEFAEF6480802DEA5402605B
:1030D3000C901DC87401F0EA6402FA8023EA5408D4
:1030E300601A121F88EA4B700B901B811262BB7A25
:1030F30008123113EE6408FAEFFB80047A007B00B8
:10310300026A6AF582E43509F583E0F50A780A2252
:10311300FB901B64E0F912182622A3A3E0F50CA38D
:10312300E0F50D227B00901B64E0F912181A740479
:103133002274F41208248A088B098A828B83A3A33E
:10314300A3124B50123EF738F583E02409FA126AB2
:103153000270030231F78A828B837402124BC58596
:103163000882850983123204E8F0A3E912667C8A97
:10317300828B83A3A3A3A3A3A3A3A3F0E5082403A0
:10318300F8E435091231F9123EF73AF583E08E82FD
:103193008B83A3A3A3A3F0EE2409FAE43FFB8E825F
:1031A3008F83A3A3125DA8F5838882E0A2E58E82B4
:1031B3008F83A3A3A3A3A3500474018001E4F0E5C8
:1031C300082403F5828983124D58EA1252D93BF53C
:1031D300831269C9120DB5123EF63B125E9A8E82B6
:1031E3008F83A3A3127B78120DCCEEFAEFFB901B17
:1031F30064126A4F8016F98882F583E0FAA3E0CA65
:1032030022124EF5A3A3227402120DCC7F04020BEB
:103213005874F21208248A088B09ECFAEDFB740E39
:103223001210D5E0FC1211FC8A0C8B0DAE0CAF0D05
:10323300EA4F6030AC08AD091211EAE96026AC0828
:10324300AD09EEFAEFFB1211F0E970148E828F8351
:1032530012408BFAEFFB1211E4AA08AB0912121405
:103263007900800279B4024E4474F012082474F693
:10327300120E65EAFEEBFF8C088D09750FB38521ED
:1032830082852283E4F0750E008002050E902EEFF6
:10329300E493F8E50EC3984003023393AA0E7B0030
:1032A3001212388A0A8B0BEA4B60E08A828B83A363
:1032B300A312339A28F0F8C3EE98EF940050CC7C15
:1032C300157D007900AA08AB091216A6850A828526
:1032D3000B83A3A3A3A3126E75E0F8EEC39829256D
:1032E300E0F8E433F9E50A28F582E50B39F583A321
:1032F300A3A3A3A3A3123F01A312591D8A0C8B0DF1
:10330300AC0CAD0DAA08AB09121856850A82850BC1
:1033130083A3E06401700A1263E07401123F138017
:10332300447401120E5D850A82850B83124D561279
:103333001220E9603D74091210D5E0C0E01263E089
:10334300D0E0F074091210D5E06403701374011215
:103353000E5DE508240BFAE43509FB1218568012BA
:1033630074011210D512409EE50812590335091253
:103373006E36850A82850B831263EC123F13A3A377
:10338300E0C0E0E50824141263E4D0E0F0750F0018
:10339300A90F740A026A67A3A3A3E0F885218285B3
:1033A3002283E02274F7120824E9FE8A828B83A326
:1033B300A3A3A3A3A3E0540860338A828B83A3A3AC
:1033C300A3A3A3A3E0540260218A828B83A3A3A3B4
:1033D300A3A3A3A3A3A3E06406600F74E96E600A2A
:1033E30074CD6E600574F06E7003121F7002474354
:1033F30074F012082474EF120E65740F1210D512B4
:10340300619F74081210D5E9F0ECFEEDFF7405120C
:1034130010D512450B12472FA3E0F91212087406B8
:103423001210D512619F74061210D512536A7003DD
:103433000236AE123F3BE0FA74061210D5E0F912E1
:103443001EB012370EF8A3E0F9E84970030236AE56
:10345300EE2403F50AE43FF50BEE2406F508E43FFA
:10346300F5097C00850882F583124D58850A82850B
:103473000B83E0F912120E74031210D512619F85AB
:103483000A82850B83E0C0E085218285228312377F
:1034930007D0E012547FF9852182852283123DA350
:1034A300124FD112339DFAA3E0CA2407F582E43AFE
:1034B300F583E8F0A3E41261AA2406F582E438F563
:1034C30083E4126E42124B44120DB5EE123EF73FE7
:1034D300125E9A74031210D5124B502409127B7298
:1034E300120DCC74291210D5126E6F1231FE1254C4
:1034F300923A126E36742B1210D5E0C0E085218209
:10350300852283125331D0E0F074021210D5E4F017
:1035130074251210D5780812107E02360574031232
:1035230010D5125E628882F5831236F6A3A3A31226
:103533005928FB121226850E82850F83A3EAF0A376
:10354300EBF074031210D5123707A31236F6125B91
:1035530037A2E6500F850E82850F83A3A3A3A3A3EF
:10356300E0D2E1F074051210D5E0706B850E828510
:103573000F83A312409E901BBFE0687003A3E06912
:103583007055850E82850F83A3A3A3123ED6750CB7
:1035930000780C120DBD7808120DB174291210D5E4
:1035A300E0F50C780C120DBD74271210D5120C2700
:1035B300901BCC120C27790074191210D5124D28C8
:1035C3001220B4740A120DCC850E82850F83A3A337
:1035D300A3A3A3E04405F074021210D5E004FC8E0B
:1035E300828F83124D528E828F83A3A3A3E0F9129D
:1035F300120E74031210D512619F74021210D5E0DB
:1036030004F074031210D512536A60677402121027
:10361300D5E0FA74061210D512409EC3EA98E499D5
:10362300505174021210D51239E08521828522830C
:10363300E028F8A3E039F9E8240FF50EE439F50F93
:10364300850E82F583E4F074031210D512370164FA
:1036530001600302352074051210D57401126A55F6
:10366300F074031210D5125C29123A03E8F0A3E9AF
:10367300023544852182852283124D58121EB68558
:103683002182852283120C2774261210D5E0FD7443
:10369300251210D5E0FC740A1210D5E0F9EEFAEF0A
:1036A300FB121F6A7402120DCC80438E828F83A398
:1036B300A3A3E0C0E0740C1210D5D0E0F01268BEF2
:1036C300E0C0E0740D1210D5D0E0F074061210D5EE
:1036D30012536A7009740E1210D574B98007740EF0
:1036E3001210D57410F07409120E551220AE741115
:1036F300026A67E0850E82850F83A3A3A322E012EB
:103703005457E022E0125457A3A322852182852235
:1037130083EAF0A3EB1253732274F012082474E1CA
:10372300120E6574041210D5E9F074031210D5EC6F
:10373300F074021210D5EDF08A0E8B0F742F121055
:10374300D512311FAA0CFB121EA474011210D5E965
:10375300F0AA0CAB0D121EAA74011210D5E070036F
:103763000239DB852182852283E480158E828F8353
:10377300A3A3A3A3A3E0D2E3F0852182852283E060
:10378300041269ADF8852182852283E0C398400342
:103793000239D274011210D5E070030239D28521A7
:1037A300828522831239E0E50C28F8E50D39F9E822
:1037B300240FFEE439FF8E82F583A3A3A3A3A3E022
:1037C300A2E040B5750800750A08750B0074021273
:1037D30010D5E060037508207C087D00790074052E
:1037E300120E551216A68E828F83E0603E901C0F38
:1037F300E06401701AE508D2E3F508750B1012397D
:10380300F01210D5E8F0A3E912581B74FF80764339
:10381300080C750A0C8E828F83A31239FB126E3843
:1038230074051210D574FFF0A3805A74041210D5D6
:10383300E06009E508D2E6F508750A0A8E828F83EF
:10384300A3E064FE7003A3E0F4703074121210D589
:10385300740412640AF8741D1210D5E8124BC5746F
:1038630012120E55121DD27D007C007900741512C0
:1038730010D5AA82AB83121BBC800B1239F0121035
:10388300D5E8F0A3E9F074071210D5E508F0123F6C
:1038930032C0E074091210D5D0E0F0740A1210D5CA
:1038A3007401F07405120E5512207274111210D5A2
:1038B300E060030239B0740D1210D512547A8E826F
:1038C3008F83A3A3A3A3F0740D1210D5124B93E51A
:1038D3000AF0A3E50BF074031210D5E0C0E0124B1D
:1038E30024D0E0125B376011901C0FE0C0E0740D30
:1038F3001210D5124B6ED0E0F0740D1210D5124099
:103903009E850C82850D83A3A3A3A3A31239E92467
:103913001C126199126E521239EB125AE93912686C
:10392300DDC0E0124B0BD0E01269A2C0E0740D12AF
:1039330010D5124651D0E01266A3C0E0740D1210E8
:10394300D5124647D0E0F0740D1210D51239FB1290
:1039530039E9242A126199850E82850F83A3A3A3D3
:10396300A3A3A3A3A3E0126192123F21C0E01246D6
:1039730033D0E0F0740D1210D5124D58850E8285A8
:103983000F831269B82428F582E43B126E36123F86
:103993002A1269C9120DB5125E93EA12612B3B120A
:1039A3007B76120DCC7405120E551220788E828F01
:1039B30083A3A3A3A3A3E0D2E0F074111210D5E074
:1039C300600302376F74011210D5E01402377B795C
:1039D30000AA0CAB0D121F76741F026A67E075F024
:1039E30007A4F8A9F022A3A3124D5CE8228E828FCC
:1039F30083A31240A2740522E0123A03A3A3A322D5
:103A0300F8A3E0F9850E82850F83A32274F01208D0
:103A13002474E8120E65E9852182852283F08A0EDB
:103A23008B0F8A828B83A3A3A3A3A3A3A3A3E0F9EE
:103A3300121ECE8A088B09EA4B7003023AECE50E9C
:103A43001252ED123F4A123EE1852182852283E024
:103A53006003023AEF7C04850E82850F83A3A3A340
:103A6300A3A3A3A3A3E0F9121ED4EE4F607B8E821F
:103A73008F83A3A3A3A312409E74071210D51262CF
:103A8300D012409E74091210D5124BF5C0E0741188
:103A93001210D5D0E0126681A3A3A3A3A3A3A312FC
:103AA300409E740F1210D5126E3874121210D5E4A2
:103AB300126A5DC8241FF582E438F583125E5EC482
:103AC30013135403FC70027C048E828F83E0F97815
:103AD30008120DB9742059FD744059F97403120E7C
:103AE30055121F6A7402120DCC026A657C08850E9A
:103AF30082850F83A3A3A3A3A3A3A3A3E0F9121E09
:103B0300D48B0BEA4B7003023A6DEE4F60DB8521D9
:103B130082852283E0F50C780C120DBD8508828521
:103B23000983A3A3A3A3A3A3A3E0F50C780C120D0D
:103B3300BD8A828B83A3A3A3E0FB8A82850B8312B6
:103B430076958A82850B83E0FA8E828F83A3A3E026
:103B5300F91227B07402120DCC023A7174F71208ED
:103B63002474FA120E65E9FE780179017F0080035F
:103B730079000F124ED4E0FCEFC39C5026EF75F092
:103B830007A4FC85F008AD08EA2CFCEB3DFD1244CC
:103B9300C3E0A2E050DA540C60D6E0A2E250D3783E
:103BA3000080CF8A828B83A3A3A3A3A3A3E0703D4A
:103BB300E9A2E0400574016E70338A828B83A3A36C
:103BC300A3A3A3A37401123EB3E0C0E074031210D5
:103BD300D5D0E0124522E0C0E074041210D5D0E045
:103BE300F074051210D5E8125DFD1220AE740602C2
:103BF3004740C082C0837901121F76025C3974F496
:103C0300120824EA4B901DC86019E4F08A088B0956
:103C1300F50AF50B7808120DB17A02123127120D4D
:103C2300CC800A7401F07A027B0012311402320F45
:103C330074F012082474F3120E6574031210D5E4A1
:103C4300F0A3F0901B7F123EE174011210D5E4F053
:103C5300A3124BCA04F0901BB9E0A2E35003023D48
:103C630026123EA774091210D51210BE7409121041
:103C7300D5780812107E901B817808120E357405D2
:103C83001210D5780812106F123DAA74051210D5C0
:103C9300780812101250077A017B00023D977405D1
:103CA3001210D5780C12107E901DB8E0F509780C2F
:103CB30079081207B5A80CA90D901DB9E0C398E4C3
:103CC300995003E08001E8852182852283F07409FD
:103CD3001210D5780812107EC008C009C00AC00BA4
:103CE30074051210D5780C12107E123DAA780C7947
:103CF300081207B5E4F50AF50BD00FD00ED00DD09E
:103D03000C780C7908120F0D901B81780C12106F30
:103D13008011123D9C126E38EEFAEFFB12175AAE69
:103D230008AF09EE4F60658E828F8312339AC39872
:103D3300502DEE2403F8E43FF9E0FA88828983E00A
:103D4300C39AF0602374031210D512420474011253
:103D530010D5EEF0A3EF1262EBFEA3E0FF80C48E5A
:103D6300828F83A3A3A3E4F08E828F83127B2F74AD
:103D7300011210D512536A8E828F83A3A3A3A3606B
:103D8300911262C41210D5123DA3808974031210DC
:103D9300D5124D58740D026A671240A2901B7F2200
:103DA300125E89A3A3A322901DB7127B37E4F50A01
:103DB300F50B2274F01208248A088B09890A78000B
:103DC3007900901B7F123EE1FBEE4B601E088E8252
:103DD3008F83A3A3A3A3124D22601008E8700109E7
:103DE3008E828F83123EDDEA4F70E3901DBA124D2F
:103DF30058C3E89AE99B4003023E9A7A06123E9D15
:103E0300A80CA90DEA497003023E9A8A828B83E5C6
:103E130008F0A3E509123EBCE50AF0901DB9124E65
:103E2300DC123EB3A3E4F0A3F0901B7F124D22609B
:103E33000D8E828F83A3A3A3A3126E388017901BCA
:103E43007F126E38901BB9E0A2E34009123EA7909F
:103E53001B811210BE901BB9E0A2E3503A7A087B93
:103E630000901B64E0F912182CEA4B4C4D7028901B
:103E73001DB7E0F508A3E085080CF50DE4F50EF594
:103E83000F780C120DB17A087B00901B64E0F912D5
:103E930018207404120DCC026A6A7B001217548A2C
:103EA3000C8B0D2212183EEAF8EBF9ECFAEDFB222B
:103EB300123EB722123EBCA322F08A828B83A3A3B5
:103EC30022E508F0024743F08E828F83A3A3A3A3C6
:103ED300A3A3221257D4A3A3F022A3A3A3A3E0FE78
:103EE300A3E0FF227F05020B58F582E43509F58331
:103EF300E0F922EA123EFB222410F582E422123F6B
:103F030009A3A3A3A3221240A685088285098322BD
:103F1300123F1722F0850A82850B83A3A322E50EA5
:103F23002411123F47E022E50E240E123F4722E5FB
:103F33000E2410123F47E022123F3F22EE123EFBB7
:103F43003FF58322F582E4350FF58322240FF50A2A
:103F5300E43509F50B780A22E0F91216D08A088BAA
:103F630009EA4B2274F2120824890B8A088B098A06
:103F7300828B83124D58121F9AEA4B600479B880E2
:103F83006A121FA6E9F8902EECE493F9E8C399406E
:103F93000479B280567A15123E9DAE0CAF0DEA4FEE
:103FA3007004791080458A828B83E4F0A3123EBCAF
:103FB300E50BF0750A007808120DB57C127D00EA56
:103FC3002403126974120DCC901B8512536A700876
:103FD300901B85800C12409E88828983123FF1706A
:103FE300F4EEF0A3EFF0121FB87900024E44124D25
:103FF3005CEA4B8882898322C082C083901B8580C0
:10400300048C828D83127696EC4D60288C828D838E
:10401300A3A3E069600574FF6970E68C828D83A3B6
:10402300A3A3E06A7003A3E06B70D6EC2403FAE465
:104033003DFB80047A007B00025C3974F71208248C
:10404300E9FD74FE6D70047C0180027C00901B8589
:1040530080096D70027C018882898312536A601F14
:1040630088828983A3A3A3E06A7003A3E06B70E74C
:10407300ECA2E088828983A3A3E050D6F980027979
:10408300FE024743EEF9800CA3A3127B37EE2274A2
:1040930002120DCC7F02020B58F5831240A22212AA
:1040A30040A622E0F8A3E0F9221240A68E828F8375
:1040B30022120DCC7F03020B58C082C0837900907B
:1040C3001B85800109E0FAA3E08A82F583E5824536
:1040D3008370F1025C3974F6120824E4F508F509DB
:1040E3007808120DB9902EECE49375F013A4A9F09F
:1040F3001241F9126E96120DCCE9FE74096E70032B
:10410300121FB202408774F612082474FE120E6561
:10411300852182852283E4F0A3F0A821A9228808BF
:1041230089097808120DB975080275090078081213
:104133000DB9126B07120DCC02409274F5120824CC
:1041430074EB120E65852182852283E4F0A3F0903F
:104153001B8580748E828F83A3A3E0C0E074021258
:1041630010D5D0E012581BA982AA8389088A097541
:104173000A007808120DB57C127D0074061210D562
:10418300126E5B120DCC7402120E4D8808890978E9
:1041930008120DB97508137509007808120DB97462
:1041A300041210D512530D75F013A4F8AAF075F08C
:1041B30013E91241F5126B0F120DCC852182852272
:1041C300831242048E828F83123EE1EE4F7085A8E4
:1041D30021A922880889097808120DB97508027582
:1041E30009007808120DB9126B07120DCC74150271
:1041F30040B4A42AF9E82402FCE439FD7A427B00A6
:1042030022E02401F0A3E03400F02274F412082425
:1042130074EB120E657E007F00A821A9228808890D
:10422300097808120DB97508028E097808120DB9BC
:104233007C007D007A42126EA2120DCCE9706C8E66
:104243000880567402120E4D880A890B780A120DE3
:10425300B9750A13750B00780A120DB9E50875F0E4
:1042630013A4F8AAF075F013E5091241F5126EA430
:10427300120DCCE9701B74031210D5AA82AB8374A0
:10428300021210D5E0F9121F94E970050EEE7001C9
:104293000F0508E50870020509852182852283122E
:1042A300409EC3E50898E509994098EEFAEFFB7440
:1042B3001502320C74F61208248C828D83A3A31288
:1042C3004510F0EA1261313BF583E0C0E01244CDC2
:1042D300D0E0F0EA241DF582E43B12409C1244B185
:1042E30012450BF0A3F0EA241FF582E43BF5831299
:1042F3003EE1EC1244A43DF583EEF0A3EFF012444B
:10430300AA3BF5831244DBA3A3A3A3A3A3EEF0A3C9
:10431300EF125D8CFE8C828D8312451A74035EFE50
:10432300C394034003024497EE600874026E600373
:104333000243BC8C828D83E0540CFE740C6E7003BC
:104343000243FBE0A2E4400D88828983E08C828DE6
:1043530083A312453074086E60030243FB1244BB0F
:104363007401F08A828B83A3A3A3A3A31257E170E2
:10437300148C828D83E0440C124522A3A31244DBE8
:10438300EEF0A3EFF08C828D83E0A2E4402B8882D1
:104393001244E91244FE500109F5821244E9A3A331
:1043A300A3A3A3A3F0A3EF12452A8C828D83A3A317
:1043B300A3F0E82403F850010988828983E0C0E070
:1043C300EC2411F582E43DF583D0E012451A8C828A
:1043D3008D83E0A2E7507588828983E0FE8C828D0D
:1043E3008312453074FC5E700C8C828D83A3E05481
:1043F300036403701E0244971244BBE4F0740C6E12
:10440300600302436688821244EF1244FE5001099E
:104413000243888C828D83A3E054036032888289AF
:1044230083E0C0E0EC1244D53DF583D0E012453182
:104433008C828D83E054036402701488828983E044
:10444300C0E01244C3D0E01245318003A3E4F0EC92
:104453001252D93D126E36EC2410FEE43DFFEA24DD
:104463001DF582E43BF583E0F5088E828F83E0C37C
:10447300982508F508F0EA2417F8E43BF98882F553
:1044830083E0C39508C0E01244B1D0E0125D8CC351
:104493009508500A1244B1E4F01244CDE4F002400E
:1044A300972415F582E422EA240DF582E422EC2414
:1044B3000DF582E43DF58322EC1254923DF58322FF
:1044C300EC2414F582E43DF58322EC123EFB3DF52A
:1044D30083222413F582E422E0FEA3E0FF8C828D85
:1044E30083A3A3A3A3221244EFA3A3228983E0F50A
:1044F30008A3E0FFE5088C828D8322A3A3A3A3F086
:10450300A3EFF0E82402F822124510A322E4F08C72
:10451300828D83A3A3A322124538A882A9832212E2
:104523003EB7A3A3A3A322124538A3E022A31245B7
:104533003808A98322125D95A32274F41208247407
:10454300F3120E658A0A8B0BECFEEDFF8C82F5836A
:10455300E0540CF508E0A2E75006E508D2E7F508B9
:10456300E508D2E1F5081257E17006E508D2E4F553
:1045730008E0A2E55006E508D2E5F5087C087D00D1
:104583007900AA21AB221216A674021210D5E508EF
:10459300126E3CC0E074031210D5D0E0124BCAE592
:1045A3000AF0A3E50BF074051210D51266A81210D9
:1045B300D5E0707774081210D5124B50125D7E3817
:1045C3001266C3C0E074081210D5124651D0E0122F
:1045D30066A3C0E074081210D5124647D0E0F07409
:1045E300081210D512463DE0124B78124BF91261B6
:1045F30092EE24111257ADC0E0124633D0E0F0EE34
:1046030024141257ADC0E074081210D5124B502475
:1046130035F582E438F583D0E0124B9DC0E0740891
:104623001210D5124B54D0E01263FC740D02320CFD
:10463300E82432F582E439F583221240ACA3A3A324
:10464300A3A3A322124B641268A238F58322124B50
:10465300642426F582E438F5832274F71208247E55
:10466300008A828B83A3A3A3A3A3A3A3A3A3E0642E
:1046730004600302471F12548AE0600302471F12BB
:1046830052EC3B125368700302471F88828983E010
:104693005403600302471FE812549239F583E0FA8A
:1046A3008C828D83A3A3E0FBA3E0CB2411F582E4EA
:1046B3003BF583E06A706588828983A3A3A3A3A3E0
:1046C300A3A3A3A3124723E06A7003A3E06B704C78
:1046D30088828983A3A312472FE0FFA3E0CF240698
:1046E3001257AD6A7003A3E06B703188828983A38C
:1046F300A3E0F88C828D83A3A3E0F9A3E0F583897B
:1047030082A3A3E06860138C828D83A3A3A3E0F547
:10471300838982E0540C640470027E01EEF98020E8
:1047230012472722124D608C828D8322A3A3124746
:1047330027A3A322740C1210D5E0F9740D120DCC2B
:104743007F01020B5874F612082474FC120E65EAFA
:10475300FEEBFFECFAEDFB8C82F583A3E0540360E0
:1047630016901B7B12536A60597900EEFCEFFD1221
:104773005F891227D9804B852182852283EEF0A39E
:10478300EFF074021210D5124BBFAC21AD227AD0D8
:104793007B1F1221F88A088B09A808A909EA496036
:1047A300218A828B83A3A3A3A3A3A3A3A3A3740696
:1047B300F07A0088828B83124B50126152E0F91217
:1047C3002156740402409474F212082474F3120EF6
:1047D30065EAFEEBFF8A82F583A3A3A3A3A3A3A3A6
:1047E300A3A3A3E0F50A901DC8E0700579BA024BB4
:1047F30008750801750900750C00750D007C087DAE
:10480300007900AA21AB221216A674051210D574E2
:1048130001124BD25404601274021210D5E0D2E696
:10482300124BD254087003750803E05410600674E9
:10483300404508F508E05408602274021210D5E0E0
:1048430044C0124BD25420600A74031210D5E0D234
:10485300E0800874031210D5E0D2E1F0EE241512C3
:1048630057AD124B3870037401697006740845081C
:10487300F5088E828F83A3A3A3A3A3A3A3A3E070AE
:104883001612225285218285228312619F7402129D
:1048930010D5E0D2E28030640F701074021210D58C
:1048A300124BDA74044508F508807F8E828F83A348
:1048B300A3A3A3A3A3A3A3E064028E828F83700A9E
:1048C300126E6FE8F0A3E9F08060A3A3A3A3A3A3F0
:1048D300A3A3E06403700DAC21AD22EEFAEFFB124B
:1048E300200680468E828F83A3A3A3A3A3A3A3A39F
:1048F300E064017035901C0FE0601074021210D553
:10490300124BDA750910750AFF801874021210D55C
:10491300E0440C124BCA74FDF0A374FFF074044519
:1049230008F5088E828F8312311FEE24151257ADBE
:10493300A2E0503F74021210D5E0540C701B8E821B
:104943008F83124D58121C88E9700579BB024B08FE
:1049530074021210D5E0D2E5F0EE24151257ADA281
:10496300E0501074021210D5E0540C64047004E09B
:10497300D2E5F0EE24111257ADC0E074041210D545
:10498300D0E01266AA1210D5E06003024B0174084E
:104993001210D5124B93E508F0A3E509F0124B2E44
:1049A300E0C0E0124B24D0E0F0124B15E0C0E074FD
:1049B300081210D5124B501244D538F583D0E012AB
:1049C3004BF964017011901C0FE0C0E074081210E1
:1049D300D5124B6ED0E0F074081210D5124B8E1224
:1049E3004B1FFAE8241CF582E439F583EA124BC520
:1049F300EE2415FAE43FFB8A82F583127696E812D9
:104A03005AE939F583124BBFEE241C1257ADC0E0AF
:104A1300124B0BD0E0125C2F124B387003740169F8
:104A2300701374081210D512547AFAEE241D12571B
:104A3300ADF9121EDA8E828F83A3A3A3A3A3A3A32C
:104A4300A3A3E0C0E074081210D5124651D0E0F0E1
:104A530074081210D5124647E50AF074081210D5EF
:104A630012530D2428F582E439F583E50CF0A3E510
:104A73000D124BA5124B78125826126192EE124B6F
:104A83001FC0E0E82433F582E439F583D0E0F0EE8B
:104A9300241B1257ADC0E074081210D5124B54D02A
:104AA300E0F0EE241A1257ADC0E074081210D512CC
:104AB3004B502432F582E438F583D0E0124B9D123B
:104AC3004B44120DB51268A8127696740B1210D5CA
:104AD300124B50242F127B72120DCCEE2415125759
:104AE300AD54406012901B9B12536A600AAA21AB1B
:104AF30022125F891227D9AA21AB22122078740CC3
:104B03001210D5E0F9024E3FE82420F582E439F58E
:104B13008322EE2419F582E43FF583221268B7E07D
:104B230022E82412F582E439F58322EE2418F58273
:104B3300E43FF583225480F8A3E05401F9748068BC
:104B430022F508A3E0F509750A00780822124B64E0
:104B530022124B642434F582E438F58322A3A3A301
:104B6300A3124B6822E0F8A3E0C822124B6412445C
:104B7300A438F58322FAA3E0FBE8242AF582E4397A
:104B8300F583EAF0A3EB22A3A3A3A31240A2EE2290
:104B93001253111252F139F58322F0EE24131258F5
:104BA3002E22F0EE240D12582E22E0FC8A828B83F3
:104BB300E02CFCA3E03400FD8A828B83ECF0A3EDB0
:104BC300F022F0A3E4F022F085218285228322F0F3
:104BD300EE241512582E22E0D2E3F0124BE2228E7D
:104BE300828F831240A6852182852283E8F0A3E980
:104BF300F022E8F0A3E91262E5E02274F712082438
:104C03008A828B83A3E0640170047E6380027E64E6
:104C13008A828B83E060087905124C3224F3FE907C
:104C23001BB7E06007F9124C3224F2FE02471F1251
:104C33002120E9F8EEC3982274F612082474FE12B8
:104C43000E6585218285228312619FE9FEECFAEDD0
:104C5300FB90058212536A6032A821A92288088931
:104C6300097808120DB97D01740E1210D5E0FCEE1F
:104C7300F99005821261731227D97402120DCCEADE
:104C83004B60047900800679B2800279B6024092C3
:104C930074F7120824E9FE901B7112536A601F74A3
:104CA300091210D5E0F5087808120DBDEEF9901B36
:104CB300711261731227D97401120DCC800279B677
:104CC30002474374F71208248908ECFEEDFF79B517
:104CD300E508245E602014600624F86034803D906B
:104CE3000584124D226035126EB31227D98E828F3E
:104CF3008312619F8024901B73127696EC4D601C87
:104D0300EEFCEFFD901B731261731227D9E9F98052
:104D13000B901B6F124D281218567900024743124D
:104D23004D5CEA4B2212769AEEFAEFFB2274F712ED
:104D33000824E9FE79B574AB6E700B901B6F124DAE
:104D43005812185679000247438E828F83A3A3A378
:104D5300A3A3A3A3A3124D5C22124D6022E0FAA3E6
:104D6300E0FB2274F1120824EAFEEBFF8C0A8D0BA0
:104D7300750801901BBFE06E7003A3E06F700C1207
:104D83004E33AA0AAB0B121856805E122258EE6AF3
:104D93007002EF6B7009AA0AAB0B12225E804AAC59
:104DA3000AAD0BEEFAEFFB121DAEE9F508901DBF3D
:104DB300E070361226E4E97030E508702C901B8F02
:104DC300E06E7003A3E06F7020EE4F601C750C87DC
:104DD300750D1B750E00780C120DB57C087D00AAAD
:104DE3000AAB0B126E5F120DCCA90802779274F214
:104DF300120824EAFEEBFF8C088D09750A01124E96
:104E030033EEFAEFFB121850E964017011901BBFE7
:104E130012409E850882850983126E38800EAC0885
:104E2300AD09EEFAEFFB121DB4E9F50AA90A8011E8
:104E330012224C8A0C8B0DAC0CAD0D22740D120D8D
:104E4300CC7F06020B5874F6120824EAFEEBFF7AB5
:104E53000D7B00121754EA4B6062EE2424126B3C64
:104E6300F0EE2425126B3CA3124F01126B42A3A355
:104E73001268D5124EDCF0EE124EC2124EF1E8F07B
:104E8300A3E9124F18124EE9126E38EE124ECB12EE
:104E93006998A3A3A3A3F0EE24331257ADC0E01285
:104EA3004ED4D0E01266C7124EE9A3A3A3E8F0A341
:104EB300E9124F10C0E012548AD0E0F00240972468
:104EC3002AF582E43FF58322242EF582E43FF5831D
:104ED30022EA1259033BF58322124EE022E08A8232
:104EE3008B83A3A3A3221269F7A3A3A3A322124E26
:104EF300F5221240A68A828B83A3A3A3A322F012D6
:104F03004F0622EE2426F582E43FF58322F0EE24B9
:104F13003212582E22F0EE242C12582E2274F41240
:104F2300082474FE120E65ECFEEDFFEC24161257F6
:104F3300AD64057010EC2406FCE43FFD122000E98B
:104F43007003024FCCAC21AD22126BF1121C8E8583
:104F5300218285228312536A606B8E828F83E06481
:104F6300017058E875F009A4F8AAF075F009E9A4EE
:104F73002AF974E828F8740839F9E8FAE9FB888211
:104F8300F583780812107EEE12506E12101240272D
:104F9300852182852283124B8E1257BB124FD17803
:104FA3000812107E90872A7808120F498A828B8311
:104FB300780812106F800A79A28010EE240F126E07
:104FC300327900800679A1800279C802320A124B35
:104FD300EFEE1268C32274F21208248A0C8B0DECD4
:104FE300FEEDFFEC1257BBE4F0A3F09087067808C0
:104FF30012107EEC12506E120E916067EC240E12AA
:1050030057B4703478B3901BB6E07028901BE8E077
:1050130064017020EC24111257ADF91221088B0999
:10502300A909EE1252ED3F12619DEA49600478002E
:10503300800278A18808802EE060046402700A125E
:105043002012E9F5087007801DE064037010EEFC80
:10505300EFFDAA0CAB0D121CB2E9F5088008750828
:10506300A180037508A3A908024E441268C37808F7
:105073002274F012082474F5120E65EAFEEBFFEABF
:10508300240AFCE43F8C82F583127B331252F774BB
:1050930003120E5D8A828B83125F93E970030251C0
:1050A3005D7401120E5D7403120E55121C8E740191
:1050B3001210D512536A700302515DE875F009A40A
:1050C300F8AAF075F009E9A42AF974E428FC740835
:1050D30039FDE508240E1263E4E4F0041210D5123E
:1050E300409EE5081252ED3509126E368C828D838F
:1050F3001210B2E50824121263E41210BE90872A3C
:10510300780812107E8C828D837808120FA88C8207
:105113008D83780C12107E90878E780812107E781B
:105123000C79081207B5E5084509450A450B702AAD
:1051330074011210D512530D75F009A4F8AAF07575
:10514300F009E9A42AF974EC28F582740839F58387
:105153007401F07A007B0812531A8E828F83A3A303
:10516300A3A3A3A3A3A3A3A3E02406FCA3E0340067
:10517300FD8E828F83125F931266B5603EEE240A22
:105183001252DF124B937468124BC5E81252D9398D
:10519300F5837402F0901BA11210B28C828D8312DE
:1051A300618C125D7E3CF5831210BE90872A7808CD
:1051B30012107E901BA17808120FA8125355705D30
:1051C300901B6F125305A3A3A3A3A3A3A3A3A3A3FA
:1051D300125DB4121850E97010125D72901B6F12B9
:1051E3005D8470051266B560348E828F83A3A3A39A
:1051F300A3A3A3A3A3A3A3125305124D58121CB830
:10520300E960118E828F83A3A3A3A3A3A3125341A7
:10521300E4F0A3F08E828F83125327E4F0125355E8
:1052230060030252D48E828F83A3A3A3A3A3A312EA
:105233007B2F901BB6E060030252C9901BE8E06429
:105243000160030252C9750A3A750B00780A120D00
:10525300B97402120E4D880A890B780A120DB9121D
:10526300712E120DCCE9705BE508240E1263E47411
:105273000112536FC0E0E50824111263E4D0E0F09B
:10528300E508240F1263E4743A124BC5901B9D1278
:1052930010B2E50824121263E41210BE90872A7834
:1052A3000812107E901B9D7808120FA890872A7809
:1052B3000812107E901B9D7808120E9170081253ED
:1052C3001680031252F71253557006125C7574A1BF
:1052D300F0740B026A67240EF582E422F8E43FF9C6
:1052E300E8FCE9FD8882F58322EA1252F122240FB9
:1052F300F582E422E5081252F13509F583E4F0A3BF
:10530300F02212769A8E828F832212531122124038
:10531300A6E8227A007B02901A48E0F91216FA22D4
:105323008A828B83A3A3A3A3A3A3A3A3A3A312539D
:105333003522124B68240EF582E438F58322A3A3A9
:10534300A3A312534922124B68240FF582E438F5C4
:1053530083228E828F83A3A3A3A3A3A3124B6024D0
:105363000FF582E438F58312531149221253732245
:10537300F0852182852283E02274F6120824EAFE56
:10538300EBFF7A237B00121754EE240AF508E43F5F
:10539300F50985088212619D7C237D007900121630
:1053A300A685088285098312536A700302543DEE71
:1053B300FAEFFB12201E12535560748E828F8312F4
:1053C300547064018E828F83A3A3A3A3A3A3700746
:1053D300125466740E802112536A70101266B570EF
:1053E3000B8E828F83A3A3E0A2E0500712545C7458
:1053F3000D800512545C74051266C7540364017072
:10540300071254447405800B901BB7E0C0E012549C
:1054130044D0E012547FF58388821257DA850882DC
:10542300850983124B5012613138F583E9800E856B
:1054330008828509831262168003126159F00240C3
:10544300978E828F83A3A3A3A3A3A3A3A3A3A31230
:10545300545622E0126178A3228E828F83A3A3A3E2
:10546300A3A3A3124B6012613738F58322A3A3A32E
:10547300A3A3A3A3A3A3A3125335E022125483220D
:10548300126C06F8A3E022EA1254923BF58322241D
:105493000CF582E42274F112082474E4120E658A76
:1054A3000C8B0D8C088D097A237B001217548A0A02
:1054B3008B0BAE0AAF0BEA4F700302579512613D97
:1054C300E50824151257C6687003A3E0698E828F1E
:1054D300837004740280027401F0E508240DF8E47B
:1054E3003509F98882F583E0FAC3E49AFA95E0FB7B
:1054F3001257C22AFAA3E03BFB8E828F83A3A3A396
:10550300A3125D9B8E828F83A3A3F0EE2420F582EA
:10551300E43FF583E4F0EE2421F582E43FF583E4F0
:10552300F0EEFAEFFB1220D2850882850983125729
:10553300E170098E828F83A374058006901BB712D6
:1055430057CFF0EE2417F50AE43FF50B8E828F83D5
:105553001257DAE9850A82850B83F0EE2416F8E404
:105563003FF9E508240EFAE43509FB8882898312A2
:105573004BADE5082410FAE43509FB850A82850B57
:1055830083E0FC88828983E0F88A828B83E0C39876
:10559300C39CF812581BF0EEFCEFFDAA0CAB0D12E6
:1055A3002018E9F50B8E828F83E064027006125D8A
:1055B3007212579FE50B600302578C750C00750D33
:1055C30000901DBFE064016005E06402703F125764
:1055D300B16008EE24211257B470328E828F83A3F8
:1055E300A3A312615F1257E7EE24161257AD1258A8
:1055F30010FAE439FB123E9FEA4B60111269C112A3
:105603000DB51257F5AA0C126E5F120DCCEEFAEF20
:10561300FB1220DEE9F50B901DBFE064016008E09A
:105623006402600302577FE9700302577FE50C456C
:105633000D700302578C8003850E0B1257B1600B5C
:10564300EE24211257B46003025785850B0E850C97
:1056530008850D09750A007808120DB51257F58EE5
:10566300828F83A3A3A3A3127B78120DCCEE2420F5
:105673001257AD600D1257BA7468124BC5EE242051
:105683008015EE24211257AD60151257BA7403F03A
:10569300A37401F0EE2421F582E43FF583E4F0EEF8
:1056A300FAEFFB1220DEE9F50B70907C137D007995
:1056B300007409120E551216A6741A1210D574012D
:1056C30012582664687002A3E0704F8E828F831293
:1056D3005341E06405600302563B7C0879FF8E82E8
:1056E3008F83A3A3A3A3E0242A125DB7121730E983
:1056F300700302563B7C087D0079FF7401120E553E
:105703001216A67401120E5D7A007B0079AB121F8C
:10571300FA74191210D574FC80151257BAE0640399
:105723007004A3E06401700874191210D574FFF0BB
:10573300E4F508F5097808120DB97402120E5D74C8
:10574300131210D5AA82AB8312629C120DCC852151
:1057530082852283E0602B7409120E4D8808890923
:105763007808120DB97508137509007808120DB978
:105773007C007D00126B0F120DCC8006E50C450DED
:105783006007AA0CAB0D12175AEEFAEFFB12175A69
:105793008003750B10A90B741C02778FEE2406FA95
:1057A300E43FFB12185622EE240C12582E22EE244C
:1057B3002012582E640122EE1252F13FF58322E5A6
:1057C30008240EF582E43509F583E0221257D4A3A9
:1057D30022E08E828F8322A3E0F912212022E0545B
:1057E300036401221257EB22E0FAE82AF8E43400BA
:1057F300F9228E828F83A3A3A31261631257EBEE68
:10580300241612582E125810FCE439FD22FAE82A05
:10581300F8E439F9E824042212581F221266D6A3A9
:10582300A3A322F012582B22EE240FF582E43FF5B6
:1058330083E0227901020D7C74F4120824EAFEEB62
:10584300FF8A82F583A3A3A3A3A3A3A3A3124B500D
:105853002424F582E438F5831257E1702E8A828B73
:10586300831254707025125909E06405701D125992
:1058730009A3E0F8740168600574066870071253A1
:1058830023740280051253237403F0EA240A12627C
:105893000A126173E4F0EA2408F8E43F1231F924B0
:1058A30031F582E43AF583E0C0E0126EAAA3A3D0F7
:1058B300E0125928CA242EF582E43AF583E0C0E0C9
:1058C300126EAAA3A3A3D0E0125E4EC812590338E6
:1058D30012409C126EAA12591D8A0A8B0BAC0AAD98
:1058E3000B850882850983125DB4121856850882D8
:1058F300850983124D581220DE126205F002320F21
:10590300240BF582E4228A828B83A3A3A3A3A3A3FC
:10591300A3A312669CF583888222A3A3A3A3124B9D
:10592300EF12224C22125D90FAA3E022025836C0F5
:1059330082C083901B917424F0A37420F0901B9376
:105943007430F0A37420F0901B957436F0A3742088
:10595300F0901B97742AF0A37420F0025C3974F45E
:10596300120824EA2408FEE43BFF8E82F5831253D7
:105973000D126149E0F50874035508F509125DAF8E
:10598300F8A3E08882F583E508F0A3A882A983E55C
:10599300096009740265096003025A4E740C5508C4
:1059A300FC600A74086C600574046C7026740265EC
:1059B300097006E508A2E4401A8A828B83A3A3A395
:1059C300A3A3A3A3A3125B541268A23D125AEFA38D
:1059D30008A983740C6C701C125B502428125B3C66
:1059E3002428F582E43DF583A31264D0F0E8240271
:1059F300F8500109740265097006E508A2E4404BFA
:105A0300125B50242A125B3C242AF582E43DF58381
:105A1300A3125AFE125B5A1264D0125B5AA3125A93
:105A2300F6E82404F8500109EC600F74086C600A6E
:105A3300740C6C600574046C70111261802426F57B
:105A430082E43C125AEFA3A882A9838A828B83A3A0
:105A5300A3A3A3A3A3A3A3125B1E54037014E5087B
:105A6300A2E1400E126180125AE93CF583E05480B2
:105A73006008125B04125AF18019901B65E0C0E0C4
:105A8300125B04D0E0125B3188828983125B31049C
:105A9300125D95A3A882A983E508A2E750458E82EB
:105AA3008F83125B1E88828983125B37125B2354B8
:105AB3000360301261802434F582E43C1264CEF03A
:105AC300E508A2E1501D8A828B83A3A3A3A3A3A30A
:105AD300A3A31231FE2435F582E43A1264CEA3F077
:105AE300E8240302320F241EF582E422F583125ABE
:105AF300FEF022125AFEA3A3A3F022E08882898338
:105B0300228A828B83A3A3A3A3A3A3A3A3E0FCA3BF
:105B1300E0CC2432F582E43CF58322E0125B2322BD
:105B2300FCA3E0CC2425F582E43CF583E022F0904D
