:020000040000FA
:06000000020D8E0203A0B8
:03002B00020B05C0
:030033000207635E
:030053000202CFD7
:03006B0002071871
:03007B0002074138
:1000830002033101010000000000F8FF07FFFF0039
:10009300000504000000030001FFFFFF1410270008
:1000A300000020FD000206FFFF1E241600000000D2
:1000B300000000000000000000000000000000003D
:1000C300000001040000F719000000E8030000FF2E
:1000D300FF481A0188130000E8030000640064006D
:1000E300B801A0BB0D00A0BB0D0002020207040172
:1000F300051E02051E020A0A010108080103B80BC6
:1001030002803E0102FEFFE8030A050001FFFF0231
:100113000A011401E0050301010F030003000300BA
:1001230003000300030003000300030005000A00AB
:10013300140028004F009E00000029290000000041
:10014300FD2700000000FF000000FF0000120D9ECD
:10015300604F120DAD6012E7548066F6120C6970A1
:1001630011120E3B703B090909F4F618F618F6183C
:10017300F622120C417015120E4408080860EAE6D4
:10018300447FF618768018E4F618F622120E4460BF
:1001930016120E3B7012E4F608F608F608E65480D1
:1001A300F609090918181822EAC0E0EBC0E0ECC010
:1001B300E0EDC0E0E687F0A4FBACF008E687F0A42E
:1001C3002CFCE435F0FA1809E687F0A42C4B600206
:1001D3007401CA35F0FCE433FB09E687F0D2F7A4D7
:1001E3002CCB35F0FC1908E687F0A42BCC35F0FBBB
:1001F300E433FD0819E687F0D2E7A42C4ACB35F0A7
:10020300CD3400FC09E687F0D2E7A42DCC35F0FD10
:10021300E433FA0918E687F0D2F7A42CCD35F0CAF7
:100223003400FC08E687F0D2E7D2F7A42ACC35F0F5
:100233007A7E20E70B0ACB33CBCD33CDCC33CC3313
:10024300CB3350147004ED30E00ED2F1E4CD3DCD4C
:10025300CC3CCC3B5005DA05C2F1EB547FC63308E6
:10026300E63392F0FBE73309E733C39A502D2B7043
:10027300190C0D4C4D70151806E608C333700D208C
:10028300F10AA2F013F6E418800B4024E4F630F0F0
:1002930002768018F618F618F68024D33B14501013
:1002A30074FFA2F013F6187680E418F618F6800FA0
:1002B300A2F013F618E63303F618ECF618EDF6D0B1
:1002C300E0FDD0E0FCD0E0FBD0E0FA22C0E074F126
:1002D3001206B9A2AFE433F509D2AF85A708AFA1DF
:1002E300EF5508FE74105E600612109075A1EF744E
:1002F300085E600812109675A1F78024EFA2E092C1
:10030300F0E508A2E082F05017906198E0F89005BC
:10031300A3E0C398A2D265D0335002E8F075A1FEE2
:10032300752300E509A2E092AF7F020207D4C0E083
:1003330074F21206B9A2AFE433FED2AF9061A4E027
:10034300F8759B00E59158540860087591F71210F1
:10035300E48023E59158541060087591EF1210EA78
:100363008014E591A2E092F0E8A2E082F05007E069
:10037300C2E0F012124C9061A3E0F8E5E95854048E
:10038300600E12122275E9FB906193E0A2E640F23F
:10039300752300EEA2E092AF7F010207D4C0E074A0
:1003A300F21206B9A2AFE433FED2AF9061A5E0F832
:1003B300E5BF585404600675BFFB12126480D1C3B5
:1003C300E498F8E499F91204038026C3E49AFAE462
:1003D3009BFBE920E7E9120403E498F8E499F92286
:1003E300C3E498F8E499F9120403E498F8E499F95A
:1003F300C3E49AFAE49BFB22EB20E7CFE920E7E092
:10040300B90010BB0008E88AF084F8AAF022E4FBE4
:10041300C8FA22EB70227B10C833C8C933C93350E2
:1004230007C39AC3DBF280069A50012ADBEAC8337A
:10043300F4C8C933F4C9FA2275F008E4C833C8C94B
:1004430033C933C99AC99B5004C92AC93BD5F0ECB7
:10045300FBC833F4C8E4C9FA221204A730F03912F6
:1004630004EC80341204A720F01430E72B74FFFC53
:10047300FBFA747F8022E4FCFBFA7480801AB48058
:1004830008BC00F2BB00EF800F50EBF9E4C39AFA0B
:10049300E49BFBE49CFCE499C6CC18C6CB18C6CA03
:1004A30018C6F922E4C9C608CAC608CBC6D33303A3
:1004B30008CCC63392F0C3947F402E94184019C9D8
:1004C300B90704CACBCC225025C309CA33CACB33DC
:1004D300CBCC33CC33D9F422F4600DC9CCC313CBCA
:1004E30013CBCA13CAD9F6CC22E4FCFBFA2214FCC0
:1004F300FBFA22080808EAC0E0EBC0E086F0E7A4B4
:10050300FA180986F0E7A42AFA180986F0E7A42A5C
:10051300FA180986F0E7A42AFA1986F0E7A4FBE59E
:10052300F02AFA190886F0E7A42BFBE5F03AFA194A
:100533000886F0E7A42BFBE5F03AFA18180986F0D1
:10054300E7A4C5F02BFBE43AFA1908E7C5F0C6A403
:1005530026F6E5F03BFBE43AFA1886F0E7A4F6E565
:10056300F00826F6E43B08F6E43A08F6D0E0FBD0C0
:10057300E0FA22E4CFC0E0E4CEC0E0E4CDC0E0E4A2
:10058300CCC0E075F020E626F608E633F608E6333D
:10059300F608E633F6181818EC33FCED33FDEE33AA
:1005A300FEEF33FFC3EC9709ED9709EE9709EF9739
:1005B300191919400FFFEC97FC09ED97FD09EE9708
:1005C300FE191906D5F0BFECF709EDF709EEF709A7
:1005D300EFF7191919D0E0FCD0E0FDD0E0FED0E030
:1005E300FF222521C582C0E0E52234FFC583C0E098
:1005F300E521C3958224F810AF08858322858221E3
:100603008008858322858221D2AFCEF0A3E520F036
:10061300A37808E608F0A3DEFAEFF0A3E58124FA55
:10062300F8E608F0A3E608F0A3E608F0A30808E656
:1006330008F0A3E608F0A315811581D0E0FED0E011
:10064300F8158115811581E8C0E0EEC0E022120E95
:1006530026B900030206A3E490050178E379188024
:1006630002F0A3D8FCD9FA78239000867A01BA0065
:10067300028007E493A3F608DAF97AE37B1C90007F
:100683008778C979018015E493A3AD82AE838A820A
:100693008B83F0A3AA82AB838D828E83D8E9D9E7BB
:1006A3007582E37583BA7404120AE77582587583F9
:1006B300247400120AE7C0D02521C582C0E0E522D8
:1006C30034FFC583C0E0E521C3958224F310AF084E
:1006D3008583228582218008858322858221D2AF6A
:1006E300C8F0A3E9F0A3EAF0A3EBF0A37908E709C4
:1006F300F0A3D8FAECF0A3EDF0A3EEF0A3EFF0A390
:10070300D0E0F0A3D0E0F0A3D0E0F0A3E520F0A385
:10071300E5F0F0A322C0E074F21206B9A2AFE4330D
:10072300FED2AFE589547C6003120FCA538983C29A
:10073300C5752300EEA2E092AF7F010207D4C0E0AB
:10074300C0D0E8C0E0A8A8D2AFE58A858A8AC2EB08
:10075300752300E8A2E792AFD0E0F8D0D0D0E03222
:10076300C0E0C0D0E8C0E0A8A8D2AFE58B858B8BF2
:10077300C2E880DCE9799EC608CAC608CBC608CCA5
:10078300C6C370207996CACBCC7019798ECBCC7046
:10079300137986CC700EF9802ACA33CACB33CBCCFB
:1007A30033CC331930E7F2CCCBCA3350147004EA9C
:1007B30030E00DE4CA3ACACB3BCBCC3CCC50020967
:1007C300C3E913C6CC182313C6CB18C6CA18C6F977
:1007D30022852283852182E0C0E0A3E0F9A3E0FA29
:1007E300A3E0FBA37808E0F608A3DFFAE0FCA3E0AC
:1007F300FDA3E0FEA3E0FFA3E0C0E0A3E0C0E0A30D
:10080300E0F5D0A3E0F520A3E0A3F5F010AF088551
:1008130083228582218008858322858221D2AFD0DD
:1008230082D083D0E0F8D0E03275F0108E248F258B
:10083300858229858328852182852283E0CEA3E0D2
:10084300CF852982852883EBC9EAC8EDCBECCAC3DF
:10085300E833C8E933C9EA33CAEB33CBC3EA9EF5BD
:1008630027EB9FF526B35004AB26AA27EC33CCED38
:1008730033CDD5F0DAAE24AF2522D083D082ECC0BD
:10088300E0EDC0E0E493A3FCE493A3FDED4C600D25
:10089300120955EC24FFFCED34FFFD80EFE493A334
:1008A300FCE493A3FDED4C600D1209F2EC24FFFC74
:1008B300ED34FFFD80EFD0E0FDD0E0FCE493A3C076
:1008C300E0E493C0E022852283852182E0A3FEE059
:1008D300A3F5207808E0A3F608DFFAE0A3FFE0A37E
:1008E300C0E0E0A3C0E0E0A3C0E0E0A3C0E0E0A379
:1008F300C0E010AF0885822185832280088582218C
:10090300858322D2AFD083D082020AEDD083D082F6
:10091300E9C0E0E493A3C386F0C5F095F0F908E4D9
:1009230093A386F0C5F095F0700BE493A3C39940AD
:1009330005E9048002A3E475F002A42582F582E5AB
:10094300F03583F583D0E0F9E493A3C0E0E493C0EA
:10095300E022C0E0C3E49396087401939618400F15
:10096300E49366700808740193661870007019A305
:10097300A3C3E49396087401939618A3A3400DD0E0
:10098300E0D0E0D0E00208B9A3A3A3A3A3A3D0E0DF
:10099300227404800474028000CCC0E0EDC0E0E562
:1009A30021C39CCCAD2250011D10AF068C218D229A
:1009B30080068C218D22D2AF120A69D0E0FDD0E0EF
:1009C300FC2274028000CCC0E0EDC0E0E521C39CB2
:1009D300CCAD2250011D10AF068C218D2280068CD8
:1009E300218D22D2AF120A47D0E0FDD0E0FC22C015
:1009F300E0C0F088F0E49366700808740193661809
:100A03007000A8F0A3A3700BD0F0D0E0D0E0D0E04A
:100A13000208B9A3A3D0F0D0E022D083D082CCC007
:100A2300E0E493A36006120AA91470FAE493A360A6
:100A330006120BEC1470FAD0E0FCE493A3C0E0E4DC
:100A430093C0E022CAC0E0E493A3C582CCC582C5AB
:100A530083CDC583F0A3C582CCC582C583CDC583B1
:100A6300DAE5D0E0CA22CAC0E0E0A3C582CCC582E1
:100A7300C583CDC583F0A3C582CCC582C583CDC54F
:100A830083DAE6D0E0CA22C008C3E096F50808A3DB
:100A9300E096420808A3E096420808A3E0964508BA
:100AA3007001D3D00822C0E0E493A3D39C5010E498
:100AB30093A3C39C400AD0E0D0E0D0E0020A3AA35B
:100AC300A3A3D0E02270090808082260161818189A
:100AD300C6C333C608C633C608C633C608C633C63C
:100AE300D5E0EA22C09FF59FE473D09F22D083D044
:100AF30082C09FE493C0E0740193C0E0740293F555
:100B03009F22C0E0C0D0E8C0E0A8A8D2AFC2C7759A
:100B13002300E8A2E792AFD0E0F8D0D0D0E03225AE
:100B230021F58210AF08F521400C15228008F5212C
:100B330040021522D2AF8522832200C0D025211086
:100B4300AF08F521500C05228008F521500205223B
:100B5300D2AFD0D0227404800A740380067402805A
:100B6300027401C0E0F404120B22D0E0120DE9225A
:100B7300BB0102E722C082C08389828A83BB000350
:100B8300E08002E493D083D082226016080808C66E
:100B9300C313C618C613C618C613C618C613C6D5BC
:100BA300E0EA222521F8E43522F9222521FAE43569
:100BB30022FB222521FCE43522FD22C3E0C696F662
:100BC30008A3E0C696F608A3E0C696F608A3E0C617
:100BD30096F622252110AF08F521400C1522800836
:100BE300F52140021522D2AF22C0E0E493A36C703A
:100BF30009D0E0D0E0D0E0020A3AA3A3D0E022E09B
:100C030066701008A3E066700A08A3E06670040823
:100C1300A3E06622C3E09608A3E09608A3E0960843
:100C2300A3E096A2D265D03322E76670100809E7E5
:100C330066700A0809E76670040809E7662219194D
:100C430019E70947097009E727097005E733F42213
:100C53000922C3E096F008A3E096F008A3E096F01B
:100C630008A3E096F022181818E60846087009E66B
:100C730026087005E633F4220822C3E49396087429
:100C83000193960874029396087403939622C3E61D
:100C930097F60809E697F60809E697F60809E6972E
:100CA300F622E026F608A3E036F608A3E036F608B7
:100CB300A3E036F622E056F008A3E056F008A3E0DE
:100CC30056F008A3E056F022700422600D18C6C344
:100CD30033C608C633C6D5E0F41822E657F608092A
:100CE300E657F60809E657F60809E657F622E056EE
:100CF300F608A3E056F608A3E056F608A3E056F676
:100D030022E627F60809E637F60809E637F6080962
:100D1300E637F622E026F008A3E036F008A3E03633
:100D2300F008A3E036F022E647F60809E647F6089E
:100D330009E647F60809E647F622E4C396F608E40F
:100D430096F608E496F608E496F622600D08C6A225
:100D5300E713C618C613C6D5E0F322C6F4C608C601
:100D6300F4C608C6F4C608C6F4C622C3E796080943
:100D7300E7960809E7960809E79622C3E09608A3D1
:100D8300E09608A3E09608A3E0962275D00075814B
:100D93003F75210175220500020651E6084608C386
:100DA300134608336002E633F422E7094709C31305
:100DB3004709336002E733F422600C08C6C313C645
:100DC30018C613C6D5E0F422E6F008A3E6F008A39C
:100DD300E6F008A3E6F022E0F608A3E0F608A3E0B5
:100DE300F608A3E0F622CAC0E0E6F0A308DAFAD0D8
:100DF300E0FA22E0FAA3E0FBA3E0FCA3E0FD22EA91
:100E0300F0A3EBF0A3ECF0A3EDF022E0F8A3E0F9FC
:100E1300A3E0FAA3E0FB22E8F0A3E9F0A3EAF0A33E
:100E2300EBF022E5C754F84401F5C77901222521E7
:100E3300F582E43522F58322E72719471947194735
:100E430022E62618461846184622C2AF75D69F02D8
:100E5300000022120AF0DDAE04120AF0EDAE041215
:100E63000AF029AF04120AF086F101120AF002F225
:100E730001120AF035F201120AF063F201120AF0CC
:100E8300A1F201120AF0BEF401120AF0DAF401121F
:100E93000AF01FF501120AF0A4F501120AF0F0F5A9
:100EA30001120AF082F601120AF05AF701120AF04F
:100EB300B6F701120AF014F801120AF091F80112C0
:100EC3000AF0C7F801120AF012F901120AF038F910
:100ED30001120AF0C8F901120AF05FFA01120AF0CE
:100EE300ABFA01120AF0DCFA01120AF013FB011249
:100EF3000AF0A2FC01120AF06CFD01120AF03CFE9A
:100F030001120AF0209C04120AF0429C04120AF017
:100F1300629C04120AF0899C04120AF0D09D041208
:100F23000AF03E9E04120AF0049F04120AF09B9FEB
:100F330004120AF0EFFF02120AF0F4FF02120AF0A1
:100F4300F7FF02120AF0F5B104120AF0BCB2041260
:100F53000AF0CEB204120AF041B304120AF007C732
:100F630004120AF018C704120AF0B6C704120AF0F2
:100F7300C1C704120AF0D9C704120AF0FAFF021219
:100F83000AF095CC04120AF0E8C704120AF0F8C775
:100F930004120AF00DC804120AF0C1C804120AF0C0
:100FA30005C504120AF088C504120AF0EEC504123E
:100FB3000AF0CCBF04120AF0F4BF04120AF017C0FF
:100FC30004120AF08CC004120AF0D6C004120AF00C
:100FD30001C104120AF018C104120AF05F98041246
:100FE3000AF06D9804120AF0E69804120AF0BE990A
:100FF30004120AF0819B04120AF0D19B04120AF036
:101003000D9C04120AF0F87F00120AF0D9B80412FA
:101013000AF011B904120AF05CBA04120AF0E0BA39
:1010230004120AF0A78A04120AF0D38A04120AF0FF
:10103300178D04120AF0578D04120AF0978D0412CB
:101043000AF0AB8D04120AF0C48D04120AF0B68EB6
:1010530004120AF05B8F04120AF06F8F04120AF075
:1010630064BE04120AF088BE04120AF0A1BE041280
:101073000AF0D3BE04120AF003BF04120AF030BF11
:1010830004120AF03ABF04120AF09CBF04120AF0D9
:10109300ABBF04120AF0B5BF04120AF0C2BF0412B8
:1010A3000AF050AF04120AF070AF04120AF0AFAFA7
:1010B30004120AF0CAAF04120AF0E9AF04120AF0EC
:1010C3004FB004120AF058B004120AF0B5B004127B
:1010D3000AF0C4B004120AF0E8B004120AF0A9B18D
:1010E30004120AF0B6B104120AF0C7B104120AF0EE
:1010F300E7CA04120AF02FCB04120AF05BCB0412E6
:101103000AF0FC8504120AF0508704120AF05E8785
:1011130004120AF0718704120AF0868704120AF097
:101123009B8704120AF0AE8704120AF02288041285
:101133000AF0878804120AF00F8904120AF08B89D7
:1011430004120AF04F8A04120AF05F8A04120AF0AA
:101153006E8A04120AF04ECA04120AF072CA04120A
:101163000AF09ACA04120AF0C2CA04120AF052B46C
:1011730004120AF079B404120AF097B404120AF0C4
:101183000AB504120AF07EA604120AF097A6041206
:101193000AF0A3A604120AF0B7A604120AF0D5A611
:1011A30004120AF0DFA604120AF0E9A604120AF0F8
:1011B300FCA604120AF086A704120AF0FBA7041285
:1011C3000AF02FA804120AF07DA804120AF0CAA894
:1011D30004120AF0E5A804120AF0EFA804120AF0B8
:1011E30015A904120AF07AA904120AF0C7C8041256
:1011F3000AF0E9C804120AF07CC904120AF0DD7F80
:1012030000120AF05EEE03120AF088EE03120AF0EF
:10121300A5EE03120AF0B8EE03120AF0CEEE0312A3
:101223000AF02CEF03120AF064EF03120AF05CF3E6
:1012330003120AF0A1F403120AF0D4F403120AF021
:1012430037F503120AF0B0F603120AF0D8F60312C8
:101253000AF0EDF603120AF0FDF603120AF041F765
:1012630003120AF09CF703120AF0ACF703120AF018
:10127300D5C304120AF0EFC304120AF017C4041210
:101283000AF030C404120AF054C404120AF072C4FF
:1012930004120AF089C404120AF0B7C404120AF053
:1012A300D2C404120AF02B7F00120AF06F7F0012DF
:1012B3000AF0D39F04120AF0E39F04120AF0E8A095
:1012C30004120AF01AA104120AF04AA104120AF045
:1012D3006DA104120AF084A104120AF0BEA1041243
:1012E3000AF023A204120AF065A204120AF0A4A2CF
:1012F30004120AF0D5A204120AF000A304120AF0A1
:101303002EC104120AF040C104120AF054C204129E
:101313000AF057C204120AF003FF02120AF039FF5F
:1013230002120AF04FFF02120AF091FF02120AF0B2
:10133300A1FF02120AF0E5FF02120AF04078001240
:101343000AF0837800120AF0E87800120AF00579AF
:1013530000120AF0A77900120AF0B07900120AF01D
:10136300F57900120AF01E7A00120AF02B7A0012A5
:101373000AF0A67A00120AF0317B00120AF0767B9B
:1013830000120AF0C17B00120AF0267C00120AF058
:10139300497C00120AF0BA7C00120AF00F7D001299
:1013A3000AF04A7D00120AF07F7D00120AF0917D57
:1013B30000120AF0A37D00120AF0C27D00120AF0A7
:1013C300CB7D00120AF07E7E00120AF0C17E00126D
:1013D3000AF0FF7E00120AF084C204120AF0C4C3AA
:1013E30004120AF09CFF03120AF0A3B604120AF0D7
:1013F300D9B604120AF021B704120AF07AB804121B
:101403000AF0DEAA03120AF0F7AB03120AF031ACBA
:1014130003120AF0DFAD03120AF00DAE03120AF055
:1014230073B003120AF0B3B003120AF057B20312F7
:101433000AF0E7B203120AF03BB303120AF0DDB37A
:1014430003120AF01FB403120AF061B403120AF084
:10145300BEB503120AF00CB703120AF043B9031224
:101463000AF071B903120AF098B903120AF0A1B98C
:1014730003120AF0F8B903120AF093BA03120AF03E
:101483009BBD03120AF022BE03120AF0A6C904127E
:101493000AF0BEC904120AF0C8C904120AF01CCA31
:1014A30004120AF0838F04120AF0998F04120AF0CF
:1014B3003A9004120AF0799004120AF096900412FA
:1014C3000AF0C79004120AF0149104120AF047912B
:1014D30004120AF0829104120AF07D9304120AF0B6
:1014E300E59304120AF007C604120AF066C6041252
:1014F3000AF0A4C604120AF0E5C604120AF030CCBE
:1015030004120AF0D3CB04120AF0008002120AF08C
:101513000C8002120AF06E8002120AF07880021226
:101523000AF0098102120AF0458102120AF0FC81D5
:1015330002120AF04D8202120AF0E08202120AF04D
:10154300188302120AF0918302120AF062850212D2
:101553000AF05C8702120AF0788802120AF0BB894B
:1015630002120AF06A8A02120AF00A8F02120AF0C1
:10157300FD8F02120AF0A19002120AF0C690021225
:101583000AF0629102120AF0779102120AF09B911B
:1015930002120AF0099202120AF0269202120AF0CB
:1015A300509202120AF0EC9302120AF00D94021206
:1015B3000AF0B39402120AF0FB9402120AF0509557
:1015C30002120AF0F09502120AF0549602120AF07F
:1015D300B29602120AF0579702120AF0D397021238
:1015E3000AF0079802120AF0759802120AF0AA99F3
:1015F30002120AF01B9B02120AF0B89B02120AF0B5
:10160300F69D02120AF05F9E02120AF0899E0212F0
:101613000AF097A002120AF034A302120AF063A49C
:1016230002120AF0DCF703120AF0F4F703120AF0CD
:1016330011F803120AF066F903120AF01FFC0312F1
:101643000AF041FC03120AF033FD03120AF0BDFD58
:1016530003120AF00FFF03120AF0D6BC04120AF0B9
:1016630092BD04120AF034BE04120AF00080041280
:101673000AF08D8004120AF0068104120AF0A58193
:1016830004120AF0C68104120AF0A28204120AF0BC
:101693000F8404120AF036FF01120AF01A9603129D
:1016A3000AF0499603120AF0C19603120AF0C4978E
:1016B30003120AF0209803120AF0979903120AF012
:1016C300B39903120AF0059A03120AF0489A031217
:1016D3000AF05B9A03120AF0AD9A03120AF0689BB0
:1016E30003120AF0E29B03120AF00C9C03120AF0A5
:1016F300449C03120AF0C09D03120AF0999E031240
:101703000AF0E29F03120AF0B5A003120AF03DA10A
:1017130003120AF085A103120AF09FA103120AF033
:10172300E6A103120AF006A203120AF09CA2031216
:101733000AF022A303120AF07CA303120AF0C0A347
:1017430003120AF051A603120AF074A703120AF057
:10175300B0A703120AF0A2A803120AF0CAA8031240
:101763000AF0CDA803120AF0D7A803120AF0EAA8D8
:1017730003120AF069A903120AF09FA903120AF0DF
:10178300CBA903120AF0F2A903120AF016AA031254
:101793000AF087AA03120AF095AA03120AF0C8AA4C
:1017A30003120AF05ECB04120AF06ACB04120AF0A9
:1017B3009ECB04120AF0FDFF01120AF0008003120F
:1017C3000AF0238003120AF0698103120AF0B2813E
:1017D30003120AF01A8203120AF0788203120AF043
:1017E3007B8203120AF0C78203120AF03A830312C0
:1017F3000AF0C28303120AF0C58303120AF04F846E
:1018030003120AF0908403120AF0738803120AF099
:101813000C8A03120AF06A8A03120AF0E58D031296
:101823000AF01E8F03120AF08D9003120AF02B9117
:1018330003120AF0369203120AF0879403120AF095
:1018430071BE03120AF01BBF03120AF081BF031219
:101853000AF09ABF03120AF016C003120AF06CC012
:1018630003120AF0BCC003120AF023C103120AF0E8
:101873009CC203120AF0CAC303120AF04FC4031234
:101883000AF0B0E703120AF0FEC603120AF0A7C774
:1018930003120AF069C803120AF012CA03120AF00B
:1018A300BACB03120AF06BCC03120AF083CD0312F6
:1018B3000AF043CE02120AF0B7CE02120AF0FFCEAC
:1018C30002120AF043CF02120AF08CCF02120AF07E
:1018D300D6CF02120AF00ED002120AF08CD00212F6
:1018E3000AF0E6D002120AF03AD202120AF0CBD280
:1018F30002120AF0E2AD04120AF03DD302120AF01A
:1019030065D302120AF0BDD302120AF02CD60212DA
:101913000AF04BD602120AF02FD702120AF05FD850
:1019230002120AF0DCD802120AF02BD902120AF0D2
:101933008CD902120AF032DA02120AF000DC021227
:101943000AF000DD02120AF07EDE02120AF05FE006
:1019530002120AF0C5E202120AF075E402120AF05A
:1019630045E502120AF0B3E502120AF0CAE50212D3
:101973000AF0C2E602120AF0B2E702120AF01DE808
:1019830002120AF085A904120AF0D1AA04120AF07D
:101993008EAB04120AF0F2AB04120AF058A304123D
:1019A3000AF073A304120AF0B7A304120AF0DDA32A
:1019B30004120AF003A404120AF01BA404120AF08E
:1019C3007EA404120AF093A404120AF0B6A504122A
:1019D3000AF0BFA504120AF0C8A504120AF0D1A5A3
:1019E30004120AF0DBA504120AF0F29304120AF0BF
:1019F300F19704120AF0F69704120AF0F89704120A
:101A03000AF063BB04120AF069CC04120AF08AA834
:101A130002120AF0BDA802120AF029A902120AF062
:101A2300C4A902120AF061AA02120AF0A6AA0212BB
:101A33000AF0C8AA02120AF0E1AA02120AF007ABDE
:101A430002120AF029AB02120AF067AB02120AF083
:101A5300ABAB02120AF0CDAB02120AF02FAC0212AA
:101A63000AF0F6AC02120AF0ADAD02120AF01FAE94
:101A730002120AF0EAAE02120AF03DAF02120AF0B5
:101A8300A3AF02120AF0DDAF02120AF02FB0021266
:101A93000AF09DB002120AF008B102120AF00BB16B
:101AA30002120AF08CB102120AF023B202120AF0F7
:101AB300A3B202120AF0C2B202120AF026B4021250
:101AC3000AF033B402120AF03FB502120AF04CB521
:101AD30002120AF055B502120AF02DB702120AF0EB
:101AE30047B802120AF0C0B802120AF032B9021261
:101AF3000AF054B902120AF0E8B902120AF0BCBBA8
:101B030002120AF093BF02120AF0A7BF02120AF0F0
:101B1300B7BF02120AF0C1BF02120AF0CABF021213
:101B23000AF0D3BF02120AF0DDBF02120AF00AC0A4
:101B330002120AF033C002120AF03EC002120AF087
:101B430062C002120AF086C002120AF0F0C002124A
:101B53000AF036C102120AF053C102120AF0D0C1D0
:101B630002120AF007C202120AF046C202120AF077
:101B730093C202120AF019C302120AF0E7C4021256
:101B83000AF06AC502120AF04EC602120AF0B5C87C
:101B930002120AF00EC902120AF058C902120AF020
:101BA300B3CA02120AF0E8CA02120AF03ACB0212CE
:101BB3000AF0EFCB02120AF09ECC02120AF0DBCC41
:101BC30002120AF070CD02120AF0DCCD02120AF002
:101BD300832B00120AF0B52B00120AF0E32B00123C
:101BE3000AF0B92D00120AF0992E00120AF0F12E14
:101BF30000120AF02C3000120AF0783000120AF0BA
:101C0300A13300120AF0943600120AF0E4370012EE
:101C13000AF07A3800120AF0863800120AF0B8384F
:101C230000120AF03B3A00120AF0EC3B00120AF0F1
:101C3300803C00120AF0C33C00120AF0413D00123E
:101C43000AF05E3D00120AF08E3D00120AF0C33D19
:101C530000120AF0933E00120AF03C3F00120AF011
:101C6300C24100120AF0E24200120AF0CD43001210
:101C73000AF04F4400120AF0834800120AF0C048E9
:101C830000120AF0184900120AF04B4900120AF038
:101C9300B54900120AF0EB4900120AF0764A001225
:101CA3000AF0CE4A00120AF0A54B00120AF05E4C6D
:101CB30000120AF0F94C00120AF0015000120AF067
:101CC3001D5100120AF0C05400120AF0B45500125C
:101CD3000AF0B75500120AF0E65500120AF0EC5765
:101CE30000120AF0C55800120AF0085900120AF04F
:101CF3005E5A00120AF09D5A00120AF0265B001287
:101D03000AF05A5B00120AF01F5C00120AF0375EF9
:101D130000120AF0A85E00120AF0E85E00120AF050
:101D2300765F00120AF0986000120AF05A610012FE
:101D33000AF0616300120AF0796300120AF08D63FE
:101D430000120AF0C56300120AF0F36300120AF0EE
:101D5300726500120AF0976600120AF0F466001228
:101D63000AF0A66700120AF0CD6700120AF0946821
:101D730000120AF02C6900120AF0526B00120AF0EA
:101D8300876B00120AF0EA6B00120AF0196D001259
:101D93000AF0C16D00120AF0F26D00120AF00A6E29
:101DA30000120AF0996E00120AF04D7100120AF047
:101DB300257300120AF0417300120AF05D730012DA
:101DC3000AF02B7400120AF01E7800120AF0A4879E
:101DD30001120AF0D68701120AF0C58B01120AF02C
:101DE300118C01120AF0578C01120AF0F98C0112BE
:101DF3000AF0558D01120AF09A8D01120AF0E18E54
:101E030001120AF0F58F01120AF0E49301120AF0AD
:101E1300689401120AF0759501120AF0D195011226
:101E23000AF0C19701120AF0369801120AF040989D
:101E330001120AF04D9801120AF0789801120AF083
:101E43005F9901120AF0099A01120AF0879A0112A6
:101E53000AF0A79A01120AF0D09A01120AF0F29A34
:101E630001120AF0529D01120AF0189E01120AF0A3
:101E73005D9E01120AF0DA9E01120AF08B9F011295
:101E83000AF0BD9F01120AF003A001120AF03FA05D
:101E930001120AF08FA001120AF0E3A001120AF066
:101EA30039A101120AF085A101120AF0F2A101126F
:101EB3000AF06DA201120AF038A401120AF038A543
:101EC30001120AF05DA601120AF09CA901120AF0A0
:101ED300AFAC01120AF06CAD01120AF0B0AD011201
:101EE3000AF060AF01120AF074AF01120AF07EAF7C
:101EF30001120AF088AF01120AF094AF01120AF03E
:101F0300B0AF01120AF05BB001120AF09AB00112ED
:101F13000AF0A4B001120AF0AEB001120AF01EB129
:101F230001120AF069B101120AF07EB201120AF03D
:101F3300DAB201120AF05BB301120AF01AB4011209
:101F43000AF023B501120AF057B601120AF045B799
:101F530001120AF05DB701120AF0B8B701120AF0D4
:101F6300D6B701120AF01EB801120AF045B80112E1
:101F73000AF0E0B801120AF0A6B901120AF038BA61
:101F830001120AF0B2BA01120AF0CCBB01120AF034
:101F930079BC01120AF0A1BD01120AF0F1BD0112D0
:101FA3000AF055BE01120AF0B7BE01120AF0E5BEEF
:101FB30001120AF009BF01120AF03EBF01120AF032
:101FC3006FBF01120AF0A2BF01120AF0C2BF0112D1
:101FD3000AF02AC001120AF01EC101120AF079C1E7
:101FE30001120AF0A2C101120AF02AC201120AF078
:101FF300ADC201120AF0D8C201120AF0BDC3011228
:102003000AF0CCCE03120AF004CF03120AF025CF54
:1020130003120AF067CF03120AF0C9CF03120AF0C2
:10202300D3CF03120AF0E3CF03120AF01ED0031238
:102033000AF0FED303120AF0EBD503120AF0D1D74C
:1020430003120AF068D803120AF00AD903120AF03D
:10205300BFC501120AF03DC601120AF099C601126A
:102063000AF0E4C601120AF0FFC601120AF02AC7F9
:1020730001120AF047C701120AF053C701120AF00E
:10208300EAC801120AF003C901120AF088C9011251
:102093000AF09BC901120AF0BAC901120AF05ECA1A
:1020A30001120AF0DFCB01120AF092CD01120AF0FD
:1020B30028CE01120AF02BCE01120AF09BCE011298
:1020C3000AF0B9CE01120AF050CF01120AF098CFEC
:1020D30001120AF09BCF01120AF061D001120AF03B
:1020E300CED001120AF0F4D001120AF07FD101120E
:1020F3000AF09DD101120AF0E3D101120AF097D23E
:1021030001120AF0E1D201120AF010D301120AF00F
:102113006DD301120AF0A2D301120AF0CED3011239
:102123000AF0DCD301120AF029D401120AF099D47F
:1021330001120AF0E2D401120AF02ED501120AF0BC
:102143005AD501120AF065D501120AF083D501129E
:102153000AF06ED601120AF078D601120AF0B3D64D
:1021630001120AF0C3D601120AF0CCD601120AF00A
:1021730020D701120AF034D701120AF063D80112F2
:102183000AF07AD801120AF08FD801120AF01DD989
:1021930001120AF062D901120AF0EED901120AF013
:1021A300F9D901120AF03BDB01120AF056DB0112E6
:1021B3000AF0A2DB01120AF011DC01120AF04ADC78
:1021C30001120AF064DC01120AF0A6DC01120AF023
:1021D30076DF01120AF023E001120AF090E0011207
:1021E3000AF0D0E201120AF0E8E201120AF0EBE28F
:1021F30001120AF0F7E201120AF00BE301120AF0EE
:1022030013E301120AF046E301120AF048E4011253
:102213000AF0CFE401120AF03FE501120AF0C1E52A
:1022230001120AF082E601120AF0A1E601120AF095
:1022330042E701120AF09FE701120AF0A2E7011236
:102243000AF0CFE701120AF0E4E701120AF058E8B6
:1022530001120AF0A7E901120AF0ADEA01120AF02D
:1022630038EB01120AF053EC01120AF01BED0112D4
:102273000AF04CED01120AF06FED01120AF078ED4D
:1022830001120AF0A7ED01120AF037EE01120AF06B
:10229300EDEE01120AF062EF01120AF009F00112E9
:1022A3000AF07EF001120AF0B5F001120AF0F3F021
:1022B30001120AF029F101120AF0B9E503120AF03A
:1022C3000CE503120AF09EE403120AF0D3FE021295
:1022D3000AF0C9FE02120AF05EFE02120AF0B2FC14
:1022E30002120AF070FC02120AF090FB02120AF0CA
:1022F3007AFB02120AF0DFAC04120AF09AAC041261
:102303000AF03BFB02120AF096FA02120AF066ACDC
:1023130004120AF018EE03120AF092F702120AF0FE
:1023230080F502120AF04DF502120AF0E8F40212E7
:102333000AF07BF402120AF03AF402120AF073F381
:1023430002120AF00EF302120AF0B9F202120AF0B4
:102353005CF202120AF033F102120AF0D0F0021218
:102363000AF01AF002120AF015F002120AF009F04C
:1023730002120AF0BCEC02120AF096EC02120AF006
:10238300E0ED03120AF089ED03120AF0F2EB0312F7
:102393000AF034EB03120AF097EA03120AF08DEA0B
:1023A30003120AF037EA03120AF03BEC02120AF0B6
:1023B300E6EB02120AF0A7EB02120AF094EB021208
:1023C3000AF023EA03120AF089EB02120AF065EB22
:1023D30002120AF0A0E902120AF01FE902120AF03F
:1023E30082E903120AF0DBE802120AF023D3021295
:1023F3000AF0B4E802120AF040E403120AF002E41D
:1024030003120AF0D5E303120AF0A1E303120AF060
:1024130040E303120AF028E303120AF004E3031271
:102423000AF0CDDF03120AF099DD03120AF080DB14
:1024330003120AF00FDB03120AF0BEDA03120AF0EA
:1024430078DA03120AF086E803120AF0E1D90312DC
:102453000AF055C60300000080FBE4738F000100FF
:10246300701D870001006E1D35000400371D250017
:1024730002003B1D260002003D1D270002003F1DF8
:1024830028000100491D290001004A1D84000400A1
:10249300D31A86000100F11C2A0001004B1D2B00FA
:1024A30001004C1D2C000100501D2D000800DF1AF7
:1024B3002E000100511D2F000100521D30000100AC
:1024C300531D31000100541D32000100E71A33008F
:1024D3000100E81A34000100551D36000100E91A15
:1024E30038000100561D390001004F1D8300020012
:1024F3006C1D63000100F51A640001004D1D6500A9
:1025030001004E1D6D000100F61A71000800D71A74
:10251300660001006B1D430001005C1D44000200C6
:102523005D1D450001005F1D46000200601D470060
:102533000800ED1A48000100621D4B000100631DF5
:10254300040001006F1DA1000100731D370001008D
:10255300721D88000100711D3C000100EA1A3D0054
:102563000100571D49000200641D67000100F71AAE
:102573004D000200661D4E000100681D4F00020061
:10258300691D3E0001005B1D51000100EB1A520062
:102593000100591D530001005A1D54000100EC1A9B
:1025A300000000000000070000003023C8180700E7
:1025B30010003023B418070000003023C9180700A7
:1025C30010003023B518070000003023CA18070095
:1025D30010003023B618070000003023CB18070083
:1025E30010003023B718070000003023CC18070071
:1025F30010003023B818070000003023CD1807005F
:1026030010003023B918070000003023CE1807004C
:1026130010003023BA18070000003023CF1807003A
:1026230010003023BB18070000003023D018070028
:1026330010003023BC18070000003023D118070016
:1026430010003023BD18070000003023D218070004
:1026530010003023BE18070000003023D3180700F2
:1026630010003023BF18070000003023D4180700E0
:1026730010003023C018070000003023D5180700CE
:1026830010003023C118070000003023D6180700BC
:1026930010003023C218070000003023D7180700AA
:1026A30010003023C318070000003023D818070098
:1026B30010003023C418070000003023D918070086
:1026C30010003023C518070000003023DA18070074
:1026D30010003023C6180001363601010001020143
:1026E30000010301000104010606050200000701C1
:1026F30000340801000F090401010D0100FF0E0859
:10270300000017020000190100FF1A0100011B015C
:1027130000FE1C0100081D0200001F010001200132
:102723000001210200002301000F24020000260102
:10273300000127010008280200FF2A0100072B01DE
:1027430002402C0100002D0100012E0100012F0188
:1027530000FF30010B1D310800003A0100083B0166
:10276300000F3C0100013D0100FF3E040000420454
:102773000000460400004A0400004E040000520416
:102783000000560400005A0400000000000020016D
:10279300A287000001002001A3870000020020019E
:1027A3009E870000030020019F8700000400420170
:1027B300A486000005004201618600000600420174
:1027C3005086000007003001A08700000040200170
:1027D300A3870000FDFF21019A8701002000200547
:1027E300F91C010021002005FA1C0700000030231A
:1027F300C718070010003023B31801037103010346
:102803000103010301030103220302030103100374
:10281300000300030003000300030003000342035B
:102823000003240306030003000304031203250328
:10283300230325032303040304030003000300030A
:10284300440300030003230300036503210035034E
:1028530081030003050300030003000300032503B2
:1028630023030302710230016002110270020102AC
:10287300020202028002100261023A004100630276
:102883007302720262024302000213023800000262
:10289300000204021202000200020002000204020B
:1028A3000402370037003C024402000239000002F0
:1028B3000002650200023502810200020502820263
:1028C30083020002010171010101010111010101F2
:1028D3003101010101018001100161013B0014007C
:1028E30063017301720162014301000113010601D7
:1028F3003D01350004011201000100010001000146
:1029030004010401330133013C0144013201360067
:10291300000100016501000135008101000105018D
:102923008201830100010300710030016000110086
:102933007000310220035004800010006100000089
:102943001400630073007200620043000000130070
:102953000600000000000400120000000000000058
:10296300000004000400370037003C02440000006C
:102973000000000000006500000035008100000039
:10298300050000008300000036000100060000007F
:102993000F0000000000000000000000000003FF23
:1029A300FF00000403FFFF0000FFFF0FF401000519
:1029B300C4040320000100140B0000000000000009
:1029C3000003010F000000000000000000000000F1
:1029D30000000000000000000000000000000000F4
:1029E300000000000000E2150C16E8152815EE158E
:1029F3001216EE151E16F4152815EE151216FA15F5
:102A03002815000000000016281500000000000033
:102A1300000006162815000000000000000000005A
:102A230000000000000000000000000000000000A3
:102A33000000000000000000000000000000000093
:102A4300000000006A1801006A180200E017028003
:102A5300DA170300E6170400EC170480F2170500E9
:102A6300F817060004183100161833001C18340038
:102A73002218FFFF000003000300040008001000F9
:102A83001F003E007B00F600EC01D703AF075D0F8C
:102A9300B91E713D000007ECFDFDFDECDCDCCCBC98
:102AA300ACAC9C9C8C7C7C6C6C5C5C5C4C4C3C3C13
:102AB3002C2C1C1C0A461E02101E051C1E07161E6B
:102AC3000CF81D0D041EFF000000160F00000B156F
:102AD3000B020002220F3300000E0FD0D1D2D3D449
:102AE300D5D6D7D8D9DADBDCDDDEDF5A69674265B4
:102AF30065416C6C69616E63653039140AE5D5C54F
:102B0300B5A5A5958585756500034D4C4651181AE5
:102B13002505020001191618161618230300303074
:102B230016181920231A1C1E30303017181921309B
:102B33001B1D1F30003C40423A3F3F392F47300CAA
:102B43000E020B040B0A0708000F02040201010125
:102B530001090200BE040AE8030000FA06E803FEC6
:102B63002A010003000E00992A03030A0C0401083A
:102B7300042828020C050908151E00FFFF0E041E79
:102B8300C082C083120E68901B2074E8F0A3741BEC
:102B9300F0901B2274EEF0A3741BF0901B2474F4CA
:102BA300F0A3741BF0901B2674FAF0A3741BF002BD
:102BB30058BE74F71205E5901B14E4F0E9901B135B
:102BC300F07CED7D1A7A157B1B1214F8901D62E0E0
:102BD300901B1DF0901B1E74D7F0A3741A023B4B7D
:102BE30074F01205E5EAFEEBFF54807003022D54E6
:102BF300901B13123BE07003022D4DEA241B125469
:102C03004B707CEA241F12544B64137002A3E070D0
:102C13006E8A828B83122DA2901B2E1249DD750AB8
:102C230000750B00800D123A21126ABD1213FCAA23
:102C33000EAB0FEA4B60488A828B83E0650C70040D
:102C4300A3E0650D702C8A828B83A3A3A3A3E0F575
:102C53000EA3E0F50FE50A450B8A828B83A3A3A39A
:102C6300A360C3123D23850A82850B83A3A3A3A379
:102C730080B78A0A8B0B8A828B831249D980B4E589
:102C830008242A12544BFCE5082402F8E43509F918
:102C9300E8FAE9FB901B2E122E89A3A3E0640270CD
:102CA3003C8A828B831249DD800B88828983A3A3AC
:102CB300A3A3123D23E849601F88828983E06A70D9
:102CC30003A3E06B70E488828983A3A3E06C70DACA
:102CD300901D6812577B806BECF9121C24850882C7
:102CE300850983E06401704FE5082418122D8B12C7
:102CF3000B64126065120994E5082412122D8B12DD
:102D03000B64E508123BD4120B60E508240B126038
:102D130069120998E5082417123B71E5082402FC9F
:102D2300E43509FDE5082419FAE43509FB12242EDC
:102D3300740A120B3D800CE064027007AA08AB0909
:102D4300121D02AA08AB09121360EEFAEF64808029
:102D53002DEA5402600C901D777401F0EA6402FAC4
:102D63008023EA5408601A121C1EEA4B700B901B56
:102D730030125F407A08122D98EE6408FAEFFB8058
:102D8300047A007B000266EFF582E43509F583E0FF
:102D9300F50A780A22FB901B13E0F91214C822A348
:102DA300A3E0F50CA3E0F50D227B00901B13E0F9E3
:102DB3001214BC74042274F41205E58A088B098A80
:102DC300828B83A3A3A31247D5123B7C38F583E000
:102DD3002409FA1266877003022E7C8A828B83741D
:102DE3000212484A850882850983122E89E8F0A3D6
:102DF300E91263018A828B83A3A3A3A3A3A3A3A33F
:102E0300F0E5082403F8E43509122E7E123B7C3AE0
:102E1300F583E08E828B83A3A3A3A3F0EE2409FAA8
:102E2300E43FFB8E828F83A3A3125A2DF5838882FE
:102E3300E0A2E58E828F83A3A3A3A3A3500474010E
:102E43008001E4F0E5082403F58289831249DDEA71
:102E5300124F5E3BF58312664E120B5C123B7B3BBB
:102E6300125B1F8E828F83A3A31277FD120B3DEE9D
:102E7300FAEFFB901B131266D48016F98882F58350
:102E8300E0FAA3E0CA22124B7AA3A3227402120B24
:102E93003D7F040208C974F21205E58A088B09EC28
:102EA300FAEDFB740E120E31E0FC120E9E8A0C8BAF
:102EB3000DAE0CAF0DEA4F6030AC08AD09120E8CAD
:102EC300E96026AC08AD09EEFAEFFB120E92E97049
:102ED300148E828F83123D10FAEFFB120E86AA081E
:102EE300AB09120EB67900800279B4024AC974F0B4
:102EF3001205E574F6120BD6EAFEEBFF8C088D097A
:102F0300750FB3852182852283E4F0750E0080025C
:102F1300050E902B74E493F8E50EC398400302303A
:102F230018AA0E7B00120EDA8A0A8B0BEA4B60E0BA
:102F33008A828B83A3A312301F28F0F8C3EE98EF85
:102F4300940050CC7C157D007900AA08AB091213BC
:102F530048850A82850B83A3A3A3A3126AFAE0F828
:102F6300EEC3982925E0F8E433F9E50A28F582E56C
:102F73000B39F583A3A3A3A3A3A3123B86A31255E3
:102F8300A28A0C8B0DAC0CAD0DAA08AB091214F878
:102F9300850A82850B83A3E06401700A126065745D
:102FA30001123B9880447401120BB6850A82850B8B
:102FB300831249DB120EC2E9603D7409120E31E03F
:102FC300C0E0126065D0E0F07409120E31E06403D2
:102FD30070137401120BB6E508240BFAE43509FBF0
:102FE3001214F880127401120E31123D23E50812F7
:102FF30055883509126ABB850A82850B8312607175
:10300300123B98A3A3E0C0E0E5082414126069D042
:10301300E0F0750F00A90F740A0266ECA3A3A3E006
:10302300F8852182852283E02274F71205E5E9FE03
:103033008A828B83A3A3A3A3A3A3E0540860338A48
:10304300828B83A3A3A3A3A3A3E0540260218A8258
:103053008B83A3A3A3A3A3A3A3A3A3E06406600FEB
:1030630074E96E600A74CD6E600574F06E700312BD
:103073001C060243C874F01205E574EF120BD674F4
:103083000F120E31125E247408120E31E9F0ECFEB9
:10309300EDFF7405120E311241901243B4A3E0F90F
:1030A300120EAA7406120E31125E247406120E3129
:1030B300124FEF7003023333123BC0E0FA7406126F
:1030C3000E31E0F9121B46123393F8A3E0F9E849F5
:1030D3007003023333EE2403F50AE43FF50BEE24C9
:1030E30006F508E43FF5097C00850882F58312495B
:1030F300DD850A82850B83E0F9120EB07403120E8C
:1031030031125E24850A82850B83E0C0E08521822B
:1031130085228312338CD0E0125104F985218285F4
:103123002283123A28124C56123022FAA3E0CA2400
:1031330007F582E43AF583E8F0A3E4125E2F240650
:10314300F582E438F583E4126AC71247C9120B5CAF
:10315300EE123B7C3F125B1F7403120E311247D5F4
:1031630024091277F7120B3D7429120E31126AF4F7
:10317300122E831251173A126ABB742B120E31E0CE
:10318300C0E0852182852283124FB6D0E0F074021D
:10319300120E31E4F07425120E317808120DDA02A2
:1031A300328A7403120E31125AE78882F58312337E
:1031B3007BA3A3A31255ADFB120EC8850E82850F08
:1031C30083A3EAF0A3EBF07403120E3112338CA342
:1031D30012337B1257BCA2E6500F850E82850F83F4
:1031E300A3A3A3A3A3E0D2E1F07405120E31E07010
:1031F3006B850E82850F83A3123D23901B6EE068BF
:103203007003A3E0697055850E82850F83A3A3A382
:10321300123B5B750C00780C120B647808120B5888
:103223007429120E31E0F50C780C120B647427121A
:103233000E31120998901B7B1209987900741912A8
:103243000E311249AD121D4A740A120B3D850E82CE
:10325300850F83A3A3A3A3A3E04405F07402120E76
:1032630031E004FC8E828F831249D78E828F83A331
:10327300A3A3E0F9120EB07403120E31125E24748C
:1032830002120E31E004F07403120E31124FEF609C
:10329300677402120E31E0FA7406120E31123D23E6
:1032A300C3EA98E49950517402120E3112366585BF
:1032B3002182852283E028F8A3E039F9E8240FF579
:1032C3000EE439F50F850E82F583E4F07403120ED4
:1032D30031123386640160030231A57405120E3185
:1032E30074011266DAF07403120E311258AE1236FC
:1032F30088E8F0A3E90231C9852182852283124936
:10330300DD121B4C852182852283120998742612B3
:103313000E31E0FD7425120E31E0FC740A120E31F9
:10332300E0F9EEFAEFFB121C007402120B3D80432E
:103333008E828F83A3A3A3E0C0E0740C120E31D05E
:10334300E0F0126543E0C0E0740D120E31D0E0F0FE
:103353007406120E31124FEF7009740E120E31748F
:10336300B98007740E120E317410F07409120BAE8B
:10337300121D4474110266ECE0850E82850F83A34F
:10338300A3A322E01250DCE022E01250DCA3A3222C
:10339300852182852283EAF0A3EB124FF82274F091
:1033A3001205E574E1120BD67404120E31E9F074C0
:1033B30003120E31ECF07402120E31EDF08A0E8B13
:1033C3000F742F120E31122DA4AA0CFB121B3A7488
:1033D30001120E31E9F0AA0CAB0D121B407401125D
:1033E3000E31E07003023660852182852283E480FA
:1033F300158E828F83A3A3A3A3A3E0D2E3F0852139
:1034030082852283E004126632F885218285228335
:10341300E0C39840030236577401120E31E0700383
:10342300023657852182852283123665E50C28F8FA
:10343300E50D39F9E8240FFEE439FF8E82F583A305
:10344300A3A3A3A3E0A2E040B5750800750A08751D
:103453000B007402120E31E060037508207C087DB6
:103463000079007405120BAE1213488E828F83E02D
:10347300603E901BBEE06401701AE508D2E3F508D4
:10348300750B10123675120E31E8F0A3E91254A031
:1034930074FF807643080C750A0C8E828F83A31207
:1034A3003680126ABD7405120E3174FFF0A3805A80
:1034B3007404120E31E06009E508D2E6F508750AD6
:1034C3000A8E828F83A3E064FE7003A3E0F470305E
:1034D3007412120E31740412608FF8741D120E31BF
:1034E300E812484A7412120BAE121A687D007C006F
:1034F30079007415120E31AA82AB83121852800B15
:10350300123675120E31E8F0A3E9F07407120E318A
:10351300E508F0123BB7C0E07409120E31D0E0F0B9
:10352300740A120E317401F07405120BAE121D08E9
:103533007411120E31E06003023635740D120E3130
:103543001250FF8E828F83A3A3A3A3F0740D120ED8
:1035530031124818E50AF0A3E50BF07403120E319B
:10356300E0C0E01247A9D0E01257BC6011901BBE27
:10357300E0C0E0740D120E311247F3D0E0F0740D89
:10358300120E31123D23850C82850D83A3A3A3A3C1
:10359300A312366E241C125E1E126AD712367012E4
:1035A300576E39126562C0E0124790D0E012662769
:1035B300C0E0740D120E311242D6D0E0126328C05F
:1035C300E0740D120E311242CCD0E0F0740D120EE5
:1035D3003112368012366E242A125E1E850E8285C3
:1035E3000F83A3A3A3A3A3A3A3A3E0125E17123B7A
:1035F300A6C0E01242B8D0E0F0740D120E311249A9
:10360300DD850E82850F8312663D2428F582E43B17
:10361300126ABB123BAF12664E120B5C125B18EAC6
:10362300125DB03B1277FB120B3D7405120BAE1209
:103633001D0E8E828F83A3A3A3A3A3E0D2E0F07415
:1036430011120E31E060030233F47401120E31E003
:10365300140234007900AA0CAB0D121C0C741F0267
:1036630066ECE075F007A4F8A9F022A3A31249E1E0
:10367300E8228E828F83A3123D27740522E012363F
:1036830088A3A3A322F8A3E0F9850E82850F83A361
:103693002274F01205E574E8120BD6E985218285C0
:1036A3002283F08A0E8B0F8A828B83A3A3A3A3A307
:1036B300A3A3A3E0F9121B648A088B09EA4B7003E6
:1036C300023771E50E124F72123BCF123B66852112
:1036D30082852283E060030237747C04850E828531
:1036E3000F83A3A3A3A3A3A3A3A3E0F9121B6AEECF
:1036F3004F607B8E828F83A3A3A3A3123D23740702
:10370300120E31125F55123D237409120E31124805
:103713007AC0E07411120E31D0E0126306A3A3A3A2
:10372300A3A3A3A3123D23740F120E31126ABD7417
:1037330012120E31E41266E2C8241FF582E438F552
:1037430083125AE3C413135403FC70027C048E8265
:103753008F83E0F97808120B60742059FD74405987
:10376300F97403120BAE121C007402120B3D0266B5
:10377300EA7C08850E82850F83A3A3A3A3A3A3A337
:10378300A3E0F9121B6A8B0BEA4B70030236F2EECD
:103793004F60DB852182852283E0F50C780C120BC8
:1037A30064850882850983A3A3A3A3A3A3A3E0F548
:1037B3000C780C120B648A828B83A3A3A3E0FB8A8D
:1037C30082850B8312731A8A82850B83E0FA8E82B9
:1037D3008F83A3A3E0F91224347402120B3D023643
:1037E300F674F71205E574FA120BD6E9FE7801793F
:1037F300017F00800379000F124B59E0FCEFC39C5B
:103803005026EF75F007A4FC85F008AD08EA2CFC00
:10381300EB3DFD124148E0A2E050DA540C60D6E0E3
:10382300A2E250D3780080CF8A828B83A3A3A3A381
:10383300A3A3E0703DE9A2E0400574016E70338AF2
:10384300828B83A3A3A3A3A3A37401123B38E0C079
:10385300E07403120E31D0E01241A7E0C0E074041B
:10386300120E31D0E0F07405120E31E8125A8212B2
:103873001D4474060243C5C082C0837901121C0C27
:103883000258BE74F41205E5EA4B901D776019E403
:10389300F08A088B09F50AF50B7808120B587A029F
:1038A300122DAC120B3D800A7401F07A027B0012D8
:1038B3002D99022E9474F01205E574F3120BD6744D
:1038C30003120E31E4F0A3F0901B2E123B66740139
:1038D300120E31E4F0A312484F04F0901B68E0A2EB
:1038E300E350030239AB123B2C7409120E31120E52
:1038F3001A7409120E317808120DDA901B30780809
:10390300120BBE7405120E317808120DCB123A2F2A
:103913007405120E317808120D7E50077A017B0070
:10392300023A1C7405120E31780C120DDA901D67E1
:10393300E0F509780C7908120576A80CA90D901DFD
:1039430068E0C398E4995003E08001E8852182850B
:103953002283F07409120E317808120DDAC008C000
:1039630009C00AC00B7405120E31780C120DDA125D
:103973003A2F780C7908120576E4F50AF50BD00F87
:10398300D00ED00DD00C780C7908120C91901B300E
:10399300780C120DCB8011123A21126ABDEEFAEFA8
:1039A300FB1213FCAE08AF09EE4F60658E828F8366
:1039B30012301FC398502DEE2403F8E43FF9E0FAC8
:1039C30088828983E0C39AF060237403120E311254
:1039D3003E897401120E31EEF0A3EF125F70FEA365
:1039E300E0FF80C48E828F83A3A3A3E4F08E828F33
:1039F300831277B47401120E31124FEF8E828F83CC
:103A0300A3A3A3A36091125F49120E31123A288037
:103A1300897403120E311249DD740D0266EC123DF6
:103A230027901B2E22125B0EA3A3A322901D6612C6
:103A330077BCE4F50AF50B2274F01205E58A088BCE
:103A430009890A78007900901B2E123B66FBEE4B26
:103A5300601E088E828F83A3A3A3A31249A76010BD
:103A630008E87001098E828F83123B62EA4F70E38C
:103A7300901D691249DDC3E89AE99B4003023B1F8D
:103A83007A06123B22A80CA90DEA497003023B1FD8
:103A93008A828B83E508F0A3E509123B41E50AF02E
:103AA300901D68124B61123B38A3E4F0A3F0901B06
:103AB3002E1249A7600D8E828F83A3A3A3A3126A3C
:103AC300BD8017901B2E126ABD901B68E0A2E340D5
:103AD30009123B2C901B30120E1A901B68E0A2E3D4
:103AE300503A7A087B00901B13E0F91214CEEA4B8C
:103AF3004C4D7028901D66E0F508A3E085080CF591
:103B03000DE4F50EF50F780C120B587A087B009034
:103B13001B13E0F91214C27404120B3D0266EF7B0F
:103B2300001213F68A0C8B0D221214E0EAF8EBF95B
:103B3300ECFAEDFB22123B3C22123B41A322F08A1A
:103B4300828B83A3A322E508F00243C8F08E828F01
:103B530083A3A3A3A3A3A322125459A3A3F022A331
:103B6300A3A3A3E0FEA3E0FF227F050208C9F58219
:103B7300E43509F583E0F922EA123B80222410F5AB
:103B830082E422123B8EA3A3A3A322123D2B85081A
:103B93008285098322123B9C22F0850A82850B834E
:103BA300A3A322E50E2411123BCCE022E50E240E42
:103BB300123BCC22E50E2410123BCCE022123BC474
:103BC30022EE123B803FF58322F582E4350FF58325
:103BD30022240FF50AE43509F50B780A22E0F912DD
:103BE30013728A088B09EA4B2274F21205E5890BDA
:103BF3008A088B098A828B831249DD121C30EA4BB7
:103C0300600479B8806A121C3CE9F8902B71E49344
:103C1300F9E8C399400479B280567A15123B22AE73
:103C23000CAF0DEA4F7004791080458A828B83E4D0
:103C3300F0A3123B41E50BF0750A007808120B5C08
:103C43007C127D00EA24031265F9120B3D901B34AC
:103C5300124FEF7008901B34800C123D2388828929
:103C630083123C7670F4EEF0A3EFF0121C4E790051
:103C7300024AC91249E1EA4B8882898322C082C081
:103C830083901B3480048C828D8312731BEC4D60F4
:103C9300288C828D83A3A3E069600574FF6970E6B5
:103CA3008C828D83A3A3A3E06A7003A3E06B70D619
:103CB300EC2403FAE43DFB80047A007B000258BE47
:103CC30074F71205E5E9FD74FE6D70047C01800252
:103CD3007C00901B3480096D70027C01888289838B
:103CE300124FEF601F88828983A3A3A3E06A700346
:103CF300A3E06B70E7ECA2E088828983A3A3E05082
:103D0300D6F9800279FE0243C8EEF9800CA3A31210
:103D130077BCEE227402120B3D7F020208C9F583C1
:103D2300123D2722123D2B22E0F8A3E0F922123D97
:103D33002B8E828F8322120B3D7F030208C9C08220
:103D4300C0837900901B34800109E0FAA3E08A82E2
:103D5300F583E582458370F10258BE74F61205E5DA
:103D6300E4F508F5097808120B60902B71E493755C
:103D7300F013A4A9F0123E7E126B1B120B3DE9FE59
:103D830074096E7003121C48023D0C74F61205E5AB
:103D930074FE120BD6852182852283E4F0A3F0A85A
:103DA30021A922880889097808120B607508027511
:103DB30009007808120B6012678C120B3D023D1745
:103DC30074F51205E574EB120BD6852182852283E7
:103DD300E4F0A3F0901B3480748E828F83A3A3E05E
:103DE300C0E07402120E31D0E01254A0A982AA835B
:103DF30089088A09750A007808120B5C7C127D0019
:103E03007406120E31126AE0120B3D7402120BA6F5
:103E1300880889097808120B6075081375090078FA
:103E230008120B607404120E31124F9275F013A432
:103E3300F8AAF075F013E9123E7A126794120B3D5B
:103E4300852182852283123E898E828F83123B666F
:103E5300EE4F7085A821A922880889097808120BDA
:103E6300607508027509007808120B6012678C12DE
:103E73000B3D7415023D39A42AF9E82402FCE43908
:103E8300FD7A427B0022E02401F0A3E03400F0221B
:103E930074F41205E574EB120BD67E007F00A821A3
:103EA300A922880889097808120B607508028E090F
:103EB3007808120B607C007D007A42126B27120B8C
:103EC3003DE9706C8E0880567402120BA6880A892D
:103ED3000B780A120B60750A13750B00780A120B24
:103EE30060E50875F013A4F8AAF075F013E509125C
:103EF3003E7A126B29120B3DE9701B7403120E31CB
:103F0300AA82AB837402120E31E0F9121C2AE97003
:103F1300050EEE70010F0508E508700205098521FD
:103F230082852283123D23C3E50898E509994098C9
:103F3300EEFAEFFB7415022E9174F61205E58C82EE
:103F43008D83A3A3124195F0EA125DB63BF583E09E
:103F5300C0E0124152D0E0F0EA241DF582E43B12A6
:103F63003D21124136124190F0A3F0EA241FF5825D
:103F7300E43BF583123B66EC1241293DF583EEF0F9
:103F8300A3EFF012412F3BF583124160A3A3A3A338
:103F9300A3A3EEF0A3EF125A11FE8C828D8312417C
:103FA3009F74035EFEC39403400302411CEE60084A
:103FB30074026E60030240418C828D83E0540CFED8
:103FC300740C6E7003024080E0A2E4400D88828985
:103FD30083E08C828D83A31241B574086E60030263
:103FE30040801241407401F08A828B83A3A3A3A370
:103FF300A312546670148C828D83E0440C1241A783
:10400300A3A3124160EEF0A3EFF08C828D83E0A2B4
:10401300E4402B888212416E124183500109F582DC
:1040230012416EA3A3A3A3A3A3F0A3EF1241AF8CEA
:10403300828D83A3A3A3F0E82403F85001098882A7
:104043008983E0C0E0EC2411F582E43DF583D0E000
:1040530012419F8C828D83E0A2E750758882898309
:10406300E0FE8C828D831241B574FC5E700C8C82F1
:104073008D83A3E054036403701E02411C1241406C
:10408300E4F0740C6E6003023FEB888212417412F9
:10409300418350010902400D8C828D83A3E05403B8
:1040A300603288828983E0C0E0EC12415A3DF58397
:1040B300D0E01241B68C828D83E054036402701405
:1040C30088828983E0C0E0124148D0E01241B68083
:1040D30003A3E4F0EC124F5E3D126ABBEC2410FE26
:1040E300E43DFFEA241DF582E43BF583E0F5088E09
:1040F300828F83E0C3982508F508F0EA2417F8E4D3
:104103003BF98882F583E0C39508C0E0124136D0BD
:10411300E0125A11C39508500A124136E4F01241D5
:1041230052E4F0023D1C2415F582E422EA240DF545
:1041330082E422EC240DF582E43DF58322EC125156
:10414300173DF58322EC2414F582E43DF58322EC3C
:10415300123B803DF583222413F582E422E0FEA383
:10416300E0FF8C828D83A3A3A3A322124174A3A394
:10417300228983E0F508A3E0FFE5088C828D832282
:10418300A3A3A3A3F0A3EFF0E82402F8221241951E
:10419300A322E4F08C828D83A3A3A3221241BDA8A2
:1041A30082A98322123B3CA3A3A3A3221241BDA352
:1041B300E022A31241BD08A98322125A1AA3227432
:1041C300F41205E574F3120BD68A0A8B0BECFEEDA1
:1041D300FF8C82F583E0540CF508E0A2E75006E576
:1041E30008D2E7F508E508D2E1F50812546670062F
:1041F300E508D2E4F508E0A2E55006E508D2E5F5C6
:10420300087C087D007900AA21AB221213487402AE
:10421300120E31E508126AC1C0E07403120E31D0E8
:10422300E012484FE50AF0A3E50BF07405120E31D6
:1042330012632D120E31E070777408120E3112479B
:10424300D5125A0338126348C0E07408120E3112B3
:1042530042D6D0E0126328C0E07408120E31124235
:10426300CCD0E0F07408120E311242C2E01247FDC6
:1042730012487E125E17EE2411125432C0E012422D
:10428300B8D0E0F0EE2414125432C0E07408120ED9
:10429300311247D52435F582E438F583D0E012484E
:1042A30022C0E07408120E311247D9D0E0126081A7
:1042B300740D022E91E82432F582E439F58322123B
:1042C3003D31A3A3A3A3A3A3221247E91265273871
:1042D300F583221247E92426F582E438F583227414
:1042E300F71205E57E008A828B83A3A3A3A3A3A36E
:1042F300A3A3A3E0640460030243A412510FE0608C
:10430300030243A4124F713B124FED70030243A407
:1043130088828983E0540360030243A4E81251179F
:1043230039F583E0FA8C828D83A3A3E0FBA3E0CB72
:104333002411F582E43BF583E06A70658882898302
:10434300A3A3A3A3A3A3A3A3A31243A8E06A7003F5
:10435300A3E06B704C88828983A3A31243B4E0FF6C
:10436300A3E0CF24061254326A7003A3E06B7031CA
:1043730088828983A3A3E0F88C828D83A3A3E0F9C9
:10438300A3E0F5838982A3A3E06860138C828D8305
:10439300A3A3A3E0F5838982E0540C640470027E36
:1043A30001EEF980201243AC221249E58C828D8301
:1043B30022A3A31243ACA3A322740C120E31E0F97F
:1043C300740D120B3D7F010208C974F61205E574E2
:1043D300FC120BD6EAFEEBFFECFAEDFB8C82F583C5
:1043E300A3E054036016901B2A124FEF6059790023
:1043F300EEFCEFFD125C0E12245D804B852182855D
:104403002283EEF0A3EFF07402120E31124844AC93
:1044130021AD227A667B1C121E8E8A088B09A8089E
:10442300A909EA4960218A828B83A3A3A3A3A3A337
:10443300A3A3A37406F07A0088828B831247D51254
:104443005DD7E0F9121DEC7404023D1974F21205F4
:10445300E574F3120BD6EAFEEBFF8A82F583A3A37E
:10446300A3A3A3A3A3A3A3A3E0F50A901D77E070DE
:104473000579BA02478D750801750900750C007539
:104483000D007C087D007900AA21AB221213487429
:1044930005120E317401124857540460127402124B
:1044A3000E31E0D2E612485754087003750803E052
:1044B3005410600674404508F508E05408602274FF
:1044C30002120E31E044C01248575420600A7403AC
:1044D300120E31E0D2E080087403120E31E0D2E113
:1044E300F0EE24151254321247BD70037401697043
:1044F3000674084508F5088E828F83A3A3A3A3A39C
:10450300A3A3A3E07016121EE885218285228312DD
:104513005E247402120E31E0D2E28030640F701018
:104523007402120E3112485F74044508F508807F47
:104533008E828F83A3A3A3A3A3A3A3A3E064028E6A
:10454300828F83700A126AF4E8F0A3E9F08060A313
:10455300A3A3A3A3A3A3A3E06403700DAC21AD2283
:10456300EEFAEFFB121C9C80468E828F83A3A3A3DB
:10457300A3A3A3A3A3E064017035901BBEE0601066
:104583007402120E3112485F750910750AFF801804
:104593007402120E31E0440C12484F74FDF0A37400
:1045A300FFF074044508F5088E828F83122DA4EE64
:1045B3002415125432A2E0503F7402120E31E0541B
:1045C3000C701B8E828F831249DD12191EE9700550
:1045D30079BB02478D7402120E31E0D2E5F0EE246E
:1045E30015125432A2E050107402120E31E0540C32
:1045F30064047004E0D2E5F0EE2411125432C0E0FA
:104603007404120E31D0E012632F120E31E06003F6
:104613000247867408120E31124818E508F0A3E524
:1046230009F01247B3E0C0E01247A9D0E0F0124707
:104633009AE0C0E07408120E311247D512415A387D
:10464300F583D0E012487E64017011901BBEE0C078
:10465300E07408120E311247F3D0E0F07408120E22
:10466300311248131247A4FAE8241CF582E439F501
:1046730083EA12484AEE2415FAE43FFB8A82F58363
:1046830012731BE812576E39F583124844EE241C4B
:10469300125432C0E0124790D0E01258B41247BD12
:1046A300700374016970137408120E311250FFFA0B
:1046B300EE241D125432F9121B708E828F83A3A332
:1046C300A3A3A3A3A3A3A3E0C0E07408120E311213
:1046D30042D6D0E0F07408120E311242CCE50AF053
:1046E3007408120E31124F922428F582E439F583AF
:1046F300E50CF0A3E50D12482A1247FD1254AB1244
:104703005E17EE1247A4C0E0E82433F582E439F5DE
:1047130083D0E0F0EE241B125432C0E07408120E72
:10472300311247D9D0E0F0EE241A125432C0E074AB
:1047330008120E311247D52432F582E438F583D0BE
:10474300E01248221247C9120B5C12652D12731B2B
:10475300740B120E311247D5242F1277F7120B3D2B
:10476300EE241512543254406012901B4A124FEF3C
:10477300600AAA21AB22125C0E12245DAA21AB228D
:10478300121D0E740C120E31E0F9024AC4E8242003
:10479300F582E439F58322EE2419F582E43FF583AB
:1047A3002212653CE022E82412F582E439F58322E3
:1047B300EE2418F582E43FF583225480F8A3E054F5
:1047C30001F974806822F508A3E0F509750A0078F9
:1047D30008221247E9221247E92434F582E438F526
:1047E3008322A3A3A3A31247ED22E0F8A3E0C822E8
:1047F3001247E912412938F58322FAA3E0FBE824A2
:104803002AF582E439F583EAF0A3EB22A3A3A3A359
:10481300123D27EE22124F96124F7639F58322F07E
:10482300EE24131254B322F0EE240D1254B322E0FB
:10483300FC8A828B83E02CFCA3E03400FD8A828B0C
:1048430083ECF0A3EDF022F0A3E4F022F0852182C3
:1048530085228322F0EE24151254B322E0D2E3F032
:10486300124867228E828F83123D2B8521828522F7
:1048730083E8F0A3E9F022E8F0A3E9125F6AE022FB
:1048830074F71205E58A828B83A3E0640170047ECA
:104893006380027E648A828B83E060087905124814
:1048A300B724F3FE901B66E06007F91248B724F2C1
:1048B300FE0243A4121DB6E9F8EEC3982274F61261
:1048C30005E574FE120BD6852182852283125E24B0
:1048D300E9FEECFAEDFB900531124FEF6032A821AF
:1048E300A922880889097808120B607D01740E12C9
:1048F3000E31E0FCEEF9900531125DF812245D747F
:1049030002120B3DEA4B60047900800679B2800203
:1049130079B6023D1774F71205E5E9FE901B2012E4
:104923004FEF601F7409120E31E0F5087808120B7F
:1049330064EEF9901B20125DF812245D7401120BD2
:104943003D800279B60243C874F71205E58908EC85
:10495300FEEDFF79B5E508245E602014600624F8B7
:104963006034803D9005331249A76035126B3812CD
:10497300245D8E828F83125E248024901B22127307
:104983001BEC4D601CEEFCEFFD901B22125DF81238
:10499300245DE9F9800B901B1E1249AD1214F879BE
:1049A300000243C81249E1EA4B2212731FEEFAEFE9
:1049B300FB2274F71205E5E9FE79B574AB6E700B53
:1049C300901B1E1249DD1214F879000243C88E822F
:1049D3008F83A3A3A3A3A3A3A3A31249E1221249F1
:1049E300E522E0FAA3E0FB2274F11205E5EAFEEB0F
:1049F300FF8C0A8D0B750801901B6EE06E7003A38C
:104A0300E06F700C124AB8AA0AAB0B1214F8805E5E
:104A1300121EEEEE6A7002EF6B7009AA0AAB0B125C
:104A23001EF4804AAC0AAD0BEEFAEFFB121A44E90E
:104A3300F508901D6EE07036122368E97030E508C2
:104A4300702C901B3EE06E7003A3E06F7020EE4F5E
:104A5300601C750C36750D1B750E00780C120B5C03
:104A63007C087D00AA0AAB0B126AE4120B3DA9086D
:104A730002741774F21205E5EAFEEBFF8C088D0948
:104A8300750A01124AB8EEFAEFFB1214F2E9640157
:104A93007011901B6E123D23850882850983126A6B
:104AA300BD800EAC08AD09EEFAEFFB121A4AE9F528
:104AB3000AA90A8011121EE28A0C8B0DAC0CAD0DF3
:104AC30022740D120B3D7F060208C974F61205E528
:104AD300EAFEEBFF7A0D7B001213F6EA4B6062EEFF
:104AE30024241267C1F0EE24251267C1A3124B865A
:104AF3001267C7A3A312655A124B61F0EE124B471C
:104B0300124B76E8F0A3E9124B9D124B6E126ABD6D
:104B1300EE124B5012661DA3A3A3A3F0EE2433128F
:104B23005432C0E0124B59D0E012634C124B6EA3C7
:104B3300A3A3E8F0A3E9124B95C0E012510FD0E014
:104B4300F0023D1C242AF582E43FF58322242EF54E
:104B530082E43FF58322EA1255883BF58322124B08
:104B63006522E08A828B83A3A3A32212667CA3A37C
:104B7300A3A322124B7A22123D2B8A828B83A3A3F7
:104B8300A3A322F0124B8B22EE2426F582E43FF5F9
:104B93008322F0EE24321254B322F0EE242C12546A
:104BA300B32274F41205E574FE120BD6ECFEEDFF8E
:104BB300EC241612543264057010EC2406FCE43F16
:104BC300FD121C96E97003024C51AC21AD22126810
:104BD30076121924852182852283124FEF606B8E12
:104BE300828F83E064017058E875F009A4F8AAF095
:104BF30075F009E9A42AF9749728F8740839F9E8D3
:104C0300FAE9FB8882F5837808120DDAEE124CF389
:104C1300120D7E4027852182852283124813125468
:104C230040124C567808120DDA9087367808120C29
:104C3300A58A828B837808120DCB800A79A2801013
:104C4300EE240F126AB77900800679A1800279C831
:104C5300022E8F124874EE1265482274F21205E593
:104C63008A0C8B0DECFEEDFFEC125440E4F0A3F044
:104C73009087027808120DDAEC124CF3120C0260E2
:104C830067EC240E125439703478B3901B65E070CE
:104C930028901B97E064017020EC2411125432F920
:104CA300121D9E8B09A909EE124F723F125E22EA72
:104CB3004960047800800278A18808802EE06004AF
:104CC3006402700A121CA8E9F5087007801DE064ED
:104CD300037010EEFCEFFDAA0CAB0D121948E9F5B9
:104CE3000880087508A180037508A3A908024AC9AA
:104CF30012654878082274F01205E574F5120BD694
:104D0300EAFEEBFFEA240AFCE43F8C82F583127788
:104D1300B8124F7C7403120BB68A828B83125C1811
:104D2300E97003024DE27401120BB67403120BAE69
:104D33001219247401120E31124FEF7003024DE267
:104D4300E875F009A4F8AAF075F009E9A42AF97442
:104D53009328FC740839FDE508240E126069E4F019
:104D630004120E31123D23E508124F723509126AFF
:104D7300BB8C828D83120E0EE50824121260691219
:104D83000E1A9087367808120DDA8C828D83780894
:104D9300120D178C828D83780C120DDA908792781E
:104DA30008120DDA780C7908120576E508450945ED
:104DB3000A450B702A7401120E31124F9275F009D5
:104DC300A4F8AAF075F009E9A42AF9749B28F582DE
:104DD300740839F5837401F07A007B08124F9F8EB3
:104DE300828F83A3A3A3A3A3A3A3A3A3A3E02406C4
:104DF300FCA3E03400FD8E828F83125C1812633AA9
:104E0300603EEE240A124F64124818746812484A2E
:104E1300E8124F5E39F5837402F0901B50120E0EA8
:104E23008C828D83125E11125A033CF583120E1A83
:104E33009087367808120DDA901B507808120D17F8
:104E4300124FDA705D901B1E124F8AA3A3A3A3A374
:104E5300A3A3A3A3A3125A391214F2E9701012598F
:104E6300F7901B1E125A09700512633A60348E8242
:104E73008F83A3A3A3A3A3A3A3A3A3A3124F8A12C2
:104E830049DD12194EE960118E828F83A3A3A3A378
:104E9300A3A3124FC6E4F0A3F08E828F83124FAC0C
:104EA300E4F0124FDA6003024F598E828F83A3A37B
:104EB300A3A3A3A31277B4901B65E06003024F4E34
:104EC300901B97E064016003024F4E750A3A750B1D
:104ED30000780A120B607402120BA6880A890B78F9
:104EE3000A120B60126DB3120B3DE9705BE50824E7
:104EF3000E1260697401124FF4C0E0E50824111228
:104F03006069D0E0F0E508240F126069743A124832
:104F13004A901B4C120E0EE5082412126069120E01
:104F23001A9087367808120DDA901B4C7808120D08
:104F3300179087367808120DDA901B4C7808120CFC
:104F4300027008124F9B8003124F7C124FDA7006D7
:104F53001258FA74A1F0740B0266EC240EF582E485
:104F630022F8E43FF9E8FCE9FD8882F58322EA129E
:104F73004F7622240FF582E422E508124F76350995
:104F8300F583E4F0A3F02212731F8E828F83221223
:104F93004F9622123D2BE8227A007B029019F7E00C
:104FA300F912139C228A828B83A3A3A3A3A3A3A393
:104FB300A3A3A3124FBA221247ED240EF582E438BD
:104FC300F58322A3A3A3A3124FCE221247ED240FEE
:104FD300F582E438F583228E828F83A3A3A3A3A350
:104FE300A31247E5240FF582E438F583124F96495F
:104FF30022124FF822F0852182852283E02274F663
:105003001205E5EAFEEBFF7A237B001213F6EE248A
:105013000AF508E43FF509850882125E227C237DA8
:10502300007900121348850882850983124FEF70B7
:10503300030250C2EEFAEFFB121CB4124FDA607493
:105043008E828F831250F564018E828F83A3A3A374
:10505300A3A3A370071250EB740E8021124FEF70BD
:105063001012633A700B8E828F83A3A3E0A2E050E9
:10507300071250E1740D80051250E1740512634C60
:105083005403640170071250C97405800B901B66AA
:10509300E0C0E01250C9D0E0125104F583888212B7
:1050A300545F8508828509831247D5125DB638F5AA
:1050B30083E9800E850882850983125E9B80031233
:1050C3005DDEF0023D1C8E828F83A3A3A3A3A3A363
:1050D300A3A3A3A31250DB22E0125DFDA3228E82C1
:1050E3008F83A3A3A3A3A3A31247E5125DBC38F543
:1050F3008322A3A3A3A3A3A3A3A3A3A3124FBAE0AF
:10510300221251082212688BF8A3E022EA125117E7
:105113003BF58322240CF582E42274F11205E57435
:10512300E4120BD68A0C8B0D8C088D097A237B0035
:105133001213F68A0A8B0BAE0AAF0BEA4F70030207
:10514300541A125DC2E508241512544B687003A368
:10515300E0698E828F837004740280027401F0E52B
:1051630008240DF8E43509F98882F583E0FAC3E4ED
:105173009AFA95E0FB1254472AFAA3E03BFB8E828E
:105183008F83A3A3A3A3125A208E828F83A3A3F09A
:10519300EE2420F582E43FF583E4F0EE2421F5824A
:1051A300E43FF583E4F0EEFAEFFB121D6885088215
:1051B30085098312546670098E828F83A3740580D8
:1051C30006901B66125454F0EE2417F50AE43FF5DB
:1051D3000B8E828F8312545FE9850A82850B83F0DD
:1051E300EE2416F8E43FF9E508240EFAE43509FB4A
:1051F30088828983124832E5082410FAE43509FBD2
:10520300850A82850B83E0FC88828983E0F88A82A1
:105213008B83E0C398C39CF81254A0F0EEFCEFFD1F
:10522300AA0CAB0D121CAEE9F50B8E828F83E064E2
:105233000270061259F7125424E50B60030254114D
:10524300750C00750D00901D6EE064016005E0644F
:1052530002703F1254366008EE2421125439703222
:105263008E828F83A3A3A3125DE412546CEE2416E3
:10527300125432125495FAE439FB123B24EA4B6080
:1052830011126646120B5C12547AAA0C126AE412CB
:105293000B3DEEFAEFFB121D74E9F50B901D6EE06A
:1052A30064016008E064026003025404E9700302CD
:1052B3005404E50C450D70030254118003850E0B55
:1052C300125436600BEE2421125439600302540A3F
:1052D300850B0E850C08850D09750A007808120BDD
:1052E3005C12547A8E828F83A3A3A3A31277FD1239
:1052F3000B3DEE2420125432600D12543F74681299
:10530300484AEE24208015EE2421125432601512EF
:10531300543F7403F0A37401F0EE2421F582E43FBB
:10532300F583E4F0EEFAEFFB121D74E9F50B7090D0
:105333007C137D0079007409120BAE121348741AA2
:10534300120E3174011254AB64687002A3E0704F03
:105353008E828F83124FC6E0640560030252C07CC5
:105363000879FF8E828F83A3A3A3A3E0242A125A72
:105373003C1213D2E970030252C07C087D0079FF0E
:105383007401120BAE1213487401120BB67A007B30
:105393000079AB121C907419120E3174FC80151233
:1053A300543FE064037004A3E064017008741912AD
:1053B3000E3174FFF0E4F508F5097808120B6074F8
:1053C30002120BB67413120E31AA82AB83125F2141
:1053D300120B3D852182852283E0602B7409120B19
:1053E300A6880889097808120B60750813750900E7
:1053F3007808120B607C007D00126794120B3D80CD
:1054030006E50C450D6007AA0CAB0D1213FCEEFA72
:10541300EFFB1213FC8003750B10A90B741C0274B1
:1054230014EE2406FAE43FFB1214F822EE240C12C5
:1054330054B322EE24201254B3640122EE124F76A9
:105443003FF58322E508240EF582E43509F583E070
:1054530022125459A322E08E828F8322A3E0F912F1
:105463001DB622E0540364012212547022E0FAE8CC
:105473002AF8E43400F9228E828F83A3A3A3125D5A
:10548300E8125470EE24161254B3125495FCE43906
:10549300FD22FAE82AF8E439F9E82404221254A494
:1054A3002212635BA3A3A322F01254B022EE240FB3
:1054B300F582E43FF583E0227901020AED74F412E8
:1054C30005E5EAFEEBFF8A82F583A3A3A3A3A3A3C7
:1054D300A3A31247D52424F582E438F58312546636
:1054E300702E8A828B831250F5702512558EE064DC
:1054F30005701D12558EA3E0F874016860057406EB
:10550300687007124FA874028005124FA87403F045
:10551300EA240A125E8F125DF8E4F0EA2408F8E444
:105523003F122E7E2431F582E43AF583E0C0E01287
:105533006B2FA3A3D0E01255ADCA242EF582E43A13
:10554300F583E0C0E0126B2FA3A3A3D0E0125AD3DC
:10555300C812558838123D21126B2F1255A28A0AA0
:105563008B0BAC0AAD0B850882850983125A39125D
:1055730014F88508828509831249DD121D74125EB1
:105583008AF0022E94240BF582E4228A828B83A371
:10559300A3A3A3A3A3A3A3126321F583888222A3B6
:1055A300A3A3A3124874121EE222125A15FAA3E00F
:1055B300220254BBC082C083901B4074BAF0A37410
:1055C3001CF0901B4274C6F0A3741CF0901B44742F
:1055D300CCF0A3741CF0901B4674C0F0A3741CF0B1
:1055E3000258BE74F41205E5EA2408FEE43BFF8E7C
:1055F30082F583124F92125DCEE0F50874035508CD
:10560300F509125A34F8A3E08882F583E508F0A37C
:10561300A882A983E509600974026509600302563B
:10562300D3740C5508FC600A74086C600574046C30
:105633007026740265097006E508A2E4401A8A829E
:105643008B83A3A3A3A3A3A3A3A31257D912652751
:105653003D125774A308A983740C6C701C1257D5A0
:1056630024281257C12428F582E43DF583A312614F
:1056730055F0E82402F8500109740265097006E543
:1056830008A2E4404B1257D5242A1257C1242AF505
:1056930082E43DF583A31257831257DF126155123B
:1056A30057DFA312577BE82404F8500109EC600F7D
:1056B30074086C600A740C6C600574046C701112CD
:1056C3005E052426F582E43C125774A3A882A983BD
:1056D3008A828B83A3A3A3A3A3A3A3A31257A35435
:1056E300037014E508A2E1400E125E0512576E3CEA
:1056F300F583E05480600812578912577680199019
:105703001B14E0C0E0125789D0E01257B688828993
:10571300831257B604125A1AA3A882A983E508A2D2
:10572300E750458E828F831257A38882898312574D
:10573300BC1257A854036030125E052434F582E48A
:105743003C126153F0E508A2E1501D8A828B83A3CA
:10575300A3A3A3A3A3A3A3122E832435F582E43A20
:10576300126153A3F0E82403022E94241EF582E46D
:1057730022F583125783F022125783A3A3A3F022A7
:10578300E088828983228A828B83A3A3A3A3A3A312
:10579300A3A3E0FCA3E0CC2432F582E43CF583220E
:1057A300E01257A822FCA3E0CC2425F582E43CF5C3
:1057B30083E022F0901B14E022126357E022F5826B
:1057C300E43DF5831257831257CE2212635B1257BF
:1057D300D9228E828F83E0FDA3E0CD22A31257CE80
:1057E300242CF582E43DF58322C082C0838A828B18
:1057F300831258AEFC74035CF98A828B83A3A3746F
:1058030001F0E960057402697061740C5CF8600A68
:10581300740868600574046870137402697005EC99
:10582300A2E440098A828B83A3A37402F0740C68F8
:10583300700A8A828B83A3A3E02402F07402697046
:1058430005ECA2E440258A828B83A3A3E02404F021
:10585300E8600F740868600A740C68600574046873
:1058630070098A828B83A3A3E004F0ECA2E7502A99
:105873008A828B83A3A3E0041258B412338DE054BD
:105883000360178A828B83A3A3E004F0ECA2E150A8
:10589300098A828B83A3A3E004F08A828B83A3A368
:1058A300E004F080168521828522831250DBA3E079
:1058B30022F08A828B83E022120B3DD083D08202B6
:1058C3000AEDC082C0838A828B83A3A3A3A3A3A36D
:1058D300A3A3A3A3124FEF60098A828B83A3A3120E
:1058E30058E780D7A3A3A3A3A3A3A3A31258F32288
:1058F3001249E51213FC221258FE22EE240CF58203
:10590300E43FF5832274F61205E574F4120BD61204
:105913005A43FCA3E0F5838C82A3E0C0E074021237
:105923000E31D0E0125AF1125ADA7404120E311207
:105933006ABD7402120E31E064047014125A5924C1
:1059430012125A3C7406120E31125A20241A803550
:10595300E064016005E064067039EA2402F8E43B80
:10596300122E7E125A033AF583E0C0E07403120E3E
:1059730031D0E0125A112413125A3C7406120E311C
:10598300125A20241B125ADA7408120E31E8F0A3BB
:10599300E9802B7406120E31E4F0A3125A54241238
:1059A300125A3C7408120E31125A2DC8241AF58269
:1059B300E438F583E0C0E0740A120E31D0E0F074ED
:1059C30006120E31124FEF601F7406120E31124988
:1059D300DD121A38E96401700F1259F77406120EBA
:1059E30031125A0964017007AA21AB22121D5074A7
:1059F3000C023D19121EE28A088B09AC08AD09227C
:105A03002412F582E4221249E11214F2E922125A15
:105A13001522125A1AE022F08882898322125A240C
:105A230022EAF0A3EB125A1AE022125A24F8A3E056
:105A3300221263B5E022E02406FAA3E03400FB223D
:105A43008A828B83A3A3A3A3A3A3126AF8E8F0A378
:105A5300E9F0125A5922125B02E022C082C0837419
:105A6300FD120BD6125A88123387C0E07402120E4D
:105A730031D0E0125A82121D5674030258BBE4F06F
:105A8300AA21AB22228A828B83A3A3A3A3A3A3125B
:105A9300486B8A828B83A3A3E022C082C08374FAFB
:105AA300120BD6126AEA125AF7C0E07402120E31D0
:105AB300D0E0125AD3F5838882A3A3E0C0E0740533
:105AC300120E31D0E0125A82121D5C74060258BBCA
:105AD300125A15F8A3E022F8A3E03400F922A3A395
:105AE300125B5522E02402F8A3E03400F922125A93
:105AF30015240222124874125B02125B0EE022EAA2
:105B03002402F8E43BF98882F58322E0FAA3E0F566
:105B1300838A82A322E50E123B80350FF583E0FCD6
:105B23007D0022C082C083125B49600A24FC600BA3
