:020000040000FA
:060000000212230207B109
:03002B00020FF0D1
:030053000206E6BC
:03006B00020D90F3
:10008300020745010000000000F8FF07FFFF000022
:100093000704000000030001FF14102700000020E4
:1000A300FD000206FFFF1ECB1A0000000000000047
:1000B3000000000000000041006400000001000196
:1000C300000104010C00020156870230870104007D
:1000D300004819000000E8030000FFFFA51901888C
:1000E300130000E803000064006400B801A0BB0D26
:1000F30000A0BB0D0002020207040101051E020558
:100103001E020A0A0101010809080103B80B028053
:100113003E0102FEFFE8030A050001FFFF010A0199
:100123001401E001050301010F10FEFF163000006A
:100133000000AE2F00000000FF000000FF001212BD
:10014300426046121233603DE9687008F618F618EB
:10015300F618F622748067F712017509090974808D
:1001630067F722121233601D121242700519191912
:10017300801A12110F701F1210D3C37003E6673376
:1001830019191940071818182208080874FFF618D7
:10019300F618F618F6221210D360171212D0702137
:1001A30092F01212D97019501720F0140808080998
:1001B3000909E7F61819E7F61819E7F61819E7F623
:1001C300221212D960E6E869701F0808E62480F657
:1001D30008E436F618547FB47F0CE654806007F6C3
:1001E300E418F618F622181822E9C6CC08C6CD087A
:1001F300C6CE08C6CFC0E0E8C0E0EAC0E0EBC0E08E
:1002030009E9F809E7FA09E7FBE6F918E6F8C3ECA8
:1002130098ED99EE9AEBC2E7F5F0EFC2E795F0504F
:100223000E600CEBCFFBEACEFAE9CDF9E8CCF8EAA5
:10023300A2E7D2E7FAEB33FB13F5F0EEA2E7D2E73E
:10024300FEEF33FFC5F013A2E730E601B313C5F0A9
:10025300C3C0E0C0F07F00C39BFB605E9418600FD7
:10026300401D14601AD0E023F9D0E0F80203478A56
:10027300F0E9486003D2F0E4AFF0FAF9F8803BEB21
:1002830030E40D89F0EA6003D2F0E4AFF0F9CAF884
:10029300EB30E30D88F0EF6002D2F0AFF0E4CAC9AF
:1002A300F8EB54076014FBC3EA13FAE913F9E813F4
:1002B300F8EF135002D2E0FFDBEDD0E0C0E030E70F
:1002C30039C3E49FFFF5F0EC98FC42F0ED99FD4251
:1002D300F0EE9AFE42F0D0E0F9D0E0F8E5F0607A73
:1002E300E923F9EE20E742D8028067C3EF33FFEC3E
:1002F30033FCED33FDEE33FE80EAEC28FCED39FDF3
:10030300EE3AFED0E023F9D0E0F84002801BC3EEC2
:1003130013FEED13FDEC13FCEF135002D2E0FF08C4
:10032300B800067F7F74FF802EEF3350178CF020C8
:10033300F00260100CBC000C0DBD00080EBE0004E2
:1003430008E860DFE933E813FFEE2313FE4F4D4C5B
:100353008008E95480FFE4FEFDFCEE33EF33F470D4
:1003630004FCFD7E80D0E0FBD0E0FAD0E0F8D0E0E2
:10037300CFC618CEC618CDC618CCC6F92212123372
:10038300700418181822121242700D74FFF618190F
:10039300F61819F61819F622E7548066F61212D9E0
:1003A300700F1212D070F014F608F608F608F680F3
:1003B300D11212D0700CF608F608768008E6447F56
:1003C30080EC1210D6700C12111260BFE65480F646
:1003D300E480BB121112700519191980A5E8697020
:1003E3000C763F18768018F618F6E8F922E6CDC0A9
:1003F300E018ECC0E0E633CD33CDD313F6E719FCB8
:10040300E7191933CC33C3947F400ECD9D50240894
:10041300E65480F6E418F6800FF4043D14501408F3
:10042300E6447FF6187680E418F618F6D0E0FCD0A0
:10043300E0FD22CCD313CCFD18E4C6CBC0E018E416
:10044300C6CAC0E00808ED08C633E613F618E4335D
:10045300C675F003C3CA97CA09CB97CB199C40044E
:100463007D08802EBD000302052916B6FF0506068A
:10047300081618C3CA33CACB33CB33CA27CA09CB2E
:1004830037CB193CC37D08803E187D0820E75CC646
:1004930033C6CA33CACB33CB33DDF1D5F0EB30E708
:1004A3007BCA97CA09CB974ACB199C406F4B7025DF
:1004B300E620E0218066187D08C3CA97CA09CB9756
:1004C300CB199CD3C633C6CA33CACB33CB3350C93B
:1004D300DDE7D5F0E1D3E4C636C608C636C608C69E
:1004E30036C608C636C61818188031C3CA97CA0953
:1004F300CB97CB199CB34097C633C6CA33CACB3309
:10050300CB33DD34D5F02EC6A2E0C640C8CA27CA15
:1005130009CB37194A70BECB3CB480B90808E6331F
:1005230008E633601F181818D0E0FAD0E0FBD0E0DB
:10053300FCD0E0FD22187D08CA27CA09CB37CB19A6
:100543003CD3808013F618E4B67F11F618B6FF0E7D
:10055300F618C60470D20808768080CAF618F61812
:10056300F680C500121233604F1212426012E75434
:100573008066F612110F70111212D0703B0909092F
:10058300F4F618F618F618F6221210D37015121294
:10059300D908080860EAE6447FF618768018E4F67E
:1005A30018F6221212D960161212D07012E4F6084D
:1005B300F608F608E65480F609090918181822EA1D
:1005C300C0E0EBC0E0ECC0E0EDC0E0E687F0A4FBE8
:1005D300ACF008E687F0A42CFCE435F0FA1809E641
:1005E30087F0A42C4B60027401CA35F0FCE433FBA2
:1005F30009E687F0D2F7A42CCB35F0FC1908E6877F
:10060300F0A42BCC35F0FBE433FD0819E687F0D2D8
:10061300E7A42C4ACB35F0CD3400FC09E687F0D2B1
:10062300E7A42DCC35F0FDE433FA0918E687F0D2C0
:10063300F7A42CCD35F0CA3400FC08E687F0D2E7E6
:10064300D2F7A42ACC35F07A7E20E70B0ACB33CB42
:10065300CD33CDCC33CC33CB3350147004ED30E0F9
:100663000ED2F1E4CD3DCDCC3CCC3B5005DA05C2F6
:10067300F1EB547FC63308E63392F0FBE73309E727
:1006830033C39A502D2B70190C0D4C4D7015180651
:10069300E608C333700D20F10AA2F013F6E41880C4
:1006A3000B4024E4F630F002768018F618F618F6BC
:1006B3008024D33B14501074FFA2F013F6187680F5
:1006C300E418F618F6800FA2F013F618E63303F6D3
:1006D30018ECF618EDF6D0E0FDD0E0FCD0E0FBD04E
:1006E300E0FA22C0E074F1120A62A2AFE433F50922
:1006F300D2AF85A708AFA1EF5508FE74105E600660
:1007030012155575A1EF74085E600812155B75A18B
:10071300F78024EFA2E092F0E508A2E082F0501700
:10072300906198E0F89005F0E0C398A2D265D033C9
:100733005002E8F075A1FEE509A2E092AF7F020244
:100743000B1EC0E074F2120A62A2AFE433FED2AF12
:100753009061A4E0F8759B00E59158540860087512
:1007630091F71215A98023E59158541060087591EB
:10077300EF1215AF8014E591A2E092F0E8A2E082B7
:10078300F05007E0C2E0F01217059061A3E0F8E52E
:10079300E9585404600E1216DB75E9FB906193E08F
:1007A300A2E640F2EEA2E092AF7F01020B1EC0E090
:1007B30074F2120A62A2AFE433FED2AF9061A5E0F5
:1007C300F8E5BF585404600675BFFB12171D80D4AB
:1007D300C3E498F8E499F91208148026C3E49AFA5A
:1007E300E49BFBE920E7E9120814E498F8E499F99B
:1007F30022C3E498F8E499F9120814E498F8E49908
:10080300F9C3E49AFAE49BFB22EB20E7CFE920E764
:10081300E0B90010BB0008E88AF084F8AAF022E4EB
:10082300FBC8FA22EB70227B10C833C8C933C93323
:100833005007C39AC3DBF280069A50012ADBEAC849
:1008430033F4C8C933F4C9FA2275F008E4C833C8CD
:10085300C933C933C99AC99B5004C92AC93BD5F0C6
:10086300ECFBC833F4C8E4C9FA221208B830F039F3
:100873001208FD80341208B820F01430E72B74FFFF
:10088300FCFBFA747F8022E4FCFBFA7480801AB4C8
:100893008008BC00F2BB00EF800F50EBF9E4C39A71
:1008A300FAE49BFBE49CFCE499C6CC18C6CB18C6BF
:1008B300CA18C6F922E4C9C608CAC608CBC6D333C8
:1008C3000308CCC63392F0C3947F402E941840198A
:1008D300C9B90704CACBCC225025C309CA33CACB32
:1008E30033CBCC33CC33D9F422F4600DC9CCC3134E
:1008F300CB13CBCA13CAD9F6CC22E4FCFBFA2214DD
:10090300FCFBFA22080808EAC0E0EBC0E086F0E747
:10091300A4FA180986F0E7A42AFA180986F0E7A4CE
:100923002AFA180986F0E7A42AFA1986F0E7A4FB45
:10093300E5F02AFA190886F0E7A42BFBE5F03AFA6A
:10094300190886F0E7A42BFBE5F03AFA1818098694
:10095300F0E7A4C5F02BFBE43AFA1908E7C5F0C6A3
:10096300A426F6E5F03BFBE43AFA1886F0E7A4F692
:10097300E5F00826F6E43B08F6E43A08F6D0E0FB97
:10098300D0E0FA22E4CFC0E0E4CEC0E0E4CDC0E0A2
:10099300E4CCC0E075F020E626F608E633F608E678
:1009A30033F608E633F6181818EC33FCED33FDEE96
:1009B30033FEEF33FFC3EC9709ED9709EE9709EF89
:1009C30097191919400FFFEC97FC09ED97FD09EEF4
:1009D30097FE191906D5F0BFECF709EDF709EEF705
:1009E30009EFF7191919D0E0FCD0E0FDD0E0FED0F3
:1009F300E0FF222521C582C0E0E52234FFC583C084
:100A0300E0E521C3958224F810AF0885832285820F
:100A1300218008858322858221D2AFCEF0A3E520F1
:100A2300F0A37808E608F0A3DEFAEFF0A3E581244B
:100A3300FAF8E608F0A3E608F0A3E608F0A308082E
:100A4300E608F0A3E608F0A315811581D0E0FED0F7
:100A5300E0F8158115811581E8C0E0EEC0E022C001
:100A6300D02521C582C0E0E52234FFC583C0E0E57F
:100A730021C3958224F310AF0885832285822180C8
:100A830008858322858221D2AFC8F0A3E9F0A3EAC7
:100A9300F0A3EBF0A37908E709F0A3D8FAECF0A3ED
:100AA300EDF0A3EEF0A3EFF0A3D0E0F0A3D0E0F0DD
:100AB300A3D0E0F0A3E520F0A3E5F0F0A322E979C9
:100AC3009EC608CAC608CBC608CCC6C37020799692
:100AD300CACBCC7019798ECBCC70137986CC700EBF
:100AE300F9802ACA33CACB33CBCC33CC331930E7A2
:100AF300F2CCCBCA3350147004EA30E00DE4CA3AA6
:100B0300CACB3BCBCC3CCC500209C3E913C6CC18AF
:100B13002313C6CB18C6CA18C6F92285228385219A
:100B230082E0C0E0A3E0F9A3E0FAA3E0FBA3780826
:100B3300E0F608A3DFFAE0FCA3E0FDA3E0FEA3E0F8
:100B4300FFA3E0C0E0A3E0C0E0A3E0F5D0A3E0F59D
:100B530020A3E0A3F5F010AF0885832285822180CE
:100B630008858322858221D2AFD082D083D0E0F85A
:100B7300D0E0321212BBB90003020BB5E4900501B9
:100B8300789E79188002F0A3D8FCD9FA7A9E7B1C50
:100B930090008678BC79018015E493A3AD82AE837F
:100BA3008A828B83F0A3AA82AB838D828E83D8E95A
:100BB300D9E77582217583ED7405120F6775821964
:100BC30075832D7400120F670575F0108E238F2423
:100BD300858228858327852182852283E0CEA3E031
:100BE300CF852882852783EBC9EAC8EDCBECCAC33E
:100BF300E833C8E933C9EA33CAEB33CBC3EA9EF51A
:100C030026EB9FF525B35004AB25AA26EC33CCED98
:100C130033CDD5F0DAAE23AF2422121233601C1287
:100C2300124260171212D970071212D07001D32228
:100C3300C0D01212D07006D0D0B322C32233D0D08A
:100C4300501430E0F6C3E7960809E7960809E796DB
:100C53000809E796B32220E0D5E6970809E6970846
:100C630009E6970809E697B322121233601B1212A2
:100C73004260161212D970071212D0600CB322C050
:100C8300D01212D07005D0D022C32233D0D050134B
:100C930030E0EBC3E7960809E7960809E7960809E9
:100CA300E7962220E0E4E6970809E6970809E69725
:100CB3000809E69722D083D082ECC0E0EDC0E0E4DF
:100CC30093A3FCE493A3FDED4C600D120DD5EC242E
:100CD300FFFCED34FFFD80EFE493A3FCE493A3FD5D
:100CE300ED4C600D120E72EC24FFFCED34FFFD8021
:100CF300EFD0E0FDD0E0FCE493A3C0E0E493C0E0D8
:100D030022852283852182E0A3FEE0A3F5207808D3
:100D1300E0A3F608DFFAE0A3FFE0A3C0E0E0A3C08E
:100D2300E0E0A3C0E0E0A3C0E0E0A3C0E010AF08B0
:100D33008582218583228008858221858322D2AF03
:100D4300D083D082020F6DD083D082E9C0E0E493D8
:100D5300A3C386F0C5F095F0F908E493A386F0C524
:100D6300F095F0700BE493A3C3994005E904800266
:100D7300A3E475F002A42582F582E5F03583F583BB
:100D8300D0E0F9E493A3C0E0E493C0E022C0E074B0
:100D9300F2120A62A2AFE433FED2AFE589A2E450B5
:100DA300259005E3E02401F0A3E03400F05389EF3C
:100DB3009005E1E0F8A3E0F9E849600A7900E0F57D
:100DC300838882122D1EC2C5EEA2E092AF7F01027C
:100DD3000B1EC0E0C3E49396087401939618400F6A
:100DE300E49366700808740193661870007019A381
:100DF300A3C3E49396087401939618A3A3400DD05C
:100E0300E0D0E0D0E0020CF4A3A3A3A3A3A3D0E01B
:100E1300227404800474028000CCC0E0EDC0E0E5DD
:100E230021C39CCCAD2250011D10AF068C218D2215
:100E330080068C218D22D2AF120EE9D0E0FDD0E0E6
:100E4300FC2274028000CCC0E0EDC0E0E521C39C2D
:100E5300CCAD2250011D10AF068C218D2280068C53
:100E6300218D22D2AF120EC7D0E0FDD0E0FC22C00C
:100E7300E0C0F088F0E49366700808740193661884
:100E83007000A8F0A3A3700BD0F0D0E0D0E0D0E0C6
:100E9300020CF4A3A3D0F0D0E022D083D082CCC044
:100EA300E0E493A36006120F291470FAE493A3609D
:100EB300061210691470FAD0E0FCE493A3C0E0E4D6
:100EC30093C0E022CAC0E0E493A3C582CCC582C527
:100ED30083CDC583F0A3C582CCC582C583CDC5832D
:100EE300DAE5D0E0CA22CAC0E0E0A3C582CCC5825D
:100EF300C583CDC583F0A3C582CCC582C583CDC5CB
:100F030083DAE6D0E0CA22C008C3E096F50808A356
:100F1300E096420808A3E096420808A3E096450835
:100F23007001D3D00822C0E0E493A3D39C5010E413
:100F330093A3C39C400AD0E0D0E0D0E0020EBAA352
:100F4300A3A3D0E022700908080822601618181815
:100F5300C6C333C608C633C608C633C608C633C6B7
:100F6300D5E0EA22C09FF59FE473D09F22D083D0BF
:100F730082C09FE493C0E0740193C0E0740293F5D0
:100F83009F227404800A7403800674028002740131
:100F9300C0E0F404120FA0D0E012127E222521F546
:100FA3008210AF08F521400C15228008F52140027C
:100FB3001522D2AF8522832200C0D0252110AF088D
:100FC300F521500C05228008F52150020522D2AFED
:100FD300D0D022BB0102E722C082C08389828A83E8
:100FE300BB0003E08002E493D083D08222C0E0C040
:100FF300D0E8C0E0A8A8D2AFC2C7E8A2E792AFD0BA
:10100300E0F8D0D0D0E0326016080808C6C313C693
:1010130018C613C618C613C618C613C6D5E0EA22E7
:10102300C3E0C696F608A3E0C696F608A3E0C69604
:10103300F608A3E0C696F6222521F8E43522F92224
:101043002521FAE43522FB222521FCE43522FD2269
:10105300252110AF08F521400C15228008F5214009
:10106300021522D2AF22C0E0E493A36C7009D0E052
:10107300D0E0D0E0020EBAA3A3D0E022E76670105E
:101083000809E766700A0809E76670040809E76655
:1010930022E066701008A3E066700A08A3E0667099
:1010A3000408A3E06622C3E7960809E7960809E760
:1010B300960809E796A2D265D03322C3E09608A327
:1010C300E09608A3E09608A3E096A2D265D0332267
:1010D300191919E70947097009E727097005E73363
:1010E300F4220922C3E096F008A3E096F008A3E0F7
:1010F30096F008A3E096F022C3E697F60809E69770
:10110300F60809E697F60809E697F622181818E68E
:101113000846087009E626087005E633F42208221B
:10112300C3E4939608740193960874029396087423
:1011330003939622E026F608A3E036F608A3E036EA
:10114300F608A3E036F622E627F60809E637F6089E
:1011530009E637F60809E637F622700422600D180F
:10116300C6C333C608C633C6D5E0F41822E056F624
:1011730008A3E056F608A3E056F608A3E056F622C5
:10118300E657F60809E657F60809E657F60809E6AA
:1011930057F622E026F008A3E036F008A3E036F085
:1011A30008A3E036F022E056F008A3E056F008A3C7
:1011B300E056F008A3E056F022E493F60874019396
:1011C300F608740293F608740393F622E647F608CA
:1011D30009E647F60809E647F60809E647F622E472
:1011E300C396F608E496F608E496F608E496F62223
:1011F300C6F4C608C6F4C608C6F4C608C6F4C622B2
:10120300C3E09608A3E09608A3E09608A3E096221D
:10121300C3E7960809E7960809E7960809E79622BF
:1012230075D00075813F75210175220500020B768B
:10123300E6084608C3134608336002E633F422E7A0
:10124300094709C3134709336002E733F422600CEB
:1012530008C6C313C618C613C6D5E0F422E6F008C1
:10126300A3E6F008A3E6F008A3E6F022E0F608A35D
:10127300E0F608A3E0F608A3E0F622CAC0E0E6F031
:10128300A308DAFAD0E0FA22E0FAA3E0FBA3E0FC39
:10129300A3E0FD22EAF0A3EBF0A3ECF0A3EDF02230
:1012A300E0F8A3E0F9A3E0FAA3E0FB22E8F0A3E966
:1012B300F0A3EAF0A3EBF022E5C754F84401F5C725
:1012C3007901222521F582E43522F58322E72719C6
:1012D300471947194722E62618461846184622C2D8
:1012E300AF75D69F02000022120F70D1DD03120FDB
:1012F30070FEDD03120F704BDE03120F70D3DE039B
:10130300120F708EDF03120F70F1DF03120F7035AF
:10131300E003120F70CFE003120F704DE103120FC1
:101323007080E103120F708EE203120F70AEE203BE
:10133300120F7002E303120F70EAE303120F70EC53
:10134300E503120F708EE603120F70DEE803120F2F
:101353007062E903120F7067EC03120F709BEE03C8
:10136300120F70D3EE03120F7032F003120F703CA2
:10137300F003120F708BF003120F705DF203120F64
:1013830070936E00120F700F6F00120F70426F0098
:10139300120F70706F00120F70AE6F00120F70E9B2
:1013A3007100120F70087200120F704D7200120F4D
:1013B30070E37200120F702F7300120F70C373006B
:1013C300120F709B7400120F70F77400120F705598
:1013D3007500120F70D27500120F70087600120F8D
:1013E30070537600120F70797600120F7009770030
:1013F300120F70A07700120F70EC7700120F701DA0
:101403007800120F70547800120F70DA7900120FFF
:1014130070A47A00120F70747B00120F7088D505C8
:10142300120F706ED705120F7011E005120F703393
:10143300E005120F7053E005120F707AE005120FEA
:1014430070C1E105120F70E2E105120F70A5E2050C
:10145300120F70F4FF02120F70F9FF02120F70FCEB
:10146300FF02120F7028EB05120F70EFEB05120F3E
:101473007010EC05120F7061F905120F7079F90500
:10148300120F70FD7F00120F70ACF905120F7096EA
:10149300F705120F70A6F705120F70B5F705120FB7
:1014A30070FEF705120F703FF405120F70C2F405BA
:1014B300120F7028F505120F70FCFF01120F7092C6
:1014C300FC04120F70A0FC04120F7019FD04120F1C
:1014D30070F1FD04120F70B4FF04120F70D2F805FF
:1014E300120F7088F905120F709BF905120F70C364
:1014F300FA02120F70EFFA02120F7033FD02120F8D
:101503007073FD02120F70B3FD02120F70C7FD025C
:10151300120F70E0FD02120F70D2FE02120F7077ED
:10152300FF02120F708BFF02120F7071F005120F82
:101533007095F005120F70AEF005120F70E0F00514
:10154300120F7010F105120F703DF105120F709F0D
:10155300F105120F70AEF105120F70B8F105120FFD
:1015630070C5F105120F704DE605120F706DE6059B
:10157300120F70ACE605120F70C7E605120F70E686
:10158300E605120F704CE705120F7055E705120FB1
:1015930070B2E705120F70C1E705120F70E5E7059A
:1015A300120F70A6E805120F70B3E805120F70C48E
:1015B300E805120F7001F805120F7019F805120FE4
:1015C3007045F805120F7055C905120F70A9CA05A9
:1015D300120F70B7CA05120F70CACA05120F70DF57
:1015E300CA05120F70F4CA05120F7007CB05120F4C
:1015F300707BCB05120F70E0CB05120F7082CC0508
:10160300120F7046CD05120F7056CD05120F70657F
:10161300CD05120F70FDF605120F7021F705120F9D
:101623007049F705120F7071F705120F70ABFD01CA
:10163300120F70D2FD01120F70F0FD01120F7063D3
:10164300FE01120F703CE305120F7055E305120FF4
:101653007061E305120F7075E305120F7093E305D4
:10166300120F709DE305120F70A7E305120F70BAF6
:10167300E305120F7044E405120F70B9E405120F6D
:1016830070EDE405120F703BE505120F7088E50558
:10169300120F70A3E505120F70ADE505120F70D39D
:1016A300E505120F7038E605120F7041F605120FAB
:1016B3007063F605120F70DDFF03120F70EFBA05AA
:1016C300120F7019BB05120F7036BB05120F70494C
:1016D300BB05120F705FBB05120F70BDBB05120F68
:1016E30070F5BB05120F70EDBF05120F7032C10507
:1016F300120F7065C105120F70C8C105120F70413A
:10170300C305120F7069C305120F707EC305120F54
:10171300708EC305120F70D2C305120F702DC4054E
:10172300120F703DC405120F700FF305120F7029CD
:10173300F305120F7051F305120F706AF305120FC0
:10174300708EF305120F70ACF305120F70C3F3051F
:10175300120F70F1F305120F700CF405120F708E57
:10176300F805120F7052D905120F7062D905120FC6
:101773007067DA05120F7099DA05120F70C9DA056E
:10178300120F70ECDA05120F7003DB05120F703DB8
:10179300DB05120F70A2DB05120F70E4DB05120FDD
:1017A3007023DC05120F7054DC05120F707FDC050B
:1017B300120F700DEF05120F702DEF05120F704110
:1017C300F005120F7044F005120F7007FF03120F9C
:1017D300703DFF03120F707FFF03120F708FFF0323
:1017E300120F70D3FF03120F70C5F601120F7008AA
:1017F300F701120F706DF701120F708AF701120FC4
:10180300702CF801120F7035F801120F707AF8017D
:10181300120F70A3F801120F70B0F801120F702BA2
:10182300F901120F70B6F901120F70FBF901120FD3
:101833007046FA01120F70ABFA01120F70CEFA0163
:10184300120F703FFB01120F7094FB01120F70CF48
:10185300FB01120F7004FC01120F7016FC01120F32
:101863007028FC01120F7047FC01120F7050FC012D
:10187300120F70FEFC01120F7041FD01120F707FF9
:10188300FD01120F709FFF02120F70CFF105120FAF
:1018930070F2E805120F7028E905120F7070E90560
:1018A300120F70C9EA05120F70008005120F70192C
:1018B3008105120F70538105120F70018305120FFA
:1018C300702F8305120F70958505120F70D585054E
:1018D300120F70798705120F70098805120F705D5A
:1018E3008805120F70FF8805120F70418905120FCA
:1018F30070838905120F70E08A05120F702E8C0514
:10190300120F70658E05120F70938E05120F70BA49
:101913008E05120F70C38E05120F701A8F05120FEA
:1019230070B58F05120F70BD9205120F70449305A9
:10193300120F70DD7F00120F70F37F00120F709E85
:10194300CD05120F70B4CD05120F7058CE05120FCE
:101953007097CE05120F70B4CE05120F70E5CE0549
:10196300120F7032CF05120F7065CF05120F70A0E2
:10197300CF05120F7095D105120F7041F505120FA7
:1019830070A0F505120F70DEF505120F701FF60536
:10199300120F70008004120F700C8004120F706E0F
:1019A3008004120F70788004120F70098104120FE3
:1019B30070458104120F70358204120F7082820405
:1019C300120F70118304120F70478304120F70C239
:1019D3008304120F70918504120F708B8704120F0A
:1019E30070698804120F70878904120F70CD8B04FD
:1019F300120F70108D04120F70BF8D04120F705FE1
:101A03009204120F70539304120F70F79304120F82
:101A1300701C9404120F70B89404120F70CD9404C8
:101A2300120F70F19404120F705F9504120F707C03
:101A33009504120F70A69504120F703C9704120FB1
:101A4300705D9704120F70039804120F704B980483
:101A5300120F70A09804120F70409904120F70A413
:101A63009904120F70029A04120F70AB9A04120FAA
:101A730070199B04120F704C9B04120F70BA9B04D5
:101A8300120F70F59C04120F706B9E04120F7008F6
:101A93009F04120F7046A104120F70AFA104120F1E
:101AA30070D9A104120F70F5A304120F709CA60441
:101AB300120F70C5A704120F70C4F704120F70122F
:101AC300F904120F70CEF904120F70D1FB04120F38
:101AD30070E9FB04120F700FFC04120F704CFC042E
:101AE300120F7036F905120F704D7C00120F70073C
:101AF3007D00120F706D7D00120F708E7D00120F2E
:101B0300705F7E00120F70ACC704120F70DBC70446
:101B1300120F7057C804120F70A5C904120F7087F3
:101B2300CA04120F703DCC04120F7062CC04120F62
:101B330070B4CC04120F7036CD04120F707DCD0437
:101B4300120F7090CD04120F70E7CD04120F70AD19
:101B5300CE04120F701DCF04120F7047CF04120F63
:101B63007090CF04120F7015D104120F70EED104D0
:101B7300120F7037D304120F7018D404120F70A011
:101B8300D404120F70E3D404120F70FDD404120FA7
:101B93007044D504120F7064D504120F701FD6045D
:101BA300120F7042D704120F709CD704120F70E605
:101BB300D704120F70E2D804120F7077DB04120FF0
:101BC3007096DB04120F700BDC04120F7030DC0410
:101BD300120F709ADC04120F7062DD04120F709FF3
:101BE300DD04120F7019DE04120F7015DF04120FDB
:101BF3007018DF04120F7022DF04120F702CDF0441
:101C0300120F703FDF04120F70B1DF04120F70E781
:101C1300DF04120F7013E004120F703AE004120F86
:101C2300705EE004120F7099E004120F700BE10470
:101C3300120F7033E104120F703DE104120F70793B
:101C4300E104120F70AEE104120F70C4E104120F2D
:101C53007048F805120F7060F805120F70F7FF0354
:101C6300120F70F2AB04120F7015AC04120F7074E4
:101C7300AD04120F70BDAD04120F7024AE04120F29
:101C83007082AE04120F7085AE04120F70D1AE04D1
:101C9300120F7042AF04120F70D5AF04120F70D839
:101CA300AF04120F7062B004120F70A3B004120FCE
:101CB30070C8B404120F7061B604120F70DBB6045F
:101CC300120F704ABA04120F7093BB04120F70659F
:101CD300BC04120F70CABC04120F70ECBC04120FC8
:101CE30070AFBE04120F7085C004120F702FC104B1
:101CF300120F70DCC104120F70DEC204120F7046A3
:101D0300C504120F70ABC604120F70F1C604120F94
:101D130070939305120F703D9405120F70A39405F1
:101D2300120F70BC9405120F70349505120F708A50
:101D33009505120F70CE9505120F702D9605120F93
:101D4300703D9705120F70649A05120F70929B05F0
:101D5300120F70139C05120F70199E05120F70C796
:101D63009E05120F70639F05120F7025A005120FB9
:101D730070D4A105120F707CA305120F7027A40560
:101D8300120F704CA505120F7004D902120F707850
:101D9300D902120F70C0D902120F7004DA02120FA7
:101DA3007053DA02120F709DDA02120F70D5DA0245
:101DB300120F7053DB02120F70ADDB02120F7001B2
:101DC300DD02120F7090DD02120F70B0DE02120FEF
:101DD30070D8DE02120F7018E002120F7029E002B1
:101DE300120F7041E002120F7048E102120F7010DF
:101DF300E202120F701DE302120F7041E302120F91
:101E03007058E302120F7079E302120F709BE30222
:101E1300120F70B8E302120F7096E402120F70EE05
:101E2300E402120F707EE702120F70CDE702120F69
:101E330070ECE702120F70D0E802120F7006E9028D
:101E4300120F7036EA02120F70B3EA02120F700219
:101E5300EB02120F703AEB02120F709BEB02120FA0
:101E63007041EC02120F700FEE02120F700FEF02AF
:101E7300120F708DF002120F706EF202120F70D4F7
:101E8300F402120F7084F602120F7054F702120F4D
:101E930070C2F702120F70D9F702120F70D1F80255
:101EA300120F70C1F902120F702CFA02120F70D7C1
:101EB300DC05120F707CDE05120F7039DF05120F7F
:101EC300709DDF05120F70A2D105120F70C0D105EE
:101ED300120F7004D205120F702AD205120F705020
:101EE300D205120F7068D205120F7080D205120F3F
:101EF30070E3D205120F7025D305120F7048D40575
:101F0300120F7051D405120F705AD405120F70635B
:101F1300D405120F706DD405120F7043B705120F5D
:101F2300706DC405120F7099C805120F70A7C8050C
:101F3300120F70ACC805120F709AED05120F700ADC
:101F4300F905120F70008002120F70328002120F17
:101F5300709E8002120F70398102120F70D88102B5
:101F6300120F701D8202120F703F8202120F7058FF
:101F73008202120F707E8202120F70A08202120F71
:101F830070DE8202120F70228302120F70448302EA
:101F9300120F70A68302120F706D8402120F703A33
:101FA300DD03120F70968502120F70688602120FFE
:101FB30070B28602120F70058702120F706B8702D0
:101FC300120F70A58702120F70F78702120F70139A
:101FD3008802120F703E8802120F70458A02120F98
:101FE30070998B02120F70BB8B02120F70EF8B0272
:101FF300120F70108C02120F701F8C02120F702AB6
:102003008C02120F70DA8C02120F70438D02120FC2
:1020130070F08D02120F70288E02120F70EE8E0276
:10202300120F70FB8F02120F70459002120F70D4C3
:102033009002120F70389102120F70739102120FF7
:1020430070DF9302120F70339502120F706C9802B7
:10205300120F70399902120F70C79902120F70F0A4
:102063009902120F70629A02120F70F69A02120FFF
:1020730070549B02120F70469C02120F70689C02F0
:10208300120F70C49D02120F70DD9D02120F70F0CB
:102093009D02120F705F9E02120F706B9F02120F50
:1020A30070789F02120F70819F02120F7059A10264
:1020B300120F707FA202120F708FA202120F709183
:1020C300A302120F7008A402120F7037A402120F9A
:1020D300704CA502120F7018A702120F70F0AA021B
:1020E300120F70FAAA02120F700EAB02120F7018C1
:1020F300AB02120F7022AB02120F702CAB02120F45
:102103007045AB02120F704FAB02120F70C3AB02DC
:10211300120F70CEAB02120F70F3AB02120F70FEF0
:10212300AB02120F704CAC02120F7056AC02120FBE
:102133007061AC02120F7085AC02120F70A9AC0271
:10214300120F7005AD02120F704BAD02120F7068C3
:10215300AD02120F70E5AD02120F701CAE02120F2A
:10216300705BAE02120F70A8AE02120F702AAF029C
:10217300120F70C3AF02120F7093B102120F70F1FE
:10218300B102120F700DB302120F7033B302120FAC
:102193007072B402120F7098B702120F70D9B9029D
:1021A300120F70B5BB02120F704BBC02120F70728C
:1021B300BE02120F701EBF02120F7053BF02120F26
:1021C30070B8BF02120F70C2BF02120F70ECC102CF
:1021D300120F7013C302120F7053C302120F70F960
:1021E300C302120F708AC502120F7013C702120FB7
:1021F3007033C702120F708CC702120F708EC802A1
:10220300120F70D8C802120F7028C902120F701271
:10221300CA02120F7087CA02120F70A1CB02120FEB
:10222300701CCC02120F7021CD02120F70CCCF02A2
:10223300120F70EBCF02120F704CD102120F700EFF
:10224300D302120F7062D302120F701AD402120F4C
:1022530070C9D402120F701FD502120F70D5D502A8
:10226300120F706AD602120F70D6D602120F7010B8
:10227300D702120F7041D702120F709DD802120FAE
:1022830070008003120F70328003120F7069800395
:10229300120F70528203120F70358303120F708D69
:1022A3008303120F70C88403120F70148503120F77
:1022B300703C8803120F709E8B03120F70EB8C031C
:1022C300120F70818D03120F708D8D03120F70BF6B
:1022D3008D03120F70418F03120F70DC9003120FE6
:1022E30070849103120F70C79103120F702D920324
:1022F300120F704A9203120F707A9203120F70AF8B
:102303009203120F707F9303120F70289403120F1E
:1023130070AC9603120F70CC9703120F70B598032D
:10232300120F70379903120F70569D03120F70939B
:102333009D03120F70EB9D03120F701E9E03120F6D
:10234300709F9E03120F70EC9E03120F70779F0312
:10235300120F70C99F03120F70A0A003120F7059C0
:10236300A103120F70F4A103120F700DA503120F36
:10237300702DA603120F70DAA903120F70F8AA03C7
:10238300120F70FBAA03120F702AAB03120F7030E7
:10239300AD03120F7009AE03120F703EAE03120F9E
:1023A3007046AF03120F70FCAF03120F709DB103A1
:1023B300120F70C2B103120F7001B203120F7073C8
:1023C300B203120F7057B303120F7024B403120F2A
:1023D300705AB603120F70CBB603120F700BB7030C
:1023E300120F706CB703120F702FBB03120F701E06
:1023F300BC03120F7005BD03120F707DBD03120FD6
:10240300703FBE03120F703DC003120F7055C0031F
:10241300120F7069C003120F70A1C003120F70CFA7
:10242300C003120F7056C203120F7061C303120F61
:1024330070B3C303120F7014C403120F70C6C40326
:10244300120F70EDC403120F70D1C503120F708207
:10245300C603120F7071C803120F70A6C803120FC0
:10246300700EC903120F703DCA03120F70EFCA0337
:10247300120F7020CB03120F7038CB03120F70C7EB
:10248300CB03120F707BCE03120F7053D003120FC6
:10249300706FD003120F708BD003120F7059D103DA
:1024A300120F703DD503120F705E8701120F7096E5
:1024B3008701120F70748C01120F70BA8C01120F06
:1024C30070078E01120F70728E01120F70FB8F0155
:1024D300120F700B9301120F70269401120F7038B4
:1024E3009E01120F70CB9E01120F701DA201120FDD
:1024F3007019A301120F7074A301120F70BEA4010F
:10250300120F70ACA501120F7048A801120F70BC16
:10251300A901120F703FAA01120F7042AA01120FF4
:1025230070B7AA01120F70C1AA01120F70CEAA01CF
:10253300120F70F9AA01120F70A9AB01120F70A24A
:10254300AC01120F704DAD01120F706BAD01120F84
:102553007084AD01120F70ADAD01120F70CFAD01DC
:10256300120F7024B001120F70E9B001120F702E18
:10257300B101120F70ADB101120F7059B201120FF8
:10258300708BB201120F70DFB201120F701AB30118
:10259300120F7061B301120F70B1B301120F70B655
:1025A300B301120F700AB401120F7036B401120F87
:1025B300701FB501120F7070B501120F70D0B50105
:1025C300120F702AB601120F70C5B601120F7004F4
:1025D300BA01120F7016BB01120F7090BC01120FDB
:1025E30070A0BF01120F703EC001120F7034C301FF
:1025F300120F70F3C301120F7037C401120F70E290
:10260300C501120F70F6C501120F7000C601120F3B
:10261300700AC601120F7016C601120F703BC60175
:10262300120F7014C801120F7069C801120F707372
:10263300C801120F707DC801120F70F2C801120F8A
:102643007041C901120F7052CA01120F709FCA0163
:10265300120F70ACCB01120F70F0CB01120F7096FA
:10266300CC01120F7089CD01120F704FCE01120FE2
:102673007072CF01120F7090D001120F7078D101D8
:10268300120F7090D101120F70E7D101120F70F188
:10269300D101120F70FCD101120F701AD201120F67
:1026A3007062D201120F70C4D201120F70EBD2010B
:1026B300120F70FDD201120F7098D301120F70CD5B
:1026C300D301120F70B4D401120F70F9D401120F99
:1026D30070DFD501120F7006D601120F7089D60173
:1026E300120F70FAD601120F7083D801120F70AF58
:1026F300D901120F7072DA01120F703ADB01120F57
:1027030070C4DB01120F70ECDC01120F708EDD015F
:10271300120F7009DE01120F70C5DE01120F700F68
:10272300DF01120F7069DF01120F7041E001120F18
:102733007064E001120F7017E101120F7039E101AB
:10274300120F70A2E101120F70B8E301120F70B003
:10275300E401120F7074E501120F70A6E701120F66
:1027630070F0E701120F7040E801120F70A4E80146
:10277300120F7006E901120F7034E901120F70583D
:10278300E901120F708DE901120F70BEE901120FFA
:1027930070F1E901120F7041EA01120F7094EA011E
:1027A300120F70B9EB01120F7059ED01120F70B4D3
:1027B300ED01120F70DDED01120F706AEE01120FC1
:1027C30070D8EE01120F70E6EE01120F700AEF01DE
:1027D300120F705FEF01120F707AEF01120F702C5E
:1027E300F001120F7064F001120F70A7F001120FC5
:1027F300700AF101120F700CF301120F7036F3011E
:10280300120F702DF401120F7037F501120F70E7DC
:10281300F501120F70F2F303120F702AF403120F73
:10282300704BF403120F708DF403120F70EFF40367
:10283300120F70F9F403120F7009F503120F7044AD
:10284300F503120F7024F903120F7011FB03120F1B
:1028530070F7FC03120F708EFD03120F7030FE032E
:10286300120F70843400120F702F3500120F70DDB9
:102873003500120F70E33600120F70033700120F8A
:10288300702C3800120F70E73900120F705A3A009B
:10289300120F70FE3A00120F700A3C00120F70758F
:1028A3003C00120F70B13C00120F70F43C00120F89
:1028B300702F3D00120F70713D00120F70063E0025
:1028C300120F70823E00120F704C3F00120F7029DE
:1028D3004000120F70C14000120F70DB4000120F56
:1028E300700B4100120F703C4100120F7002420046
:1028F300120F70124200120F70614200120F706EBD
:102903004200120F70774200120F70F54200120F4F
:1029130070514300120F709C4300120F70B74300B5
:10292300120F70E24300120F70FF4300120F700B7F
:102933004400120F70A24500120F70BB4500120F26
:1029430070404600120F70534600120F707246001B
:10295300120F70164700120F70974800120F704A3B
:102963004A00120F70E04A00120F70E34A00120F80
:1029730070534B00120F70714B00120F70084C0014
:10298300120F70504C00120F70534C00120F70193D
:102993004D00120F70864D00120F70AC4D00120FD8
:1029A30070374E00120F70554E00120F709B4E0081
:1029B300120F704F4F00120F70994F00120F70C813
:1029C3004F00120F70255000120F705A5000120F53
:1029D30070865000120F70945000120F70E1500077
:1029E300120F70515100120F709A5100120F70E6BE
:1029F3005100120F70125200120F701D5200120F6D
:102A0300703B5200120F70265300120F70305300A8
:102A1300120F706B5300120F707B5300120F70CFA5
:102A23005300120F70E35300120F70125500120F70
:102A330070275500120F70B55500120F70FA55002C
:102A4300120F70865600120F70915600120F70D33A
:102A53005700120F70EE5700120F703A5800120F02
:102A630070A95800120F70E25800120F70FC580042
:102A7300120F705C5900120F70FB5900120F704651
:102A83005A00120F70165D00120F70C85D00120F0E
:102A930070355E00120F70756000120F708D60004C
:102AA300120F70906000120F709C6000120F70B0D4
:102AB3006000120F70B86000120F70EB6000120F0D
:102AC30070EE6100120F707B6200120F70EB6200F8
:102AD300120F706D6300120F702E6400120F704D91
:102AE3006400120F70EE6400120F704B6500120F3A
:102AF300704E6500120F70C26500120F70116700EF
:102B0300120F70176800120F70A26800120F70BDC9
:102B13006900120F70856A00120F70B66A00120FF7
:102B230070D96A00120F70E26A00120F70116B0005
:102B3300120F70A16B00120F70576C00120F70CC44
:102B43006C00120F70736D00120F70E86D00120F9E
:102B5300701F6E00120F705D6E00120F7039B70593
:102B6300120F70E3B605120F70C8B605120F702767
:102B7300B605120F702BB505120F705AB405120F5C
:102B83007063B205120F70B6B105120F7048B1052C
:102B9300120F7094F704120F708AF704120F70DB90
:102BA300DA03120F7094D703120F701FF704120F7A
:102BB3007073F504120F70D5D603120F7032D6035B
:102BC300120F7031F504120F7059F404120F704391
:102BD300F404120F7004F404120F705FF304120F65
:102BE300704AF004120F701DEE04120F70EDED0425
:102BF300120F7091ED04120F702BED04120F70EA97
:102C0300EC04120F701CEC04120F70B7EB04120FDC
:102C1300705BEB04120F70FEEA04120F709CE90460
:102C2300120F7039E904120F7083E804120F707EDB
:102C3300E804120F7067E804120F7032E804120FF1
:102C430070F1D503120F7055E504120F70D2D5033E
:102C5300120F709FD503120F708AD503120F705F86
:102C6300D503120F70A9BA05120F7071BA05120FAE
:102C73007052E504120F7010E504120F70FDE404A6
:102C8300120F701ABA05120F70F2E404120F70CE0D
:102C9300E404120F70E8E204120F7067E204120FEB
:102CA300709EB805120F7023E204120F7024850280
:102CB300120F70F7E104120F70EAB005120F70AC37
:102CC300B005120F707FB005120F704BB005120FD5
:102CD30070EAAF05120F70D2AF05120F70AEAF05D9
:102CE300120F7077AC05120F7043AA05120F702AEA
:102CF300A805120F70B9A705120F7068A705120F68
:102D03007022A705120F70E0B705120F708BA6058E
:102D1300120F708ED40500000080FBE4738F000156
:102D2300003A1D87000100381D35000400FE1C25F4
:102D3300000200021D26000200041D2700020006F7
:102D43001D28000100101D29000100111D8400042D
:102D530000321A86000100AC1C2A000100121D2B50
:102D6300000100131D2C000100181D2D0008004058
:102D73001A2E000100191D2F0001001A1D30000139
:102D8300001B1D310001001C1D32000100481A33D5
:102D9300000100491A340001001D1D360001004ADC
:102DA3001A380001001E1D39000100171D8300029F
:102DB30000361D63000100551A64000100141D65EF
:102DC300000100151D6D000100561A71000800383E
:102DD3001A66000100351D43000100261D44000250
:102DE30000271D45000100291D460002002A1D473A
:102DF3000008004D1A480001002C1D4B0001002D56
:102E03001D04000100391DA10001003D1D37000113
:102E1300003C1D880001003B1D3C0001004B1A3D96
:102E23000001001F1D490002002E1D67000100570D
:102E33001A4D000200301D4E000100321D4F0002EA
:102E430000331D3E000100251D51000100211D52CC
:102E5300000100221D53000100241D540001004CF9
:102E63001A000000000000000136360101000102D3
:102E73000100010301000104010606050200000729
:102E83000100340801000F090401010D0100FF0EC8
:102E930008000017020000190100FF1A0100011BBE
:102EA3000100FE1C0100081D0200001F010001209B
:102EB300010001210200002301000F24020000266B
:102EC30001000127010008280200FF2A0100072B47
:102ED3000102402C0100002D0100012E0100012FF1
:102EE3000100FF30010B1D310800003A0100083BCF
:102EF30001000F3C0100013D0100FF3E04000042C0
:102F0300040000460400004A0400004E040000527E
:102F1300040000560400005A0400000000000020D2
:102F2300015C870000010020015D87000002002092
:102F33000158870000030020015987000004004264
:102F4300012486000005004201D6850000060042E8
:102F53000186850000070030015A870000004020E9
:102F6300015D870000FDFF21015487000401F0216A
:102F7300051619000402F023051819010400F021B5
:102F830023D21C010401F01023D81C010402F01009
:102F930023D91C010403F02023DA1C010404F030BC
:102FA30023DB1C010405F02323D41C01037103015B
:102FB30003010301030103010322030203010310BD
:102FC30003000300030003000300030003000342A4
:102FD3000300032403060300030003040312032571
:102FE3000323032503230304030403000300030053
:102FF3000344030003000323030003650321003597
:1030030003810300030503000300030003000325FA
:1030130003230303007100300160001100700031CD
:1030230002200350048000100061000000140063BC
:1030330000730072006200430000001300060000EA
:103043000000000400120000000000000000000463
:10305300000400370037003C024400000000000079
:10306300000000650000003500810000000500003D
:10307300008300000003047104020460041104705F
:103083000402040204010402041004610400041491
:103093000463047304720462044304000413040607
:1030A30004000400040404120400040004000400E7
:1030B30004510464000004000400044404000400F8
:1030C300040004000465040004350481046400055D
:1030D300040004830400040302710230016002113E
:1030E3000270020102020202028002100261023A2D
:1030F3000041006302730272026202430200021380
:103103000238000002000204021202000200020060
:1031130002000204020402370037003C02440200AA
:10312300023900000200026502000235028102003A
:103133000205028202830200020101710101010101
:10314300011101010131010101010180011001613E
:10315300013B00140063017301720162014301002A
:1031630001130106013D01350004011201000100B4
:10317300010001000104010401330133013C014456
:1031830001320136000001000165010001350081B3
:1031930001000105018201830100013600010006DF
:1031A3000000000F0000000000000000000000000D
:1031B3000003FFFF00000403FFFF0000FFFF0FF405
:1031C300010005C4040320000100140B00000000EB
:1031D3000000000003010F000000000000000000D9
:1031E30000000000000000000000000000000000DC
:1031F300000000000000000000771AA11A7D1AB138
:1032030019831AA71A831AB31A891AB119831AA729
:103213001A8F1AB11900000000951AB119000000A5
:1032230000000000009B1AB119000000000000001C
:10323300000000000000000000000000000000008B
:10324300000000000000000000000000000000007B
:1032530000000000001300DB1C1F00E11C1F80E7BF
:103263001C0000411D0100411D0200871C028081DA
:103273001C03008D1C0400931C0480991C05009FF3
:103283001C0600AB1C3100BD1C3300C31C3400C939
:103293001C3600CF1CFFFF00000A000000020000E4
:1032A30000040000000800000010000000200000DF
:1032B3000040000000800000000001000000020048
:1032C30000000400000008000000100000002000BF
:1032D300000040000001E524061525080F250B33E7
:1032E3002510332202EB2405032507F1240CCD24FA
:1032F3000DD924642920FF000007ECFDFDFDECDC63
:10330300DCCCBCACAC9C9C8C7C7C6C6C5C5C5C4C0A
:103313004C3C3C2C2C1C1C00160F00000B150B0204
:103323000002220F3300000E0F0000000000000017
:103333000000000000000000005A69674265654113
:103343006C6C69616E63653039D0D1D2D3D4D5D674
:10335300D7D8D9DADBDCDDDEDF140AE5D5C5B5A5C0
:10336300A5958585756500034D4C4651181A2505AD
:1033730002003C40423A3F3F392F473000011916C3
:1033830018161618230300303017181921301B1D87
:103393001F30303016181920231A1C1E300C0E0251
:1033A3000B040B0A0708000F0204020101010109C3
:1033B3000200BE040AE8030000FA0601000300004D
:1033C300000000E803FC320E005C337F00101E0493
:1033D300041E10080C2800041202000909033C0C07
:1033E300080508150300FF030C0AFFE4F0A3F0A38C
:1033F300F0A3221233EEF022901B9E1249FA1228F8
:10340300CF2212340922E0F508E4F509F50AF50B99
:1034130022E824FBF582E934FFF58322E82411F541
:1034230082E439F583E022F58312343022E0F50893
:10343300A3E0F50922122B4B7404120FBB7F080281
:103443000D047401F0900608E0640F227409120F52
:10345300BB7F04020D04EA2413FAE43FFB122A792A
:10346300E9227905122A85740622A3A3E024F5C371
:10347300941322122B579006281269B87A147B00F2
:1034830022C082C083901B7D74C3F0A37428F0A371
:1034930074D5F0A37428F0901B8174ABF0A3742847
:1034A300F0A374A5F0A37428F0A374E1F0A3742827
:1034B300F0A374E7F0A37428F0A374DBF0A37428DB
:1034C300F0A37493F0A37428F0901B8D74B7F0A34A
:1034D3007428F0A374BDF0A37428F0A374B1F0A30F
:1034E3007428F0A374EDF0A37428F0901B9E12537C
:1034F300C96009901B9E1249F61218A3901B9B12D8
:103503004D107408126065A3F0901C47F0901BA047
:10351300F07C0BFDF97AA17B1B1217F57C0B7D0068
:1035230079007AAC7B1B1217F5024B6A74F7120908
:10353300F674F7121053EAFEEBFF1235C27405124C
:103543004E2E7403F01236D9124E102430FCE43F91
:10355300FD8C821235BA1235CE6008123DE774FF36
:10356300F0A3F0EE242EE43F1C1CFD8C82F583A314
:10357300E0C0E08A828B83124AC2D0E01235CE8843
:103583008289831252FD2403F0EE123DF11212C61A
:103593007403F090061D120E18740212104B1239A8
:1035A300BB120FBBE9F5087007EEFAEFFB12295FB8
:1035B300A9087409023E00F583E08882898322EA20
:1035C3001235C72212550C3FF583221262E5124EC3
:1035D3001CE8F0A3E91265BCE02274F01209F6EAD4
:1035E300FEEBFF8C0C8D0D890B1236D9F583124E31
:1035F3002474101212C6E0F508A31235BCF0E824B7
:10360300FFF582E91239CDE508F0E824FEF582E9F9
:103613001239CDE50BF0900622E0C0E0E824FDF579
:1036230082E91239CDD0E0F0900621E0C0E0E82431
:10363300FCF582E91239CDD0E0F074121212C612F1
:10364300342C123414E509F0E824FAF8E934FFF9CC
:103653008882F583E508F0EE2404FCE43FFD880846
:103663008A828B83E0F50E8C828D83E0250EC395D1
:10367300081262E5124C4A850C82850D83A3A3A32D
:10368300A3A3A3A3A3E064037009EE124DFEF0A36A
:10369300E480031239D21239DA7409F07508A1757E
:1036A300091B750A007808120F89125DAF120FBB50
:1036B3007508FF7509FF7808120F8DAC0CAD0D125C
:1036C30039BB120FBBE9F5087007EEFAEFFB1229BD
:1036D3005FA908023440EA2402FAE43FFB8A82220B
:1036E300C082C083901BBDE0C3940840047407806C
:1036F30001E08A828B83F033333354F8F9024B6A47
:1037030074F01209F68A088B09890A8C0E8D0F75DD
:103713000C00A2AFE433F50BC2AF901BB780451288
:103723003805503D12381F64037036E50824F9F557
:1037330008E50934FFF5098E828F83A3A3E02405EE
:10374300FCA3E03400FDAA08AB0912198DE5082497
:10375300FFF508E50934FFF5097410250CF50C1580
:103763000A123BF4126D6DE50A6004EE4F70B0E58A
:103773000BA2E092AFA2AFE433F50BC2AF901BB73D
:10378300803E1252D68882F58312454A8508828587
:103793000983F08A828983123816A3A3E0C0E0E587
:1037A3000824FFF582E5091239CDD0E0F0E50824BD
:1037B300FEF508E50934FFF509050C150A123BF47B
:1037C300123A48602112381F640270F1123805EE74
:1037D30040B0124F45A2E550E4850E82850F8374F5
:1037E30001F0E50A70D7E50BA2E092AF8508828568
:1037F3000983E50CF0E50824FFFAE50934FFFB0231
:10380300344012380BA2E622EE2411F582E43FF590
:1038130083E02212381A2212531BA3228E828F8333
:10382300A3A3124AC61259F22274F01209F674F3D2
:1038330012105374031212C6E9F074021212C6EA8C
:10384300F08B0B852182852283E4F004121043124E
:103853002875E9F8900607E0292437F508FA7B0074
:103863001218078A0C8B0DAE0CAF0DEA4F700302D2
:1038730039B2EA2402F50EE43FF50FA808EA28F866
:10388300E43BF9850E82850F83124346900607E0D9
:10389300F9FAC3E49AFA95E0FB850E82850F83E07B
:1038A3002AF50CA3E03BF50D90060512342C750A9E
:1038B300007808120F89E9FC7D00AA0CAB0D124DAC
:1038C30080120FBBAC21AD2274011212C6E0F9E5E0
:1038D3000C24FFFAE50D34FFFB12287B8A828B83CD
:1038E300E4F0E50BC454F0F9901C48E0C4333354BE
:1038F300C0F8900601E0A2E0E43313134849440FF3
:10390300C0E0EA24FFF582EB1239CDD0E0F0EA24DF
:10391300FEF50CEB34FFF50D74031212C6E0F874D8
:10392300021212C6E0C454F048850C82850D83F060
:10393300A80C850E82850F831260322AC3988E826B
:103943008F83A3A3A3A3F0850E82850F83E8F0A33F
:10395300E50DF01239D21239DAE4F0740C1212C602
:10396300E4F07508AC75091B7808120F89125DAF76
:10397300120FBB852182852283E06009EE240E129B
:103983004F474408F0122A67E9F9E4F508F5097886
:1039930008120F8D740612104B1239BD120FBBE9BA
:1039A3007006EEFAEFFB800BEEFAEFFB12180D7ABE
:1039B300007B00740D02343D7903EEFAEFFB122A0B
:1039C3007F740222EE24FFF582EF34FFF58322EEAB
:1039D3001235C7E4F0A322F01239DF22EE125CD2D3
:1039E3003FF5832274F21209F68A0C8B0DA2AFE421
:1039F30033F50AC2AF750800750900901BB7802C18
:103A0300123C045024850C82850D83A3A3125DC24E
:103A13008E828F83A3A31249F6122A6DE9600A12DC
:103A23003BFFC2E6F08E088F09123BF4123A48704E
:103A3300CFE50845096006123AE1D2E6F0E50AA2AD
:103A4300E092AF800DE0FEA3E0FFEE4F227402127E
:103A53000FBB7F06020D0474F01209F68A0E8B0F5A
:103A63008C0C8D0D750A00A2AFE433F50BC2AF7E4B
:103A7300007F00901BB78010AE08AF09123AD9122D
:103A83004F45D2E7F01249D41249E86034123AE1C3
:103A9300A2E750F1850882850983A3A3120E18AC0F
:103AA3000CAD0DAA0EAB0F122A737402120FBBE9F1
:103AB30060D3EE4F60C2123E7B7006123AF3D2E43B
:103AC300F0E50BA2E092AFEE4F6006122959750A9A
:103AD30001A90A02344012380BD2E4F0EE22E508C1
:103AE300125CEC3509F583E022AA82AB8312198DAF
:103AF3008E828F83A3A3124AC6E02274F21209F6C0
:103B030074FE121053750C00750D008521828522F9
:103B130083E4F0A3F0A2AF33F50AC2AF901BB71250
:103B23006D6D802BEE24FBF582EF34FF12342A787F
:103B33000C120F8D123BE2120FBBEEFCEFFDAA211C
:103B4300AB2212182BAE08AF09901BBDE014F0EEA8
:103B53004F602B123C04501DEE240BF8E43FF98810
:103B630082F583E024FFF0A3E034FFF088828983A9
:103B73001253C960AF8E0C8F0D123BF480A1E50A7E
:103B8300A2E092AF901BBDE0602C900608E0640FAA
:103B93006006901C47E0701E7A957B1B122B579092
:103BA3008750120E147A957B1B124BF2120FBB80B7
:103BB3000574F0124AD3AA21AB221218318A088B5A
:103BC30009AE08AF09EA4F6013122887123BFFA220
:103BD300E28E828F83A350D974E980D7023A50EEE4
:103BE300FCEFFD7AB77B1B12183D7402228E0A8FFD
:103BF3000BEE24FBF582EF34FFF58322EE12380C33
:103C03002212380BA2E72274F71209F6EAFEEBFF41
:103C1300122887124ABF122D1EE9640190062470F0
:103C23000AE02401F8A3E034008003124A45F912A4
:103C33005147124C4A901BBDE0701F900608E06488
:103C43000F70177A957B1B122B57908750120E1407
:103C53007A957B1B124BF2120FBBA8A8C2AF901B25
:103C6300BDE004F0E8A2E78004E508A2E092AF0219
:103C7300505574F71209F6EAFEEBFFEA123CABF07B
:103C8300122887EEFCEFFD7AB77B1B121837A8A822
:103C9300C2AF901BBD124599900608E0640F7005F2
:103CA3007908122A1F02505512380CC2E42274F705
:103CB3001209F674EA121053EAFEEBFF900601E0D4
:103CC300602A8521828522837401F01212C6E412D0
:103CD3003D661212C6123AECC0E0740A1212C6D044
:103CE300E0126052740B1212C61252B27416023EE4
:103CF3000074F71209F6EAFEEBFF122869E9F9747A
:103D0300DC69601E74DD69601974E469601474F31E
:103D130069600F74DE69600A74DF69600574DB69CA
:103D23007007EEFAEFFB122A2502505574F71209B9
:103D3300F674EB121053EAFEEBFF85218285228392
:103D43007406123D661212C6AA82AB8312198DEE57
:103D53002408FCE43FFD740A1212C61252B2741511
:103D6300023E00F0EA2413FCE43FFD74022274F7E0
:103D73001209F674F7121053EAFEEBFFEA2430122D
:103D83004F47605DEA123DF11212C67403F09006CC
:103D93001D120E18123DE7120E18900630E0F9744A
:103DA3000412104BEEFAEFFB12286F7404120FBBD0
:103DB300E9F974DC69602374DD69601E74E4696089
:103DC3001974F369601474DE69600F74DF69600A43
:103DD30074E869600574DB697007EEFAEFFB122A79
:103DE300250235B5EE242EF582E43FF583221261D8
:103DF300C3AA21AB2212198D7408227403120FBBBC
:103E030002505574F21209F68A0C8B0D750A00756F
:103E13000B007508E7A2AFE433F509C2AF901BB7F7
:103E23008003123BF0123A486025123C0450F3120F
:103E33003E7B70EEEE2432124012E06870E4780AA2
:103E4300120F8D123BE2120FBB901BBDE014F0E585
:103E530009A2E092AFEE4F6013EEFAEFFB12288750
:103E630079F0EEFAEFFB122A25750800A908AA0CCF
:103E7300AB0D122A25023A551239DFE06401227490
:103E8300F41209F674F7121053EAFEEBFF8A82F577
:103E930083A3E064F37003023F208A828B83A3E051
:103EA30064DF60798A828B83A3E064E8606F8A822F
:103EB3008B83A3E064DB60651228C9E9F5087055BC
:103EC300EE240E124F47604D123F2A6048740812C9
:103ED30012C6123F39120E187508FF7509FF7808CC
:103EE300120F8D8E828F83A3A3A3A3A3A3A3A3E007
:103EF300F9740412104B12286F7404120FBBE9F506
:103F03000874F369600F74DF69600A74E869600517
:103F130074DB69700F8E828F83A3E508F0EEFAEFEE
:103F2300FB1228D502344FEE240FFAE43FFB790944
:103F330012290BEA4B2274021257B874FFF0A31232
:103F43003F4622125306A3A32274F11209F6EAFE96
:103F5300EBFF7508008A82F583A3A3A3A3A3A3128F
:103F6300346D40037508E88A828B83A3A3A3A3A3BC
:103F7300A3A3A3A3A3E0C3941040057508E880138B
:103F83008A828B83A3A3A3A3A3A3A3A3A3A3E06472
:103F93000F600B901C24E0540870037508E8EA24B2
:103FA3000B124012A3A3A3A3A3A3A3A3E0C39850FC
:103FB3000DEA240B124F47640F60037508E890065F
:103FC30021E0F47003A3E0F470037508EC7A237B1B
:103FD3000012189D8B0BA90B901B9E12402160278A
:103FE3008E828F83A3A3A982AA83890C8A0D750E5F
:103FF30000780C120F897C237D00901B9EE0FA123F
:104003004D80120FBB800375081AA908025DAAF53B
:1040130082E43FF583E0F88A828B83A3A322EAF04C
:10402300A3EBF0EA492274F51209F6EAFEEBFF8AE4
:1040330082F583A3A3A3A3A3A3A3A3E090060812DB
:1040430040B9E0900623F0EA240B124F4790060391
:104053001240B9A3E0901C48F0F9121657901C487F
:10406300E0600BEE2404124F3924061240AF901C7B
:10407300471234456004740180027400901BA0123F
:1040830066FD120F897C0B7D007AA17B1B124D808C
:10409300120FBBEE2418F508E43FF5097808120F58
:1040A300897C0B7D007AAC7B1B024D6DFAE43FFBF0
:1040B30079E112163F221266E7A3A3A3A32274F7A2
:1040C3001209F6EAFEEBFF8A82F583A3E07003127E
:1040D30033FB12626E02505574F71209F6EAFEEBD7
:1040E300FF901B9E1253C96010901B9E1249F690BD
:1040F3001B9EE4F0A3F01218A38E828F8374081220
:104103004ADA121F2102505574F61209F6901C4721
:10411300E06010901BA0E0700A124129EA4B600393
:1041230012295F026368900603E0FB900623E0FA1E
:10413300900608E0F91228812274F41209F674E754
:10414300121053EAFEEBFF750B018A82F583A3A3DA
:10415300A3A3A3A3A3E0A2E25069EA242BF582E47C
:104163003F125DC0EA2413FAE43FFB12288DE97085
:104173005290865CE064017005750B008045124126
:10418300FB120F897C0B7D007411121043124D80BA
:10419300120FBB122A67E9FA740E12103B880889C2
:1041A300097808120F8D7508307509007808120F09
:1041B3008DEE12601B120E181261B579011234676D
:1041C300120FBB8521828522837410F01261B574AE
:1041D300021212C6AA82AB83121981EE242B126932
:1041E300AE740B1212C6124C4A740D1212C6E50BB2
:1041F3001264277419023451EE240812670522C091
:1042030082C083901C48E06003122AD9024B6AC023
:1042130082C083901C3F747DF0A3741BF0A3748150
:10422300F0A3741BF0A3748DF0A3741BF0901D4FC7
:104233007478F0A37430F0901C297463F0A374288D
:10424300F0901BC27499F0A37428F0901BC4749F60
:10425300F0A37428F0901C24E0440202466EC0824E
:10426300C083EAFCEBFD7903025375C082C08379F6
:10427300080264E8C082C08374FE121053901BCA04
:104283007447F0A37429F0901BCC7441F0A37429F4
:10429300F080077AB77B1B1242D3901BB71253C926
:1042A30070F1901BB91253C960097AB97B1B124292
:1042B300D380EF901BB7E4F0A3F0901BBDF0A3F005
:1042C300A3F0901BD87483F0A37429F07402801CAC
:1042D300121831852182852283EAF0A3EB1242E78B
:1042E300122A5522F0AA21AB22227411120FBB020B
:1042F3004B6A74F61209F6E9FF747429F582E43403
:1043030033F583E493FEFA7B00121807EA4B600748
:10431300EA2E12434380267A027B00121807EA4BE7
:104323006017748A2FF582E43433F583E4938A8229
:104333008B83F0A3741A12470C7A007B0002636824
:10434300124C39E81262E2A3A3A3A3E4F022E9FC2E
:10435300740629F8EAA2E0501EE875F00A84E5F035
:10436300F96014740A28C399F8E9C39405400474E6
:104373000A28F8740B28F8ECC394134004791480CA
:10438300027906E82979002409F85001097A0A7BA1
:104393000012080CE8F9020F6DC082C083901C2440
:1043A300E05402600A121F27E96004790180027950
:1043B30000024B6AC082C083901C24E05402601444
:1043C300901BBDE0700A1253C660091243DC50040F
:1043D300790180027900024B6A12341FA2E722C0DE
:1043E30082C083908659E0F8901BBFE0C3985005C4
:1043F30012180780047A007B00024B6AC082C083D4
:10440300122A557900024B6AC082C08374FE1210CF
:1044130053852182852283EAF0A3EB124575A3A37A
:10442300A3A3A3E0600A14605724FE605A0244E584
:10443300900608E0640F6012122A2BE9700C1249EF
:10444300F0901BC6124AC2122D1E900630E0C0E047
:104453008521828522831252E9D0E01245757414B6
:10446300125D06FCA3E0FD7AB97B1B12182BA8A8EA
:10447300C2AF901BBF1245997920122A1F0242CF67
:10448300124843741580D9124843A3A3A3A3E06041
:1044930051124843123AF7C0E0852182852283E016
:1044A3002406F582E43BF583D0E0125D062402F88E
:1044B300A3E03400F98882F583E02401FAA3E03411
:1044C30000FB88828983EAF0A3EB125D061248831E
:1044D300852182852283601312454A600512455C5B
:1044E3004048AA21AB22122A55809212454A60F213
:1044F30012455C5021124569FA852182852283A3E6
:10450300E0C8240612483FF874AA1254FE3433F567
:1045130083E4936A601485218285228312454A6469
:104523000870BF124569640870B8124569141245D2
:104533007D240AC0E0852182852283124AC2D0E00D
:1045430012457D0402446312454E22124A45C82493
:1045530006F582E438F583E02285218285228312E1
:10456300454EC3940A2285218285228312381AA3D9
:10457300E022124587F583888222124587C82406E4
:1045830012486D22F0852182852283124A4522A892
:10459300A8C2AF901BBEE004F0E8A2E792AF22C02E
:1045A30082C083901BCE1253C9600812484A122D51
:1045B3001E80027900024B6A74F71209F6EAFEEBD9
:1045C300FFEA1239E07401124BF8F8A3E0F912354F
:1045D300C2124C4AEA2435124F47C0E0EA2413F5CD
:1045E30082E43FF583D0E0F0EA2436124F47C0E07F
:1045F300EA2414F582E43FF583D0E0F0EA2438128C
:104603004F47C0E0EA2418F582E43FF583D0E0F099
:10461300EA242FF582E43FF583120E181261C2EAF1
:104623002431124F47F91239C1120FBBE9F5087053
:1046330007EEFAEFFB12295FA908025055C082C0AA
:1046430083122A2BE96004792080027901024B6AE4
:10465300C082C083EA2411124664D2E0800DEA24AA
:104663000DF582E43BF583E022F0A3F0024B6AC030
:1046730082C08312466164017011124706400C8A9E
:10468300828B83A3E0F9122A2580661246F7A2E6FD
:1046930050128A828B83A3E0F9901BC8124AC2127C
:1046A3002D1E804D1246616401700D12470650089D
:1046B3008A828B83743080368A828B83A3E0641B67
:1046C3008A828B83700474228024A3E0700D1246C7
:1046D30061F874951254FE3433800B124661F874FA
:1046E3008A1254FE3433F583E4938A828B83124710
:1046F3000C024B6A1246FB22EA2410F582E43BF5D6
:1047030083E0221246FBA2E322F0901C1FE0F91281
:1047130018132274F71209F6E9FE1253C670030246
:10472300483CEE6014741B6E701AE8125CD239F5C3
:1047330083E064057003024814901BC112484AA326
:10474300E402481B74E96E7068E82412F582E439C8
:10475300F583E0700B121F2DE9600512488D60612F
:1047630079EE1215C1901BC0124864901BC0603AC9
:10477300124890901BC0700B12486414F0121783F8
:1047830002483C124882C2E7124A2B240D12483FCA
:104793006403700912485D1249E1D2E2F079ED1227
:1047A30015C1124875122D1E807812485074E98085
:1047B3006774E16E703E121F2DE9605512488D70CB
:1047C3005090062AE0C0E012485D2412F582E438D6
:1047D300F583D0E0F0900619E0C0E0901BC01248CA
:1047E30059124859D0E0F0900619E004F07901120B
:1047F300176B8045741C6E7018901BC01249F6909D
:104803001BD0124AC2122D1E901BC0E4F0A3F080ED
:1048130028901BC0124850EEF0901BC01249F612AC
:10482300294D124A0CE0548060031264D7901BC0D8
:10483300E4F0A3F07910122A1F02505512486D229A
:10484300852182852283A3E0F5838882221248543E
:1048530022124ACAA32212531722901BC01252F8E3
:10486300221252F8241212486D22F582E438F5839D
:10487300E022901BC01249FA901BC4124AC622E0E0
:10488300F8A3E0C8241012486D22901BC0124A13EB
:10489300E054042274F41209F6750A00750B00A2A1
:1048A300AFE433FEC2AF1253C6600302498A124A11
:1048B300BF122D1EE94410F8901BB7800985080A22
:1048C30085090B1249D41249E8700302498A123A46
:1048D300E1586870E8780A120F8DAC08AD09123BF5
:1048E300E6120FBB901BC0E508F0A3E509124A2BA3
:1048F3001249E1A2E75003024991901BBEE014F074
:10490300EEA2E092AF901BC0E0240EF8A3E03400C7
:10491300F9E8FEE9FF8882F5831249F6901BC0127D
:10492300456FF9122911E9901BBB1260658E828FC6
:1049330083E05480601812485D241312483FF91233
:10494300167B12485D241412483FF912166F124A5F
:104953000CA3E05401605F901BBB1253C960451266
:104963004A226040124A22F87900901BBB1249F692
:10497300120814E8C0E0124A00D0E0124A30C3948F
:104983001340117402800FEEA2E092AF8037901BA8
:10499300BD0249007400C0E0901BC1E0C81249CBBE
:1049A300D0E0800D124A007401124A2B1249CB74D5
:1049B30001F07903800C901BC0124882A2E1B3E49A
:1049C30033F912176B023454241AF582E438F58351
:1049D30022E50824FBF582E50934FFF58322125C06
:1049E300EC12487022123430E508450922852182F1
:1049F3008522831249FA22E0FAA3E0FB221252F540
:104A03002419F582E438F58322901BC0124A13223D
:104A1300124A45C8124A1B2212550C38F58322123A
:104A230052F5241812486D22124A3DC822124A3DFB
:104A3300F5838882A3A3A3A3E022F0901BC0124AAC
:104A43004522E0F8A3E02274F71209F6EAFEEBFF31
:104A5300122A4F124F44A2E3400A123E7B70059084
:104A630086578003908658E0F9EEFCEFFD7AB77B1A
:104A73001B121843E96038EEFAEFFB901BCA124A87
:104A8300C2122D1EEE240E124F475404701212450B
:104A930092EE1235C3A3E05401701E1229598019F6
:104AA300EEFAEFFB901BC2124AC2122D1E800A8E31
:104AB300828F83A374F1124AD3025055901BCC12F8
:104AC3004AC622124ACA22E0F8A3E0F5838882226A
:104AD300124ADA12294D22F0EEFAEFFB22024B635F
:104AE30074F71209F6EAFEEBFF7900901C24E054F8
:104AF30002700CEA2433124F475404600279E890A1
:104B03001C24E05460700CEA2433124F47540260B3
:104B13000279E88A828B83A3A3A3A3E0F890865D3E
:104B2300E0C398500279E8EA2431124F47700CEA47
:104B3300242E124F47700479F5800BE97005122972
:104B43003BE9F9E96007EEFAEFFB122A250250551B
:104B5300C082C0838A828B83740DF0121F21800769
:104B6300C082C083122959D083D082020F6D74F49E
:104B73001209F6EAFEEBFF8A82F583E4F0A3124BF7
:104B8300F854049086577012E0F8901BBEE0C39867
:104B9300401279F1122A25023454E0F8901BBDE04B
:104BA300C39850EE124BFEA3E054016037EA24375A
:104BB300124F47C394054033EA2433124F47540539
:104BC30070297AD27B1B122B57EE2437F582E43FF0
:104BD300F5831234057808120F857AD27B1B124BAA
:104BE300F2120FBBEEFA1255EF80AC79E880A512F2
:104BF3002B4B740422F0124BFEE022EA2433F5829D
:104C0300E43FF5832274F61209F6E9FE2451FAE42F
:104C13003400FB121807EA4B6015EE8A828B83A3DC
:104C2300A3A3A3F0EA2451124C39124C4A80047A0C
:104C3300007B00026368F8E43BF98A828B83A3A3B9
:104C4300221269B8901C9CE8F0A3E9F022024B639E
:104C5300C082C083901BDB74ADF0A37429F0A374EE
:104C6300DDF0A37429F0A374B3F0A37429F0A37443
:104C7300B9F0A37429F0A374D7F0A37429F0A37433
:104C8300CBF0A37429F0A374C5F0A37429F0A37423
:104C9300E3F0A37429F0A374E9F0A37429F0A374D7
:104CA300EFF0A37429F0A374FBF0A37429F0A374A9
:104CB300BFF0A37429F0A374A7F0A37429F0A3741D
:104CC300A1F0A37429F0901BF774D1F0A37429F019
:104CD300A374F5F0A37429F0A3740FF0A3742BF05D
:104CE300A37401F0A3742AF0A37407F0A3742AF049
:104CF300901C1BE4F0901C1EF0901C07124D1074C6
:104D030002F0901C10124D10740102466E741FF0D5
:104D1300A3742AF0A32274F51209F674F112105346
:104D23008521828522837402F074011212C6E9F090
:104D330060047AFF7BFF74021212C61257AD750826
:104D43001375091C750A007808120F897C0B7D0006
:104D530074071212C6AA82AB83124D80120FBBAA2C
:104D630021AB22121F21740F8003124D80120FBB3F
:104D73007F03020D047C0B7D007A137B1C1217E961
:104D830074032274F71209F674FD121053852182FD
:104D9300852283740AF074011212C6E9F0740212B8
:104DA30012C6EA126427023DFE74F61209F674F77E
:104DB300121053EAFEEBFFEA124DFE124E2E74025E
:104DC300F0EA2428FCE43FFDAA21AB22121981EE6C
:104DD3002431124E042433125E26120F8D740212F4
:104DE300104B79831A1A1239BF120FBBE9F50870F9
:104DF30007EEFAEFFB12295F0263611235C77401F4
:104E030022F582E43FF5831234301252CEF5831239
:104E13004E1CE8F0A3E9F0EE22124E248A828B8323
:104E230022E024FFF8A3E034FFF922F0A3E4F0EA40
:104E33001239E02274F01209F612689612126F7892
:104E430008790C1209077808120F857A0A7B1C026D
:104E5300343874F41209F674C6121053900608E03D
:104E6300640F600D852182852283742E1257CC80B6
:104E7300227A017B1C12347612081488088909E40B
:104E8300F50AF50B7808120F857A017B1C124BF299
:104E9300120FBB743A02345174F51209F6EAFEEBB1
:104EA300FF8A82F583A3E0F87078EA2430124F4733
:104EB30064026007E06403600278E8EA2426F5826E
:104EC300E43FF58312346F400478E88058E8705269
:104ED300EA24261240AFEE2431124F392430124F08
:104EE300476402700EEE24281269AE900617124C26
:104EF3004A801790061774FEF0A304F0EE2428FCF2
:104F0300E43FFD7A0E7B0612198DEE241B1241FE3F
:104F1300120F89124D78120FBBEEFAEFFB12299B89
:104F2300E9F8E8600EE88E828F83A31261CA7417D2
:104F3300126274024D73FAE43FFB795012163FEE8E
:104F430022EE2410F582E43FF583E02274F6120981
:104F5300F674F7121053901C1EE070377401F0F9C9
:104F6300121735AA21AB22122A6175081375091C81
:104F73007808120F8D7508017509007808120F8DD6
:104F830090061D120E18740612104B7A0312346524
:104F9300120FBB02636374F71209F61251757004A2
:104FA300A374EBF0901C1EE0A2E25003C2E2F0E017
:104FB300A2E1500512518680098E828F83742A12D2
:104FC300627402505574F41209F674FE12105312EF
:104FD300507B1252C1EC852182852283125310E04B
:104FE300F50B7015AA21AB22795312163FEE241349
:104FF300FAE43FFB794A12163F1241FB120F891262
:105003004D78120FBB1249F0A90B12298F901C1E69
:10501300E0A2E1500312518D901C1EE4F0740202D1
:10502300345174F71209F6EAFEEBFF8A82F583A383
:1050330074EBF0901C1EE0A2E150077A0079EB12AA
:105043002995EEFAEFFB1229CB8007EEFAEFFB125C
:105053002ACD7F01020D0474F71209F612507B90DA
:105063001C1BE4F0901C1EF07AFF7BFF8E828F8363
:10507300A3E0F912298F80DA1251C67A0A7B1C1237
:105083002B572274F71209F6EAFEEBFF1229C580AB
:10509300BA74F71209F6125203A3A3A3E0600474CF
:1050A30000800274EB1250D45003C2E2F0E0A2E19C
:1050B30050051251D78011A2E0500D8E828F837458
:1050C3002AF0A374EB126274EEFAEFFB12297180DB
:1050D300818E828F83A3F0901C1EE0A2E22274F6DD
:1050E3001209F6EAFEEBFF901C1EE0D2E1F0790113
:1050F3001217358E828F83A3E07038122A67E9FA7C
:10510300EE240DF508E43FF5097808120F8D7508B4
:10511300017509007808120F8D125147120E18EE0F
:105123002402FCE43FFD123465120FBBE98E828F2B
:1051330083A3F08E828F83A3E060067A00F912299D
:1051430095026368EE240BF582E43FF5832274F73E
:105153001209F61251757004A374EBF0901C1EE053
:10516300A2E25003C2E2F0E0A2E150031251860230
:105173005055EAFEEBFF790112173B8E828F83E0D5
:10518300642022C2E1F012518D227A008E828F8335
:10519300A3E0F91229952274F71209F61251C68E6B
:1051A300828F83A3A3A3A3E060047400800274EB43
:1051B3001250D45003C2E2F0E0A2E150031251D7DF
:1051C3000250CBEAFEEBFF790112173B7A017B1CFD
:1051D300122B5722C2E11266F8E0A2E4E433FA127A
:1051E300518F2274F71209F612520374EB1250D93D
:1051F3005003C2E2F0E0A2E150031251860250557F
:10520300EAFEEBFF790112173B8E828F83A3227490
:10521300F71209F612522802504E74F71209F612C9
:105223005228025055EAFEEBFF7A017B1C122B57E2
:10523300EEFAEFFB1229EF2274F71209F674EF125C
:105243001053EAFEEBFFEA1261B67A0E7B061219DF
:105253007BE960568521828522837409F0740112EB
:1052630012C674EFF01252C174021212C6EC12533A
:1052730010A3A3E0C0E074041212C6D0E01252FDE2
:10528300640870158E828F83A3A31252E9E0C0E0F5
:1052930074051212C6D0E0800674051212C6E41219
:1052A300605274061212C61252B27411023E00AA60
:1052B30082AB83122A97AA21AB22121F21221252F8
:1052C300CEF5831252E0FCA3E0F922EE1252D6FB94
:1052D3008882222402F8E43FF9E8FAE922124A45D7
:1052E3008882F583E0221252F82407F582E438F528
:1052F3008322901BC0124A45C82212530122125323
:1053030006E022F08E828F83A3A3A3A3221262E27C
:105313001253172212531B22E0F8A3E0F58388826D
:10532300A3A322C082C083122AD9024B6AC082C0BF
:1053330083901C3B74DBF0A3741BF0A374F7F0A3FE
:10534300741BF0901D49743CF0A37431F0A374DA1C
:10535300F0A37430F0901C277489F0A37429F090A3
:105363001C24E0440102466EC082C083EAFCEBFDCC
:105373007902122A3D024B6A74F61209F674FE1280
:105383001053901C201253C960077A207B1C122AE9
:1053930055901C26E4F0900CC31253C9602080077B
:1053A300AA21AB22122A55901C1FE0F912181F8B59
:1053B30009A90985218285228312402170E27402A2
:1053C300026365901BC01269B8E8492274F7120999
:1053D300F6E9FA7B00901C1FE0F9121849025055B8
:1053E30074F71209F674F0121053EAFCEBFDE9FEB0
:1053F3008A828B83E0F874A01254FE3433F583E47D
:1054030093C0E074011212C6D0E0F0640B700DE992
:105413008A828B83A3F0122ABB0254F9E070030241
:1054230054F9640C60030254EA741A6E700B74042A
:105433001212C6E4F0A30254E974041212C61257FE
:10544300ADEA2432125CB6C0E074031212C6D0E097
:105453001266E31212A374061212C61212AF8C82E2
:105463008D83A3A3A3A3A3A3A3A3A31269B4740AC1
:105473001212C6E8F0A3E9125503E054106009853F
:105483002182852283E48013EC2412125CB6F89007
:10549300062AE0C398852182852283F0E0C0E07468
:1054A3000C1212C6D0E0F0EC2415125CB6C0E07406
:1054B3000D1212C6D0E0F0EC2416125CB6C0E074F4
:1054C3000E1212C6D0E0F0EC2417125CB6C0E074E2
:1054D3000F1212C6D0E0125503A3E0540160087402
:1054E300011212C67411F074021212C6EEF07401A6
:1054F300121043121F217410023E0028F582E42289
:10550300F0EC12550C3DF58322240EF582E422C003
:1055130082C083901C26E0640370047901800279C1
:1055230000024B6A74F71209F6901C26E01255A28A
:10553300744728F582741D39F583125A34C2E7F093
:105543001255A9A3E493FE25E0FCE433FD74472C34
:10555300F582741D3D125DC0EC4D6005EE901C2676
:10556300F08A828B83E025E0FCE433FDE82CF582AE
:10557300E93DF583E493FCC4540F25E0F874351238
:1055830054FE341CF5831253C97005122AA9800CEA
:10559300EC540F1255A9124AC2122D1E0250552562
:1055A300E0F8E433F92225E0FCE82CF582E439F550
:1055B300832274F21209F674FE121053890B8A08BF
:1055C3008B09125654125645601A12605FF50A7819
:1055D30008120F891256612402125DB6120FBB1214
:1055E30055ED8003125673023A50AA0CEFFB901C40
:1055F3001FE0F91218132274F01209F674FE121048
:1056030053890B8A0E8B0F125654F50812564560B8
:105613002712605FA808EA28124343850E08850F06
:1056230009F50A7808120F89125661125DB4120F38
:10563300BB1255ED79008005125673791A74020274
:10564300343DFA7B001218078A0C8B0DAF0DEA4F1D
:1056530022746929F582E43433F583E49322A80B99
:10566300747F1254FE3433F583E493FC7D00EA2205
:10567300852182852283E50BF0791AAA21AB2212B8
:105683002A2522C082C083E9901C1F02466E74F64D
:105693001209F674FE121053EAFEEBFFEA5420706F
:1056A300308039A8A8C2AF901BBFE01412459B8A73
:1056B300828B8312579A901C221257AD122A31857E
:1056C3002182852283E0641560077A227B1C122ADB
:1056D300557AB97B1B121831EA4B70C7EF548070AF
:1056E3000C8016901C22EAF0A3EB1257C0901C1FEB
:1056F300E0F912181FEA4B70EAEE5410600B852193
:1057030082852283742D1257CCEEA2E0500B8521A3
:105713008285228374241257CCEE5402600B8521B8
:105723008285228374251257CCEE5404600B8521A5
:105733008285228374261257CCEE5408600B852190
:105743008285228374281257CCEE5440600D740175
:105753001212C61257B3742C1257CCEE5480600D3C
:1057630074011212C61257B3742F1257CC901C2017
:105773001253C9601BA8A8C2AF901C201249F6900F
:105783001C20E4F0A312459BA3EAF0A3E91257C03F
:105793007A007B000253C112579E22E08521828545
:1057A3002283F022A3A3A3A3A3A3EAF0A3EBF022F3
:1057B300E41257B822F085218285228322F0122A2F
:1057C300317A227B1C122A55221242E7122A3122F5
:1057D300C082C083901C22126422687002EB69703D
:1057E30007901C22E4F0A3F0024B6A74F71209F647
:1057F300EAFEEBFFEA4F7003121483A2AFE433F522
:1058030008C2AF8E828F831253C96028E824FBFA43
:10581300E934FFFB901C22125DC2E86C7002E96D53
:105823007007901C22E4F0A3F08E828F83E4F0A330
:10583300F01218A3023C6CC082C083901C49749D73
:10584300F0A3742AF0A374AFF0A3742AF0A374B581
:10585300F0A3742AF0A3746BF0A37429F0A374BBB0
:10586300F0A3742AF0A37465F0A37429F0A37471F0
:10587300F0A37429F0901C5774EBF0A3742AF0A3DF
:1058830074C1F0A3742AF0A374C7F0A3742AF0A31D
:1058930074D3F0A3742AF0A374CDF0A3742AF09008
:1058A3001C48E402466EC082C083900617E064FE83
:1058B3007003A3E0F470097C0E7D06121981801C2D
:1058C3008A828B83A3A3A3A3A3A3A3A37402F090AD
:1058D30006171269B48A828B83124C4A024B6AC040
:1058E30082C083900621C3E094FEA3E094FF4004AA
:1058F300790380027902024B6AC082C083125A3D47
:105903008C828D831259F2687039740268701C8A14
:10591300828B8312594BE06870298A828B83A3128E
:10592300594BA3E068701C7901801A7403687013E3
:10593300EC2405FC50010DEA2405FA50010B121961
:105943008780027900024B6AA3A3A3A3A3E0F88C88
:10595300828D83A3A3A3A3A32274F61209F67E0068
:10596300740A1212C6E01259E6FF8A828B83A3A33C
:10597300A3A3A3A3A3A3E06F706474026F704E8A02
:10598300828B83C082C08388828983A3A3A3A3A3BA
:10599300E0F50888828983A3A3A3A3A3A3E0FBAABA
:1059A30008D083D082E06A7003A3E06B70308882F2
:1059B3008983A3A3A3E0FA88828983A3A3A3A3E093
:1059C300F9EA6C7002E96D70157E01801174036F42
:1059D300700CE82405FCE439FD121987E9FEEEF9A1
:1059E300026368F8A3E0F98882F5831259F222A3CF
:1059F300E01313543F540322C082C0838A828B83F3
:105A0300A3A3A3A3A3A3A3A3E06402701690061702
:105A1300125A34687003A3E06970047901800F7926
:105A230000800BEAFCEBFD7A0E7B0612197B024B1E
:105A33006A1269B88A828B83E0228A828B83125925
:105A4300F2F82274F01209F674FC121053E985215E
:105A530082852283F074021212C6ECF0A3EDF08A61
:105A63000A8B0B75080074021212C6E02408125C3C
:105A7300B6C0E074011212C6D0E0125D06A2E75070
:105A830008750EFF750FFF800A90061DE0F50EA343
:105A9300E0F50F852182852283E0C2E7125D0B5476
:105AA300206007125CD874088004125CD8E4125D8D
:105AB3000B54046007125CE374808005125CE3748A
:105AC30010125D0B54106006125CBEE4800B90064E
:105AD3002AE0C0E0125CBED0E0125D0BA2E05003EE
:105AE3007508205408600674104508F5088A828BEF
:105AF30083A3A3E024FFFEA3E034FFFFEA125CC903
:105B0300C39402E0400F640B6009E0148E828F831C
:105B1300125CFC74034508F50875090090063DE026
:105B2300640170118A828B83A3A3A3A3E0C3946748
:105B33004003750910852182852283E0F50C750DDC
